{
  "contractName": "AccessRestricted",
  "abi": [
    {
      "constant": true,
      "inputs": [],
      "name": "owner",
      "outputs": [
        {
          "name": "",
          "type": "address"
        }
      ],
      "payable": false,
      "stateMutability": "view",
      "type": "function"
    },
    {
      "constant": false,
      "inputs": [
        {
          "name": "_newOwner",
          "type": "address"
        }
      ],
      "name": "changeOwner",
      "outputs": [],
      "payable": false,
      "stateMutability": "nonpayable",
      "type": "function"
    }
  ],
  "bytecode": "0x6060604052336000806101000a81548173ffffffffffffffffffffffffffffffffffffffff021916908373ffffffffffffffffffffffffffffffffffffffff160217905550341561004f57600080fd5b6101ce8061005e6000396000f30060606040526004361061004c576000357c0100000000000000000000000000000000000000000000000000000000900463ffffffff1680638da5cb5b14610051578063a6f9dae1146100a6575b600080fd5b341561005c57600080fd5b6100646100df565b604051808273ffffffffffffffffffffffffffffffffffffffff1673ffffffffffffffffffffffffffffffffffffffff16815260200191505060405180910390f35b34156100b157600080fd5b6100dd600480803573ffffffffffffffffffffffffffffffffffffffff16906020019091905050610104565b005b6000809054906101000a900473ffffffffffffffffffffffffffffffffffffffff1681565b6000809054906101000a900473ffffffffffffffffffffffffffffffffffffffff1673ffffffffffffffffffffffffffffffffffffffff163373ffffffffffffffffffffffffffffffffffffffff1614151561015f57600080fd5b806000806101000a81548173ffffffffffffffffffffffffffffffffffffffff021916908373ffffffffffffffffffffffffffffffffffffffff160217905550505600a165627a7a7230582065b5231d464cbce2a5cb2be2ddc13144c4c4003f3c0f49c2d28d87b898478ace0029",
  "source": "pragma solidity ^0.4.0;\n\ncontract AccessRestricted {\n\n    address public owner = msg.sender;\n\n\n    modifier onlyOwner() {\n        require(msg.sender == owner);\n        _;\n    }\n\n\n\n    function changeOwner(address _newOwner) public onlyOwner {\n        owner = _newOwner;\n    }\n\n    modifier costs(uint price) {\n        require(msg.value >= price);\n\n        if (msg.value > price){\n            msg.sender.transfer(msg.value - price);\n        }\n        _;\n    }\n\n}\n",
  "sourcePath": "/home/tarek/Documents/Master-DS/Semester-Project/DNA/Web-Applications/react-app/contracts/AccessRestricted.sol",
  "compiler": {
    "name": "solc",
    "version": "0.4.19+commit.c4cbbb05.Emscripten.clang"
  },
  "schemaVersion": "2.0.0",
  "updatedAt": "2018-05-13T22:15:04.556Z"
}