{
  "contractName": "Patenting",
  "abi": [
    {
      "constant": true,
      "inputs": [],
      "name": "patentPrice",
      "outputs": [
        {
          "name": "",
          "type": "uint256"
        }
      ],
      "payable": false,
      "stateMutability": "view",
      "type": "function"
    },
    {
      "constant": true,
      "inputs": [
        {
          "name": "",
          "type": "uint256"
        }
      ],
      "name": "patentNames",
      "outputs": [
        {
          "name": "",
          "type": "string"
        }
      ],
      "payable": false,
      "stateMutability": "view",
      "type": "function"
    },
    {
      "constant": true,
      "inputs": [],
      "name": "owner",
      "outputs": [
        {
          "name": "",
          "type": "address"
        }
      ],
      "payable": false,
      "stateMutability": "view",
      "type": "function"
    },
    {
      "constant": false,
      "inputs": [
        {
          "name": "_newOwner",
          "type": "address"
        }
      ],
      "name": "changeOwner",
      "outputs": [],
      "payable": false,
      "stateMutability": "nonpayable",
      "type": "function"
    },
    {
      "constant": true,
      "inputs": [],
      "name": "patentCount",
      "outputs": [
        {
          "name": "",
          "type": "uint256"
        }
      ],
      "payable": false,
      "stateMutability": "view",
      "type": "function"
    },
    {
      "inputs": [
        {
          "name": "_patentPrice",
          "type": "uint256"
        }
      ],
      "payable": false,
      "stateMutability": "nonpayable",
      "type": "constructor"
    },
    {
      "anonymous": false,
      "inputs": [
        {
          "indexed": false,
          "name": "_ownerMail",
          "type": "string"
        },
        {
          "indexed": false,
          "name": "_patentName",
          "type": "string"
        },
        {
          "indexed": false,
          "name": "_rentee",
          "type": "address"
        }
      ],
      "name": "NewRental",
      "type": "event"
    },
    {
      "constant": false,
      "inputs": [
        {
          "name": "_patentName",
          "type": "string"
        },
        {
          "name": "_patentHash",
          "type": "string"
        },
        {
          "name": "_price",
          "type": "uint256"
        },
        {
          "name": "_ipfs",
          "type": "string"
        },
        {
          "name": "_email",
          "type": "string"
        }
      ],
      "name": "depositPatent",
      "outputs": [],
      "payable": true,
      "stateMutability": "payable",
      "type": "function"
    },
    {
      "constant": false,
      "inputs": [
        {
          "name": "_patentName",
          "type": "string"
        }
      ],
      "name": "buyPatent",
      "outputs": [],
      "payable": true,
      "stateMutability": "payable",
      "type": "function"
    },
    {
      "constant": false,
      "inputs": [],
      "name": "withdrawFunds",
      "outputs": [],
      "payable": false,
      "stateMutability": "nonpayable",
      "type": "function"
    },
    {
      "constant": true,
      "inputs": [
        {
          "name": "_patentName",
          "type": "string"
        },
        {
          "name": "_account",
          "type": "address"
        }
      ],
      "name": "isAuthorized",
      "outputs": [
        {
          "name": "",
          "type": "bool"
        }
      ],
      "payable": false,
      "stateMutability": "view",
      "type": "function"
    },
    {
      "constant": true,
      "inputs": [
        {
          "name": "_patentName",
          "type": "string"
        }
      ],
      "name": "getTimeStamp",
      "outputs": [
        {
          "name": "",
          "type": "uint256"
        }
      ],
      "payable": false,
      "stateMutability": "view",
      "type": "function"
    },
    {
      "constant": true,
      "inputs": [
        {
          "name": "_patentName",
          "type": "string"
        }
      ],
      "name": "getPatentHash",
      "outputs": [
        {
          "name": "",
          "type": "string"
        }
      ],
      "payable": false,
      "stateMutability": "view",
      "type": "function"
    },
    {
      "constant": true,
      "inputs": [
        {
          "name": "_patentName",
          "type": "string"
        }
      ],
      "name": "getPatentOwner",
      "outputs": [
        {
          "name": "",
          "type": "address"
        }
      ],
      "payable": false,
      "stateMutability": "view",
      "type": "function"
    },
    {
      "constant": true,
      "inputs": [
        {
          "name": "_patentName",
          "type": "string"
        }
      ],
      "name": "getPrice",
      "outputs": [
        {
          "name": "",
          "type": "uint256"
        }
      ],
      "payable": false,
      "stateMutability": "view",
      "type": "function"
    },
    {
      "constant": true,
      "inputs": [
        {
          "name": "_patentName",
          "type": "string"
        }
      ],
      "name": "getPatentLocation",
      "outputs": [
        {
          "name": "",
          "type": "string"
        }
      ],
      "payable": false,
      "stateMutability": "view",
      "type": "function"
    }
  ],
  "bytecode": "0x6060604052336000806101000a81548173ffffffffffffffffffffffffffffffffffffffff021916908373ffffffffffffffffffffffffffffffffffffffff160217905550341561004f57600080fd5b60405160208061183a8339810160405280805190602001909190505080600181905550506117b8806100826000396000f3006060604052600436106100d0576000357c0100000000000000000000000000000000000000000000000000000000900463ffffffff1680630638c22c146100d557806316720cc2146100fe57806324600fc3146101d457806341e14449146101e95780635024850a14610285578063524f3889146102d7578063607f9e87146103485780638da5cb5b1461041e57806399d2618e14610473578063a6f9dae114610510578063ae1e8af914610549578063b084c841146105dd578063eb3e8bf814610606578063fa52c7cc1461072a575b600080fd5b34156100e057600080fd5b6100e861079b565b6040518082815260200191505060405180910390f35b341561010957600080fd5b610159600480803590602001908201803590602001908080601f016020809104026020016040519081016040528093929190818152602001838380828437820191505050505050919050506107a1565b6040518080602001828103825283818151815260200191508051906020019080838360005b8381101561019957808201518184015260208101905061017e565b50505050905090810190601f1680156101c65780820380516001836020036101000a031916815260200191505b509250505060405180910390f35b34156101df57600080fd5b6101e76108b7565b005b34156101f457600080fd5b61020a600480803590602001909190505061098c565b6040518080602001828103825283818151815260200191508051906020019080838360005b8381101561024a57808201518184015260208101905061022f565b50505050905090810190601f1680156102775780820380516001836020036101000a031916815260200191505b509250505060405180910390f35b6102d5600480803590602001908201803590602001908080601f01602080910402602001604051908101604052809392919081815260200183838082843782019150505050505091905050610a48565b005b34156102e257600080fd5b610332600480803590602001908201803590602001908080601f01602080910402602001604051908101604052809392919081815260200183838082843782019150505050505091905050610ea2565b6040518082815260200191505060405180910390f35b341561035357600080fd5b6103a3600480803590602001908201803590602001908080601f01602080910402602001604051908101604052809392919081815260200183838082843782019150505050505091905050610f1a565b6040518080602001828103825283818151815260200191508051906020019080838360005b838110156103e35780820151818401526020810190506103c8565b50505050905090810190601f1680156104105780820380516001836020036101000a031916815260200191505b509250505060405180910390f35b341561042957600080fd5b610431611045565b604051808273ffffffffffffffffffffffffffffffffffffffff1673ffffffffffffffffffffffffffffffffffffffff16815260200191505060405180910390f35b341561047e57600080fd5b6104ce600480803590602001908201803590602001908080601f0160208091040260200160405190810160405280939291908181526020018383808284378201915050505050509190505061106a565b604051808273ffffffffffffffffffffffffffffffffffffffff1673ffffffffffffffffffffffffffffffffffffffff16815260200191505060405180910390f35b341561051b57600080fd5b610547600480803573ffffffffffffffffffffffffffffffffffffffff16906020019091905050611102565b005b341561055457600080fd5b6105c3600480803590602001908201803590602001908080601f0160208091040260200160405190810160405280939291908181526020018383808284378201915050505050509190803573ffffffffffffffffffffffffffffffffffffffff169060200190919050506111a0565b604051808215151515815260200191505060405180910390f35b34156105e857600080fd5b6105f06112a1565b6040518082815260200191505060405180910390f35b610728600480803590602001908201803590602001908080601f0160208091040260200160405190810160405280939291908181526020018383808284378201915050505050509190803590602001908201803590602001908080601f0160208091040260200160405190810160405280939291908181526020018383808284378201915050505050509190803590602001909190803590602001908201803590602001908080601f0160208091040260200160405190810160405280939291908181526020018383808284378201915050505050509190803590602001908201803590602001908080601f016020809104026020016040519081016040528093929190818152602001838380828437820191505050505050919050506112a7565b005b341561073557600080fd5b610785600480803590602001908201803590602001908080601f0160208091040260200160405190810160405280939291908181526020018383808284378201915050505050509190505061153b565b6040518082815260200191505060405180910390f35b60015481565b6107a96115b3565b6004826040518082805190602001908083835b6020831015156107e157805182526020820191506020810190506020830392506107bc565b6001836020036101000a03801982511681845116808217855250505050505090500191505090815260200160405180910390206002018054600181600116156101000203166002900480601f0160208091040260200160405190810160405280929190818152602001828054600181600116156101000203166002900480156108ab5780601f10610880576101008083540402835291602001916108ab565b820191906000526020600020905b81548152906001019060200180831161088e57829003601f168201915b50505050509050919050565b6000809054906101000a900473ffffffffffffffffffffffffffffffffffffffff1673ffffffffffffffffffffffffffffffffffffffff163373ffffffffffffffffffffffffffffffffffffffff1614151561091257600080fd5b6000809054906101000a900473ffffffffffffffffffffffffffffffffffffffff1673ffffffffffffffffffffffffffffffffffffffff166108fc3073ffffffffffffffffffffffffffffffffffffffff16319081150290604051600060405180830381858888f19350505050151561098a57600080fd5b565b60038181548110151561099b57fe5b90600052602060002090016000915090508054600181600116156101000203166002900480601f016020809104026020016040519081016040528092919081815260200182805460018160011615610100020316600290048015610a405780601f10610a1557610100808354040283529160200191610a40565b820191906000526020600020905b815481529060010190602001808311610a2357829003601f168201915b505050505081565b610a5281336111a0565b158015610acd57506004816040518082805190602001908083835b602083101515610a925780518252602082019150602081019050602083039250610a6d565b6001836020036101000a0380198251168184511680821785525050505050509050019150509081526020016040518091039020600301543410155b1515610ad857600080fd5b60016004826040518082805190602001908083835b602083101515610b125780518252602082019150602081019050602083039250610aed565b6001836020036101000a038019825116818451168082178552505050505050905001915050908152602001604051809103902060060160003373ffffffffffffffffffffffffffffffffffffffff1673ffffffffffffffffffffffffffffffffffffffff16815260200190815260200160002060006101000a81548160ff0219169083151502179055506004816040518082805190602001908083835b602083101515610bd45780518252602082019150602081019050602083039250610baf565b6001836020036101000a038019825116818451168082178552505050505050905001915050908152602001604051809103902060000160009054906101000a900473ffffffffffffffffffffffffffffffffffffffff1673ffffffffffffffffffffffffffffffffffffffff166108fc6004836040518082805190602001908083835b602083101515610c7c5780518252602082019150602081019050602083039250610c57565b6001836020036101000a0380198251168184511680821785525050505050509050019150509081526020016040518091039020600301549081150290604051600060405180830381858888f193505050501515610cd857600080fd5b7fd10034f9b3712ad9622fedea55e0b44553a44caf4fd636172d31026df4a402a26004826040518082805190602001908083835b602083101515610d315780518252602082019150602081019050602083039250610d0c565b6001836020036101000a038019825116818451168082178552505050505050905001915050908152602001604051809103902060050182336040518080602001806020018473ffffffffffffffffffffffffffffffffffffffff1673ffffffffffffffffffffffffffffffffffffffff168152602001838103835286818154600181600116156101000203166002900481526020019150805460018160011615610100020316600290048015610e285780601f10610dfd57610100808354040283529160200191610e28565b820191906000526020600020905b815481529060010190602001808311610e0b57829003601f168201915b5050838103825285818151815260200191508051906020019080838360005b83811015610e62578082015181840152602081019050610e47565b50505050905090810190601f168015610e8f5780820380516001836020036101000a031916815260200191505b509550505050505060405180910390a150565b60006004826040518082805190602001908083835b602083101515610edc5780518252602082019150602081019050602083039250610eb7565b6001836020036101000a0380198251168184511680821785525050505050509050019150509081526020016040518091039020600301549050919050565b610f226115b3565b610f2c82336111a0565b1515610f3757600080fd5b6004826040518082805190602001908083835b602083101515610f6f5780518252602082019150602081019050602083039250610f4a565b6001836020036101000a03801982511681845116808217855250505050505090500191505090815260200160405180910390206004018054600181600116156101000203166002900480601f0160208091040260200160405190810160405280929190818152602001828054600181600116156101000203166002900480156110395780601f1061100e57610100808354040283529160200191611039565b820191906000526020600020905b81548152906001019060200180831161101c57829003601f168201915b50505050509050919050565b6000809054906101000a900473ffffffffffffffffffffffffffffffffffffffff1681565b60006004826040518082805190602001908083835b6020831015156110a4578051825260208201915060208101905060208303925061107f565b6001836020036101000a038019825116818451168082178552505050505050905001915050908152602001604051809103902060000160009054906101000a900473ffffffffffffffffffffffffffffffffffffffff169050919050565b6000809054906101000a900473ffffffffffffffffffffffffffffffffffffffff1673ffffffffffffffffffffffffffffffffffffffff163373ffffffffffffffffffffffffffffffffffffffff1614151561115d57600080fd5b806000806101000a81548173ffffffffffffffffffffffffffffffffffffffff021916908373ffffffffffffffffffffffffffffffffffffffff16021790555050565b60006004836040518082805190602001908083835b6020831015156111da57805182526020820191506020810190506020830392506111b5565b6001836020036101000a038019825116818451168082178552505050505050905001915050908152602001604051809103902060060160008373ffffffffffffffffffffffffffffffffffffffff1673ffffffffffffffffffffffffffffffffffffffff16815260200190815260200160002060009054906101000a900460ff168061129957508173ffffffffffffffffffffffffffffffffffffffff166112818461106a565b73ffffffffffffffffffffffffffffffffffffffff16145b905092915050565b60025481565b6001548034101515156112b957600080fd5b80341115611304573373ffffffffffffffffffffffffffffffffffffffff166108fc8234039081150290604051600060405180830381858888f19350505050151561130357600080fd5b5b60006004876040518082805190602001908083835b60208310151561133e5780518252602082019150602081019050602083039250611319565b6001836020036101000a03801982511681845116808217855250505050505090500191505090815260200160405180910390206001015414151561138157600080fd5b60c0604051908101604052803373ffffffffffffffffffffffffffffffffffffffff168152602001428152602001868152602001858152602001848152602001838152506004876040518082805190602001908083835b6020831015156113fd57805182526020820191506020810190506020830392506113d8565b6001836020036101000a038019825116818451168082178552505050505050905001915050908152602001604051809103902060008201518160000160006101000a81548173ffffffffffffffffffffffffffffffffffffffff021916908373ffffffffffffffffffffffffffffffffffffffff16021790555060208201518160010155604082015181600201908051906020019061149d9291906115c7565b506060820151816003015560808201518160040190805190602001906114c49291906115c7565b5060a08201518160050190805190602001906114e19291906115c7565b50905050600380548060010182816114f99190611647565b91600052602060002090016000889091909150908051906020019061151f929190611673565b5050600260008154809291906001019190505550505050505050565b60006004826040518082805190602001908083835b6020831015156115755780518252602082019150602081019050602083039250611550565b6001836020036101000a0380198251168184511680821785525050505050509050019150509081526020016040518091039020600101549050919050565b602060405190810160405280600081525090565b828054600181600116156101000203166002900490600052602060002090601f016020900481019282601f1061160857805160ff1916838001178555611636565b82800160010185558215611636579182015b8281111561163557825182559160200191906001019061161a565b5b50905061164391906116f3565b5090565b81548183558181151161166e5781836000526020600020918201910161166d9190611718565b5b505050565b828054600181600116156101000203166002900490600052602060002090601f016020900481019282601f106116b457805160ff19168380011785556116e2565b828001600101855582156116e2579182015b828111156116e15782518255916020019190600101906116c6565b5b5090506116ef91906116f3565b5090565b61171591905b808211156117115760008160009055506001016116f9565b5090565b90565b61174191905b8082111561173d57600081816117349190611744565b5060010161171e565b5090565b90565b50805460018160011615610100020316600290046000825580601f1061176a5750611789565b601f01602090049060005260206000209081019061178891906116f3565b5b505600a165627a7a723058200d4339bb87e433c8bee81ee3cb5a0c1d996539bfd7c0ed6d2c9e765a46fadc590029",
  "source": "pragma solidity ^0.4.2;\n\nimport './AccessRestricted.sol';\nimport './TimeStamping.sol';\n\ncontract Patenting is AccessRestricted {\n\n    uint public patentPrice;\n    uint public patentCount;\n\n    struct Patent {\n        address owner;\n        uint timestamp;\n        string patentHash;\n        uint price;\n        string ipfs;\n        string email;\n        //string key; TODO : Potentially add key to secure the file on IPFS\n        mapping(address => bool) authorized;\n\n    }\n\n\n    string[] public patentNames;\n    mapping(string => Patent) private patents; //PatentName to struct\n\n    event NewRental(\n        string _ownerMail,\n        string _patentName,\n        address _rentee\n    );\n\n    /* Constructor of the contract\n    * {param} uint : The price for depositing a pattern in Wei\n    */\n    function Patenting(uint _patentPrice) public {\n        patentPrice = _patentPrice;\n    }\n\n    /* Function to deposit a pattern\n    * {params} the patent parameters\n    * {costs} the price of a patent\n    */\n    function depositPatent(string _patentName, string _patentHash, uint _price, string _ipfs, string _email) public payable costs(patentPrice) {\n        require(patents[_patentName].timestamp == 0);\n        patents[_patentName] = Patent(msg.sender, now, _patentHash, _price, _ipfs, _email);\n        patentNames.push(_patentName);\n        patentCount++;\n    }\n\n    function buyPatent(string _patentName) public payable {\n        require(!isAuthorized(_patentName, msg.sender) && msg.value >= patents[_patentName].price);\n        patents[_patentName].authorized[msg.sender] = true; //Authorize sender\n        patents[_patentName].owner.transfer(patents[_patentName].price); //Send funds to patent owner\n        NewRental(patents[_patentName].email, _patentName, msg.sender); //Emit new event for email\n    }\n\n    /*Allows the owner to withdraw the remaining funds*/\n    function withdrawFunds() public onlyOwner {\n        owner.transfer(address(this).balance);\n    }\n\n    /*-----------------------------------View functions that do not require transactions-----------------------------------*/\n\n    /*Verifies that the given address is authorized for the given patent*/\n    function isAuthorized(string _patentName, address _account) public view returns (bool){\n        return patents[_patentName].authorized[_account] || getPatentOwner(_patentName) == _account;\n    }\n\n    /*Returns time-stamp of the Patent*/\n    function getTimeStamp(string _patentName) public view returns (uint){\n        return patents[_patentName].timestamp;\n    }\n\n    /*Returns the sha256 hash of the patent*/\n    function getPatentHash(string _patentName) public view returns (string){\n        return patents[_patentName].patentHash;\n    }\n\n    /*Returns patent's owner*/\n    function getPatentOwner(string _patentName) public view returns (address) {\n        return patents[_patentName].owner;\n    }\n\n    /*Returns the price of a patent*/\n    function getPrice(string _patentName) public view returns (uint){\n        return patents[_patentName].price;\n    }\n\n    /*Returns the IPFS location of the patent*/\n    function getPatentLocation(string _patentName) public view returns (string) {\n        require(isAuthorized(_patentName, msg.sender));\n        return patents[_patentName].ipfs;\n    }\n\n\n\n\n\n}\n",
  "sourcePath": "/home/tarek/Documents/Master-DS/Semester-Project/DNA/Web-Applications/react-app/contracts/Patenting.sol",
  "compiler": {
    "name": "solc",
    "version": "0.4.19+commit.c4cbbb05.Emscripten.clang"
  },
  "schemaVersion": "2.0.0",
  "updatedAt": "2018-05-13T22:15:04.561Z"
}