{
  "contractName": "Patenting",
  "abi": [
    {
      "constant": true,
      "inputs": [],
      "name": "patentPrice",
      "outputs": [
        {
          "name": "",
          "type": "uint256"
        }
      ],
      "payable": false,
      "stateMutability": "view",
      "type": "function"
    },
    {
      "constant": true,
      "inputs": [],
      "name": "owner",
      "outputs": [
        {
          "name": "",
          "type": "address"
        }
      ],
      "payable": false,
      "stateMutability": "view",
      "type": "function"
    },
    {
      "constant": false,
      "inputs": [
        {
          "name": "_newOwner",
          "type": "address"
        }
      ],
      "name": "changeOwner",
      "outputs": [],
      "payable": false,
      "stateMutability": "nonpayable",
      "type": "function"
    },
    {
      "constant": false,
      "inputs": [
        {
          "name": "_patentPrice",
          "type": "uint256"
        }
      ],
      "name": "TimeStamping",
      "outputs": [],
      "payable": false,
      "stateMutability": "nonpayable",
      "type": "function"
    },
    {
      "constant": false,
      "inputs": [
        {
          "name": "_patentName",
          "type": "string"
        },
        {
          "name": "_signature",
          "type": "string"
        },
        {
          "name": "_patentHash",
          "type": "string"
        },
        {
          "name": "_price",
          "type": "uint256"
        }
      ],
      "name": "depositPatent",
      "outputs": [],
      "payable": true,
      "stateMutability": "payable",
      "type": "function"
    },
    {
      "constant": true,
      "inputs": [
        {
          "name": "_patentHash",
          "type": "string"
        }
      ],
      "name": "getPatent",
      "outputs": [
        {
          "name": "",
          "type": "string"
        }
      ],
      "payable": false,
      "stateMutability": "view",
      "type": "function"
    },
    {
      "constant": false,
      "inputs": [
        {
          "name": "_patentHash",
          "type": "string"
        },
        {
          "name": "_time",
          "type": "uint256"
        }
      ],
      "name": "authorizeUser",
      "outputs": [],
      "payable": true,
      "stateMutability": "payable",
      "type": "function"
    }
  ],
  "bytecode": "0x6060604052336000806101000a81548173ffffffffffffffffffffffffffffffffffffffff021916908373ffffffffffffffffffffffffffffffffffffffff160217905550341561004f57600080fd5b610c408061005e6000396000f300606060405260043610610083576000357c0100000000000000000000000000000000000000000000000000000000900463ffffffff1680630638c22c146100885780636412905f146100b15780638da5cb5b146100d4578063a6f9dae114610129578063d9d51c2a14610162578063ec855f4814610243578063f562c4a214610319575b600080fd5b341561009357600080fd5b61009b610374565b6040518082815260200191505060405180910390f35b34156100bc57600080fd5b6100d2600480803590602001909190505061037a565b005b34156100df57600080fd5b6100e7610384565b604051808273ffffffffffffffffffffffffffffffffffffffff1673ffffffffffffffffffffffffffffffffffffffff16815260200191505060405180910390f35b341561013457600080fd5b610160600480803573ffffffffffffffffffffffffffffffffffffffff169060200190919050506103a9565b005b610241600480803590602001908201803590602001908080601f0160208091040260200160405190810160405280939291908181526020018383808284378201915050505050509190803590602001908201803590602001908080601f0160208091040260200160405190810160405280939291908181526020018383808284378201915050505050509190803590602001908201803590602001908080601f01602080910402602001604051908101604052809392919081815260200183838082843782019150505050505091908035906020019091905050610447565b005b341561024e57600080fd5b61029e600480803590602001908201803590602001908080601f0160208091040260200160405190810160405280939291908181526020018383808284378201915050505050509190505061067b565b6040518080602001828103825283818151815260200191508051906020019080838360005b838110156102de5780820151818401526020810190506102c3565b50505050905090810190601f16801561030b5780820380516001836020036101000a031916815260200191505b509250505060405180910390f35b610372600480803590602001908201803590602001908080601f016020809104026020016040519081016040528093929190818152602001838380828437820191505050505050919080359060200190919050506108da565b005b60015481565b8060018190555050565b6000809054906101000a900473ffffffffffffffffffffffffffffffffffffffff1681565b6000809054906101000a900473ffffffffffffffffffffffffffffffffffffffff1673ffffffffffffffffffffffffffffffffffffffff163373ffffffffffffffffffffffffffffffffffffffff1614151561040457600080fd5b806000806101000a81548173ffffffffffffffffffffffffffffffffffffffff021916908373ffffffffffffffffffffffffffffffffffffffff16021790555050565b60015480341015151561045957600080fd5b803411156104a4573373ffffffffffffffffffffffffffffffffffffffff166108fc8234039081150290604051600060405180830381858888f1935050505015156104a357600080fd5b5b60006003846040518082805190602001908083835b6020831015156104de57805182526020820191506020810190506020830392506104b9565b6001836020036101000a03801982511681845116808217855250505050505090500191505090815260200160405180910390206001015414151561052157600080fd5b60a0604051908101604052803373ffffffffffffffffffffffffffffffffffffffff168152602001428152602001868152602001858152602001838152506003846040518082805190602001908083835b6020831015156105975780518252602082019150602081019050602083039250610572565b6001836020036101000a038019825116818451168082178552505050505050905001915050908152602001604051809103902060008201518160000160006101000a81548173ffffffffffffffffffffffffffffffffffffffff021916908373ffffffffffffffffffffffffffffffffffffffff160217905550602082015181600101556040820151816002019080519060200190610637929190610b5b565b506060820151816003019080519060200190610654929190610b5b565b50608082015181600401559050506002600081548092919060010191905055505050505050565b610683610bdb565b6000806003846040518082805190602001908083835b6020831015156106be5780518252602082019150602081019050602083039250610699565b6001836020036101000a0380198251168184511680821785525050505050509050019150509081526020016040518091039020600101541415151561070257600080fd5b6003836040518082805190602001908083835b60208310151561073a5780518252602082019150602081019050602083039250610715565b6001836020036101000a038019825116818451168082178552505050505050905001915050908152602001604051809103902060050160003373ffffffffffffffffffffffffffffffffffffffff1673ffffffffffffffffffffffffffffffffffffffff168152602001908152602001600020549050600081141580156107c057504281115b15156107cb57600080fd5b6003836040518082805190602001908083835b60208310151561080357805182526020820191506020810190506020830392506107de565b6001836020036101000a03801982511681845116808217855250505050505090500191505090815260200160405180910390206003018054600181600116156101000203166002900480601f0160208091040260200160405190810160405280929190818152602001828054600181600116156101000203166002900480156108cd5780601f106108a2576101008083540402835291602001916108cd565b820191906000526020600020905b8154815290600101906020018083116108b057829003601f168201915b5050505050915050919050565b60006003836040518082805190602001908083835b60208310151561091457805182526020820191506020810190506020830392506108ef565b6001836020036101000a0380198251168184511680821785525050505050509050019150509081526020016040518091039020600101541415151561095857600080fd5b34816003846040518082805190602001908083835b602083101515610992578051825260208201915060208101905060208303925061096d565b6001836020036101000a03801982511681845116808217855250505050505090500191505090815260200160405180910390206004015402111515156109d757600080fd5b8042016003836040518082805190602001908083835b602083101515610a1257805182526020820191506020810190506020830392506109ed565b6001836020036101000a038019825116818451168082178552505050505050905001915050908152602001604051809103902060050160003373ffffffffffffffffffffffffffffffffffffffff1673ffffffffffffffffffffffffffffffffffffffff168152602001908152602001600020819055506003826040518082805190602001908083835b602083101515610ac15780518252602082019150602081019050602083039250610a9c565b6001836020036101000a038019825116818451168082178552505050505050905001915050908152602001604051809103902060000160009054906101000a900473ffffffffffffffffffffffffffffffffffffffff1673ffffffffffffffffffffffffffffffffffffffff166108fc349081150290604051600060405180830381858888f193505050501515610b5757600080fd5b5050565b828054600181600116156101000203166002900490600052602060002090601f016020900481019282601f10610b9c57805160ff1916838001178555610bca565b82800160010185558215610bca579182015b82811115610bc9578251825591602001919060010190610bae565b5b509050610bd79190610bef565b5090565b602060405190810160405280600081525090565b610c1191905b80821115610c0d576000816000905550600101610bf5565b5090565b905600a165627a7a723058208b9f0021f7597c2a1cff0c1fa7e0e9d0e4b692aa57b8722332fab00f9c1edd840029",
  "source": "pragma solidity ^0.4.2;\n\nimport './AccessRestricted.sol';\n\ncontract Patenting is AccessRestricted {\n\n    uint public patentPrice;\n    uint patentCount;\n\n    struct Patent {\n        address patentOwner;\n        uint timestamp;\n        string patentName;\n        string signature;\n        uint price;\n        mapping(address => uint) authorized;\n\n    }\n\n    mapping(string => Patent) patents;\n\n    function TimeStamping(uint _patentPrice) public {\n        patentPrice = _patentPrice;\n    }\n\n    function depositPatent(string _patentName, string _signature, string _patentHash, uint _price) public payable costs(patentPrice) {\n        require(patents[_patentHash].timestamp == 0 );\n        patents[_patentHash] = Patent(msg.sender, now, _patentName, _signature, _price);\n        patentCount++;\n    }\n\n\n    function getPatent(string _patentHash) public view returns (string){\n        require(patents[_patentHash].timestamp != 0);\n        uint deadline = patents[_patentHash].authorized[msg.sender];\n        require(deadline != 0 && deadline > now);\n        return patents[_patentHash].signature;\n    }\n\n    function authorizeUser(string _patentHash, uint _time) public payable {\n        require(patents[_patentHash].timestamp != 0);\n        require(patents[_patentHash].price*_time <= msg.value);\n        patents[_patentHash].authorized[msg.sender] = now + _time;\n        patents[_patentHash].patentOwner.transfer(msg.value);\n    }\n}\n",
  "sourcePath": "/home/tarek/Documents/Master-DS/Semester-Project/DNA/Web-Applications/react-app/contracts/Patenting.sol",
  "compiler": {
    "name": "solc",
    "version": "0.4.19+commit.c4cbbb05.Emscripten.clang"
  },
  "schemaVersion": "2.0.0",
  "updatedAt": "2018-03-19T12:50:05.554Z"
}