{
  "contractName": "TimeStamping",
  "abi": [
    {
      "constant": true,
      "inputs": [],
      "name": "stampCount",
      "outputs": [
        {
          "name": "",
          "type": "uint256"
        }
      ],
      "payable": false,
      "stateMutability": "view",
      "type": "function"
    },
    {
      "constant": true,
      "inputs": [],
      "name": "owner",
      "outputs": [
        {
          "name": "",
          "type": "address"
        }
      ],
      "payable": false,
      "stateMutability": "view",
      "type": "function"
    },
    {
      "constant": true,
      "inputs": [],
      "name": "price",
      "outputs": [
        {
          "name": "",
          "type": "uint256"
        }
      ],
      "payable": false,
      "stateMutability": "view",
      "type": "function"
    },
    {
      "constant": false,
      "inputs": [
        {
          "name": "_newOwner",
          "type": "address"
        }
      ],
      "name": "changeOwner",
      "outputs": [],
      "payable": false,
      "stateMutability": "nonpayable",
      "type": "function"
    },
    {
      "inputs": [
        {
          "name": "_price",
          "type": "uint256"
        }
      ],
      "payable": false,
      "stateMutability": "nonpayable",
      "type": "constructor"
    },
    {
      "payable": true,
      "stateMutability": "payable",
      "type": "fallback"
    },
    {
      "constant": false,
      "inputs": [],
      "name": "withdrawFunds",
      "outputs": [],
      "payable": false,
      "stateMutability": "nonpayable",
      "type": "function"
    },
    {
      "constant": false,
      "inputs": [
        {
          "name": "_hash",
          "type": "string"
        }
      ],
      "name": "stamp",
      "outputs": [],
      "payable": true,
      "stateMutability": "payable",
      "type": "function"
    },
    {
      "constant": false,
      "inputs": [
        {
          "name": "_hash",
          "type": "string"
        }
      ],
      "name": "ownerStamp",
      "outputs": [],
      "payable": true,
      "stateMutability": "payable",
      "type": "function"
    },
    {
      "constant": true,
      "inputs": [
        {
          "name": "_hash",
          "type": "string"
        }
      ],
      "name": "getTimestamp",
      "outputs": [
        {
          "name": "",
          "type": "uint256"
        }
      ],
      "payable": false,
      "stateMutability": "view",
      "type": "function"
    },
    {
      "constant": true,
      "inputs": [
        {
          "name": "_hash",
          "type": "string"
        }
      ],
      "name": "getUser",
      "outputs": [
        {
          "name": "",
          "type": "address"
        }
      ],
      "payable": false,
      "stateMutability": "view",
      "type": "function"
    }
  ],
  "bytecode": "0x6060604052336000806101000a81548173ffffffffffffffffffffffffffffffffffffffff021916908373ffffffffffffffffffffffffffffffffffffffff160217905550341561004f57600080fd5b60405160208061095e83398101604052808051906020019091905050806002819055506000600381905550506108d48061008a6000396000f300606060405260043610610099576000357c0100000000000000000000000000000000000000000000000000000000900463ffffffff16806324600fc31461009b57806331feb671146100b057806332e5e5951461014d5780633974428f146101be5780638da5cb5b146101e7578063a035b1fe1461023c578063a6f9dae114610265578063caa2d01a1461029e578063f63c82fb146102f0575b005b34156100a657600080fd5b6100ae610342565b005b34156100bb57600080fd5b61010b600480803590602001908201803590602001908080601f0160208091040260200160405190810160405280939291908181526020018383808284378201915050505050509190505061041d565b604051808273ffffffffffffffffffffffffffffffffffffffff1673ffffffffffffffffffffffffffffffffffffffff16815260200191505060405180910390f35b341561015857600080fd5b6101a8600480803590602001908201803590602001908080601f016020809104026020016040519081016040528093929190818152602001838380828437820191505050505050919050506104b5565b6040518082815260200191505060405180910390f35b34156101c957600080fd5b6101d161052d565b6040518082815260200191505060405180910390f35b34156101f257600080fd5b6101fa610533565b604051808273ffffffffffffffffffffffffffffffffffffffff1673ffffffffffffffffffffffffffffffffffffffff16815260200191505060405180910390f35b341561024757600080fd5b61024f610558565b6040518082815260200191505060405180910390f35b341561027057600080fd5b61029c600480803573ffffffffffffffffffffffffffffffffffffffff1690602001909190505061055e565b005b6102ee600480803590602001908201803590602001908080601f016020809104026020016040519081016040528093929190818152602001838380828437820191505050505050919050506105fc565b005b610340600480803590602001908201803590602001908080601f01602080910402602001604051908101604052809392919081815260200183838082843782019150505050505091905050610664565b005b60008060009054906101000a900473ffffffffffffffffffffffffffffffffffffffff1673ffffffffffffffffffffffffffffffffffffffff163373ffffffffffffffffffffffffffffffffffffffff1614151561039f57600080fd5b3090506000809054906101000a900473ffffffffffffffffffffffffffffffffffffffff1673ffffffffffffffffffffffffffffffffffffffff166108fc8273ffffffffffffffffffffffffffffffffffffffff16319081150290604051600060405180830381858888f19350505050151561041a57600080fd5b50565b60006001826040518082805190602001908083835b6020831015156104575780518252602082019150602081019050602083039250610432565b6001836020036101000a038019825116818451168082178552505050505050905001915050908152602001604051809103902060000160009054906101000a900473ffffffffffffffffffffffffffffffffffffffff169050919050565b60006001826040518082805190602001908083835b6020831015156104ef57805182526020820191506020810190506020830392506104ca565b6001836020036101000a0380198251168184511680821785525050505050509050019150509081526020016040518091039020600101549050919050565b60035481565b6000809054906101000a900473ffffffffffffffffffffffffffffffffffffffff1681565b60025481565b6000809054906101000a900473ffffffffffffffffffffffffffffffffffffffff1673ffffffffffffffffffffffffffffffffffffffff163373ffffffffffffffffffffffffffffffffffffffff161415156105b957600080fd5b806000806101000a81548173ffffffffffffffffffffffffffffffffffffffff021916908373ffffffffffffffffffffffffffffffffffffffff16021790555050565b6000809054906101000a900473ffffffffffffffffffffffffffffffffffffffff1673ffffffffffffffffffffffffffffffffffffffff163373ffffffffffffffffffffffffffffffffffffffff1614151561065757600080fd5b610661813361072b565b50565b60025480341015151561067657600080fd5b803411156106c1573373ffffffffffffffffffffffffffffffffffffffff166108fc8234039081150290604051600060405180830381858888f1935050505015156106c057600080fd5b5b6000809054906101000a900473ffffffffffffffffffffffffffffffffffffffff1673ffffffffffffffffffffffffffffffffffffffff163373ffffffffffffffffffffffffffffffffffffffff161415151561071d57600080fd5b610727823361072b565b5050565b60006001836040518082805190602001908083835b6020831015156107655780518252602082019150602081019050602083039250610740565b6001836020036101000a0380198251168184511680821785525050505050509050019150509081526020016040518091039020600101541415156107a857600080fd5b60408051908101604052808273ffffffffffffffffffffffffffffffffffffffff168152602001428152506001836040518082805190602001908083835b60208310151561080b57805182526020820191506020810190506020830392506107e6565b6001836020036101000a038019825116818451168082178552505050505050905001915050908152602001604051809103902060008201518160000160006101000a81548173ffffffffffffffffffffffffffffffffffffffff021916908373ffffffffffffffffffffffffffffffffffffffff1602179055506020820151816001015590505060036000815480929190600101919050555050505600a165627a7a72305820a4f6333ac266ec44500cbd5b23ebee08e94287e5f6599f3c70a277a4b90337ca0029",
  "source": "pragma solidity ^0.4.0;\n\nimport './AccessRestricted.sol';\n\ncontract TimeStamping is AccessRestricted{\n\n    struct Stamp {\n        address user;\n        uint timestamp;\n    }\n\n    mapping(string => Stamp) timestamps;\n    uint public price;\n\n    uint public stampCount;\n\n    function TimeStamping(uint _price) public {\n        price = _price;\n        stampCount = 0;\n    }\n\n    //Withdraw funds only by owner\n    function withdrawFunds() public onlyOwner {\n        address thisAddress = this;\n        owner.transfer(thisAddress.balance);\n    }\n\n    //For simple donations\n    function () public payable{\n\n    }\n\n    function stamp(string _hash) public payable costs(price){\n        require(msg.sender != owner);\n        stampHash(_hash, msg.sender);\n    }\n\n    function ownerStamp(string _hash) public payable onlyOwner {\n        stampHash(_hash, msg.sender);\n    }\n\n    function stampHash(string _hash, address user) private {\n        require(timestamps[_hash].timestamp == 0);\n        timestamps[_hash] = Stamp(user, now);\n        stampCount++;\n    }\n\n\n    function getTimestamp(string _hash) public view returns (uint){\n        return timestamps[_hash].timestamp;\n    }\n\n    function getUser(string _hash) public view returns (address){\n        return timestamps[_hash].user;\n    }\n}\n",
  "sourcePath": "/home/tarek/Documents/Master-DS/Semester-Project/DNA/Web-Applications/react-app/contracts/TimeStamping.sol",
  "compiler": {
    "name": "solc",
    "version": "0.4.19+commit.c4cbbb05.Emscripten.clang"
  },
  "schemaVersion": "2.0.0",
  "updatedAt": "2018-03-19T12:50:05.550Z"
}