{
  "contractName": "Patenting",
  "abi": [
    {
      "constant": true,
      "inputs": [],
      "name": "patentPrice",
      "outputs": [
        {
          "name": "",
          "type": "uint256"
        }
      ],
      "payable": false,
      "stateMutability": "view",
      "type": "function"
    },
    {
      "constant": true,
      "inputs": [
        {
          "name": "",
          "type": "uint256"
        }
      ],
      "name": "patentNames",
      "outputs": [
        {
          "name": "",
          "type": "string"
        }
      ],
      "payable": false,
      "stateMutability": "view",
      "type": "function"
    },
    {
      "constant": true,
      "inputs": [],
      "name": "owner",
      "outputs": [
        {
          "name": "",
          "type": "address"
        }
      ],
      "payable": false,
      "stateMutability": "view",
      "type": "function"
    },
    {
      "constant": false,
      "inputs": [
        {
          "name": "_newOwner",
          "type": "address"
        }
      ],
      "name": "changeOwner",
      "outputs": [],
      "payable": false,
      "stateMutability": "nonpayable",
      "type": "function"
    },
    {
      "constant": true,
      "inputs": [],
      "name": "patentCount",
      "outputs": [
        {
          "name": "",
          "type": "uint256"
        }
      ],
      "payable": false,
      "stateMutability": "view",
      "type": "function"
    },
    {
      "inputs": [
        {
          "name": "_patentPrice",
          "type": "uint256"
        }
      ],
      "payable": false,
      "stateMutability": "nonpayable",
      "type": "constructor"
    },
    {
      "constant": false,
      "inputs": [
        {
          "name": "_patentName",
          "type": "string"
        },
        {
          "name": "_patentHash",
          "type": "string"
        },
        {
          "name": "_price",
          "type": "uint256"
        },
        {
          "name": "_ipfs",
          "type": "string"
        }
      ],
      "name": "depositPatent",
      "outputs": [],
      "payable": true,
      "stateMutability": "payable",
      "type": "function"
    },
    {
      "constant": false,
      "inputs": [
        {
          "name": "_patentName",
          "type": "string"
        },
        {
          "name": "_daysAfter",
          "type": "uint256"
        }
      ],
      "name": "rentPatent",
      "outputs": [
        {
          "name": "",
          "type": "bool"
        }
      ],
      "payable": true,
      "stateMutability": "payable",
      "type": "function"
    },
    {
      "constant": true,
      "inputs": [
        {
          "name": "_patentName",
          "type": "string"
        }
      ],
      "name": "getTimeStamp",
      "outputs": [
        {
          "name": "",
          "type": "uint256"
        }
      ],
      "payable": false,
      "stateMutability": "view",
      "type": "function"
    },
    {
      "constant": true,
      "inputs": [
        {
          "name": "_patentName",
          "type": "string"
        },
        {
          "name": "_user",
          "type": "address"
        }
      ],
      "name": "getRemainingTime",
      "outputs": [
        {
          "name": "",
          "type": "uint256"
        }
      ],
      "payable": false,
      "stateMutability": "view",
      "type": "function"
    },
    {
      "constant": true,
      "inputs": [
        {
          "name": "_patentName",
          "type": "string"
        }
      ],
      "name": "getPatentHash",
      "outputs": [
        {
          "name": "",
          "type": "string"
        }
      ],
      "payable": false,
      "stateMutability": "view",
      "type": "function"
    },
    {
      "constant": true,
      "inputs": [
        {
          "name": "_patentName",
          "type": "string"
        }
      ],
      "name": "getPatentOwner",
      "outputs": [
        {
          "name": "",
          "type": "address"
        }
      ],
      "payable": false,
      "stateMutability": "view",
      "type": "function"
    },
    {
      "constant": true,
      "inputs": [
        {
          "name": "_patentName",
          "type": "string"
        }
      ],
      "name": "getRentalPrice",
      "outputs": [
        {
          "name": "",
          "type": "uint256"
        }
      ],
      "payable": false,
      "stateMutability": "view",
      "type": "function"
    },
    {
      "constant": true,
      "inputs": [
        {
          "name": "_patentName",
          "type": "string"
        }
      ],
      "name": "getPatentLocation",
      "outputs": [
        {
          "name": "",
          "type": "string"
        }
      ],
      "payable": false,
      "stateMutability": "view",
      "type": "function"
    }
  ],
  "bytecode": "0x6060604052336000806101000a81548173ffffffffffffffffffffffffffffffffffffffff021916908373ffffffffffffffffffffffffffffffffffffffff160217905550341561004f57600080fd5b604051602080611684833981016040528080519060200190919050508060018190555050611602806100826000396000f3006060604052600436106100c5576000357c0100000000000000000000000000000000000000000000000000000000900463ffffffff1680630638c22c146100ca57806316720cc2146100f357806341e14449146101c9578063607f9e871461026557806387d5f4001461033b5780638da5cb5b146103ae57806399d2618e14610403578063a6f9dae1146104a0578063b084c841146104d9578063ba8d083614610502578063e8ebbc8614610573578063f8361dc414610654578063fa52c7cc146106e4575b600080fd5b34156100d557600080fd5b6100dd610755565b6040518082815260200191505060405180910390f35b34156100fe57600080fd5b61014e600480803590602001908201803590602001908080601f0160208091040260200160405190810160405280939291908181526020018383808284378201915050505050509190505061075b565b6040518080602001828103825283818151815260200191508051906020019080838360005b8381101561018e578082015181840152602081019050610173565b50505050905090810190601f1680156101bb5780820380516001836020036101000a031916815260200191505b509250505060405180910390f35b34156101d457600080fd5b6101ea6004808035906020019091905050610871565b6040518080602001828103825283818151815260200191508051906020019080838360005b8381101561022a57808201518184015260208101905061020f565b50505050905090810190601f1680156102575780820380516001836020036101000a031916815260200191505b509250505060405180910390f35b341561027057600080fd5b6102c0600480803590602001908201803590602001908080601f0160208091040260200160405190810160405280939291908181526020018383808284378201915050505050509190505061092d565b6040518080602001828103825283818151815260200191508051906020019080838360005b838110156103005780820151818401526020810190506102e5565b50505050905090810190601f16801561032d5780820380516001836020036101000a031916815260200191505b509250505060405180910390f35b610394600480803590602001908201803590602001908080601f01602080910402602001604051908101604052809392919081815260200183838082843782019150505050505091908035906020019091905050610bc0565b604051808215151515815260200191505060405180910390f35b34156103b957600080fd5b6103c1610e84565b604051808273ffffffffffffffffffffffffffffffffffffffff1673ffffffffffffffffffffffffffffffffffffffff16815260200191505060405180910390f35b341561040e57600080fd5b61045e600480803590602001908201803590602001908080601f01602080910402602001604051908101604052809392919081815260200183838082843782019150505050505091905050610ea9565b604051808273ffffffffffffffffffffffffffffffffffffffff1673ffffffffffffffffffffffffffffffffffffffff16815260200191505060405180910390f35b34156104ab57600080fd5b6104d7600480803573ffffffffffffffffffffffffffffffffffffffff16906020019091905050610f41565b005b34156104e457600080fd5b6104ec610fdf565b6040518082815260200191505060405180910390f35b341561050d57600080fd5b61055d600480803590602001908201803590602001908080601f01602080910402602001604051908101604052809392919081815260200183838082843782019150505050505091905050610fe5565b6040518082815260200191505060405180910390f35b610652600480803590602001908201803590602001908080601f0160208091040260200160405190810160405280939291908181526020018383808284378201915050505050509190803590602001908201803590602001908080601f0160208091040260200160405190810160405280939291908181526020018383808284378201915050505050509190803590602001909190803590602001908201803590602001908080601f0160208091040260200160405190810160405280939291908181526020018383808284378201915050505050509190505061105d565b005b341561065f57600080fd5b6106ce600480803590602001908201803590602001908080601f0160208091040260200160405190810160405280939291908181526020018383808284378201915050505050509190803573ffffffffffffffffffffffffffffffffffffffff169060200190919050506112cd565b6040518082815260200191505060405180910390f35b34156106ef57600080fd5b61073f600480803590602001908201803590602001908080601f01602080910402602001604051908101604052809392919081815260200183838082843782019150505050505091905050611385565b6040518082815260200191505060405180910390f35b60015481565b6107636113fd565b6004826040518082805190602001908083835b60208310151561079b5780518252602082019150602081019050602083039250610776565b6001836020036101000a03801982511681845116808217855250505050505090500191505090815260200160405180910390206002018054600181600116156101000203166002900480601f0160208091040260200160405190810160405280929190818152602001828054600181600116156101000203166002900480156108655780601f1061083a57610100808354040283529160200191610865565b820191906000526020600020905b81548152906001019060200180831161084857829003601f168201915b50505050509050919050565b60038181548110151561088057fe5b90600052602060002090016000915090508054600181600116156101000203166002900480601f0160208091040260200160405190810160405280929190818152602001828054600181600116156101000203166002900480156109255780601f106108fa57610100808354040283529160200191610925565b820191906000526020600020905b81548152906001019060200180831161090857829003601f168201915b505050505081565b6109356113fd565b426004836040518082805190602001908083835b60208310151561096e5780518252602082019150602081019050602083039250610949565b6001836020036101000a038019825116818451168082178552505050505050905001915050908152602001604051809103902060050160003373ffffffffffffffffffffffffffffffffffffffff1673ffffffffffffffffffffffffffffffffffffffff168152602001908152602001600020541180610aa757506004826040518082805190602001908083835b602083101515610a2157805182526020820191506020810190506020830392506109fc565b6001836020036101000a038019825116818451168082178552505050505050905001915050908152602001604051809103902060000160009054906101000a900473ffffffffffffffffffffffffffffffffffffffff1673ffffffffffffffffffffffffffffffffffffffff163373ffffffffffffffffffffffffffffffffffffffff16145b1515610ab257600080fd5b6004826040518082805190602001908083835b602083101515610aea5780518252602082019150602081019050602083039250610ac5565b6001836020036101000a03801982511681845116808217855250505050505090500191505090815260200160405180910390206004018054600181600116156101000203166002900480601f016020809104026020016040519081016040528092919081815260200182805460018160011615610100020316600290048015610bb45780601f10610b8957610100808354040283529160200191610bb4565b820191906000526020600020905b815481529060010190602001808311610b9757829003601f168201915b50505050509050919050565b6000806004846040518082805190602001908083835b602083101515610bfb5780518252602082019150602081019050602083039250610bd6565b6001836020036101000a038019825116818451168082178552505050505050905001915050908152602001604051809103902060050160003373ffffffffffffffffffffffffffffffffffffffff1673ffffffffffffffffffffffffffffffffffffffff16815260200190815260200160002054148015610cea57506004836040518082805190602001908083835b602083101515610caf5780518252602082019150602081019050602083039250610c8a565b6001836020036101000a0380198251168184511680821785525050505050509050019150509081526020016040518091039020600301543410155b1515610cf557600080fd5b62015180820242016004846040518082805190602001908083835b602083101515610d355780518252602082019150602081019050602083039250610d10565b6001836020036101000a038019825116818451168082178552505050505050905001915050908152602001604051809103902060050160003373ffffffffffffffffffffffffffffffffffffffff1673ffffffffffffffffffffffffffffffffffffffff168152602001908152602001600020819055506004836040518082805190602001908083835b602083101515610de45780518252602082019150602081019050602083039250610dbf565b6001836020036101000a038019825116818451168082178552505050505050905001915050908152602001604051809103902060000160009054906101000a900473ffffffffffffffffffffffffffffffffffffffff1673ffffffffffffffffffffffffffffffffffffffff166108fc349081150290604051600060405180830381858888f193505050501515610e7a57600080fd5b6001905092915050565b6000809054906101000a900473ffffffffffffffffffffffffffffffffffffffff1681565b60006004826040518082805190602001908083835b602083101515610ee35780518252602082019150602081019050602083039250610ebe565b6001836020036101000a038019825116818451168082178552505050505050905001915050908152602001604051809103902060000160009054906101000a900473ffffffffffffffffffffffffffffffffffffffff169050919050565b6000809054906101000a900473ffffffffffffffffffffffffffffffffffffffff1673ffffffffffffffffffffffffffffffffffffffff163373ffffffffffffffffffffffffffffffffffffffff16141515610f9c57600080fd5b806000806101000a81548173ffffffffffffffffffffffffffffffffffffffff021916908373ffffffffffffffffffffffffffffffffffffffff16021790555050565b60025481565b60006004826040518082805190602001908083835b60208310151561101f5780518252602082019150602081019050602083039250610ffa565b6001836020036101000a0380198251168184511680821785525050505050509050019150509081526020016040518091039020600301549050919050565b60015480341015151561106f57600080fd5b803411156110ba573373ffffffffffffffffffffffffffffffffffffffff166108fc8234039081150290604051600060405180830381858888f1935050505015156110b957600080fd5b5b60006004866040518082805190602001908083835b6020831015156110f457805182526020820191506020810190506020830392506110cf565b6001836020036101000a03801982511681845116808217855250505050505090500191505090815260200160405180910390206001015414151561113757600080fd5b60a0604051908101604052803373ffffffffffffffffffffffffffffffffffffffff168152602001428152602001858152602001848152602001838152506004866040518082805190602001908083835b6020831015156111ad5780518252602082019150602081019050602083039250611188565b6001836020036101000a038019825116818451168082178552505050505050905001915050908152602001604051809103902060008201518160000160006101000a81548173ffffffffffffffffffffffffffffffffffffffff021916908373ffffffffffffffffffffffffffffffffffffffff16021790555060208201518160010155604082015181600201908051906020019061124d929190611411565b50606082015181600301556080820151816004019080519060200190611274929190611411565b509050506003805480600101828161128c9190611491565b9160005260206000209001600087909190915090805190602001906112b29291906114bd565b50506002600081548092919060010191905055505050505050565b6000426004846040518082805190602001908083835b60208310151561130857805182526020820191506020810190506020830392506112e3565b6001836020036101000a038019825116818451168082178552505050505050905001915050908152602001604051809103902060050160008473ffffffffffffffffffffffffffffffffffffffff1673ffffffffffffffffffffffffffffffffffffffff1681526020019081526020016000205403905092915050565b60006004826040518082805190602001908083835b6020831015156113bf578051825260208201915060208101905060208303925061139a565b6001836020036101000a0380198251168184511680821785525050505050509050019150509081526020016040518091039020600101549050919050565b602060405190810160405280600081525090565b828054600181600116156101000203166002900490600052602060002090601f016020900481019282601f1061145257805160ff1916838001178555611480565b82800160010185558215611480579182015b8281111561147f578251825591602001919060010190611464565b5b50905061148d919061153d565b5090565b8154818355818115116114b8578183600052602060002091820191016114b79190611562565b5b505050565b828054600181600116156101000203166002900490600052602060002090601f016020900481019282601f106114fe57805160ff191683800117855561152c565b8280016001018555821561152c579182015b8281111561152b578251825591602001919060010190611510565b5b509050611539919061153d565b5090565b61155f91905b8082111561155b576000816000905550600101611543565b5090565b90565b61158b91905b80821115611587576000818161157e919061158e565b50600101611568565b5090565b90565b50805460018160011615610100020316600290046000825580601f106115b457506115d3565b601f0160209004906000526020600020908101906115d2919061153d565b5b505600a165627a7a723058204330f88f296ec7e37115586262b029ee5d23e41de2502fa865d327dd3e6b427e0029",
  "source": "pragma solidity ^0.4.2;\n\nimport './AccessRestricted.sol';\nimport './TimeStamping.sol';\n\ncontract Patenting is AccessRestricted {\n\n    uint public patentPrice;\n    uint public patentCount;\n\n    struct Patent {\n        address owner;\n        uint timestamp;\n        string patentHash;\n        uint price;\n        string ipfs;\n        mapping(address => uint) authorized;\n\n    }\n\n\n    string[] public patentNames;\n    mapping(string => Patent) private patents; //PatentName to struct\n\n    /* Constructor of the contract\n    * {param} uint : The price for depositing a pattern in Wei\n    */\n    function Patenting(uint _patentPrice) public {\n        patentPrice = _patentPrice;\n    }\n\n    /* Function to deposit a pattern\n    * {params} the patent parameters\n    * {costs} the price of a patent\n    */\n    function depositPatent(string _patentName, string _patentHash, uint _price, string _ipfs) public payable costs(patentPrice) {\n        require(patents[_patentName].timestamp == 0);\n        patents[_patentName] = Patent(msg.sender, now, _patentHash, _price, _ipfs);\n        patentNames.push(_patentName);\n        patentCount++;\n    }\n\n    function rentPatent(string _patentName, uint _daysAfter) public payable returns (bool){\n        require(patents[_patentName].authorized[msg.sender] == 0 && msg.value >= patents[_patentName].price);\n        patents[_patentName].authorized[msg.sender] = now + _daysAfter * 1 days;\n        patents[_patentName].owner.transfer(msg.value);\n        return true;\n    }\n\n    /*-----------------------------------View functions that do not require transactions-----------------------------------*/\n\n\n    function getTimeStamp(string _patentName) public view returns (uint){\n        return patents[_patentName].timestamp;\n    }\n\n    function getRemainingTime(string _patentName, address _user) public view returns (uint){\n        return patents[_patentName].authorized[_user] - now ;\n    }\n    function getPatentHash(string _patentName) public view returns (string){\n        return patents[_patentName].patentHash;\n    }\n\n    function getPatentOwner(string _patentName) public view returns (address) {\n        return patents[_patentName].owner;\n    }\n\n    function getRentalPrice(string _patentName) public view returns (uint){\n        return patents[_patentName].price;\n    }\n    function getPatentLocation(string _patentName) public view returns (string) {\n        require(patents[_patentName].authorized[msg.sender] > now || msg.sender == patents[_patentName].owner);\n        return patents[_patentName].ipfs;\n    }\n\n\n\n}\n",
  "sourcePath": "/home/tarek/Documents/Master-DS/Semester-Project/DNA/Web-Applications/react-app/contracts/Patenting.sol",
  "compiler": {
    "name": "solc",
    "version": "0.4.19+commit.c4cbbb05.Emscripten.clang"
  },
  "schemaVersion": "2.0.0",
  "updatedAt": "2018-05-04T11:50:13.359Z"
}