{
  "contractName": "Patenting",
  "abi": [
    {
      "constant": true,
      "inputs": [],
      "name": "patentPrice",
      "outputs": [
        {
          "name": "",
          "type": "uint256"
        }
      ],
      "payable": false,
      "stateMutability": "view",
      "type": "function"
    },
    {
      "constant": true,
      "inputs": [
        {
          "name": "",
          "type": "uint256"
        }
      ],
      "name": "patentNames",
      "outputs": [
        {
          "name": "",
          "type": "string"
        }
      ],
      "payable": false,
      "stateMutability": "view",
      "type": "function"
    },
    {
      "constant": true,
      "inputs": [],
      "name": "owner",
      "outputs": [
        {
          "name": "",
          "type": "address"
        }
      ],
      "payable": false,
      "stateMutability": "view",
      "type": "function"
    },
    {
      "constant": false,
      "inputs": [
        {
          "name": "_newOwner",
          "type": "address"
        }
      ],
      "name": "changeOwner",
      "outputs": [],
      "payable": false,
      "stateMutability": "nonpayable",
      "type": "function"
    },
    {
      "constant": true,
      "inputs": [],
      "name": "patentCount",
      "outputs": [
        {
          "name": "",
          "type": "uint256"
        }
      ],
      "payable": false,
      "stateMutability": "view",
      "type": "function"
    },
    {
      "inputs": [
        {
          "name": "_patentPrice",
          "type": "uint256"
        },
        {
          "name": "_fiatContract",
          "type": "address"
        }
      ],
      "payable": false,
      "stateMutability": "nonpayable",
      "type": "constructor"
    },
    {
      "anonymous": false,
      "inputs": [
        {
          "indexed": false,
          "name": "_ownerMail",
          "type": "string"
        },
        {
          "indexed": false,
          "name": "_patentName",
          "type": "string"
        },
        {
          "indexed": false,
          "name": "_rentee",
          "type": "address"
        }
      ],
      "name": "NewRequest",
      "type": "event"
    },
    {
      "anonymous": false,
      "inputs": [
        {
          "indexed": false,
          "name": "_requesterEmail",
          "type": "string"
        },
        {
          "indexed": false,
          "name": "_patentName",
          "type": "string"
        },
        {
          "indexed": false,
          "name": "_accepted",
          "type": "bool"
        }
      ],
      "name": "RequestResponse",
      "type": "event"
    },
    {
      "constant": true,
      "inputs": [
        {
          "name": "_dollars",
          "type": "uint256"
        }
      ],
      "name": "getEthPrice",
      "outputs": [
        {
          "name": "",
          "type": "uint256"
        }
      ],
      "payable": false,
      "stateMutability": "view",
      "type": "function"
    },
    {
      "constant": false,
      "inputs": [
        {
          "name": "_patentName",
          "type": "string"
        },
        {
          "name": "_patentHash",
          "type": "string"
        },
        {
          "name": "_price",
          "type": "uint256"
        },
        {
          "name": "_ipfs",
          "type": "string"
        },
        {
          "name": "_email",
          "type": "string"
        }
      ],
      "name": "depositPatent",
      "outputs": [],
      "payable": true,
      "stateMutability": "payable",
      "type": "function"
    },
    {
      "constant": false,
      "inputs": [
        {
          "name": "_patentName",
          "type": "string"
        },
        {
          "name": "_encryptionKey",
          "type": "string"
        },
        {
          "name": "_email",
          "type": "string"
        }
      ],
      "name": "requestAccess",
      "outputs": [],
      "payable": true,
      "stateMutability": "payable",
      "type": "function"
    },
    {
      "constant": false,
      "inputs": [
        {
          "name": "_patentName",
          "type": "string"
        }
      ],
      "name": "resendRequest",
      "outputs": [],
      "payable": true,
      "stateMutability": "payable",
      "type": "function"
    },
    {
      "constant": false,
      "inputs": [
        {
          "name": "_patentName",
          "type": "string"
        },
        {
          "name": "_user",
          "type": "address"
        },
        {
          "name": "_encryptedIpfsKey",
          "type": "string"
        }
      ],
      "name": "grantAccess",
      "outputs": [],
      "payable": false,
      "stateMutability": "nonpayable",
      "type": "function"
    },
    {
      "constant": false,
      "inputs": [
        {
          "name": "_patentName",
          "type": "string"
        },
        {
          "name": "_user",
          "type": "address"
        }
      ],
      "name": "rejectAccess",
      "outputs": [],
      "payable": false,
      "stateMutability": "nonpayable",
      "type": "function"
    },
    {
      "constant": false,
      "inputs": [
        {
          "name": "_patentName",
          "type": "string"
        }
      ],
      "name": "cancelRequest",
      "outputs": [],
      "payable": false,
      "stateMutability": "nonpayable",
      "type": "function"
    },
    {
      "constant": false,
      "inputs": [],
      "name": "withdrawFunds",
      "outputs": [],
      "payable": false,
      "stateMutability": "nonpayable",
      "type": "function"
    },
    {
      "constant": true,
      "inputs": [
        {
          "name": "_patentName",
          "type": "string"
        },
        {
          "name": "_account",
          "type": "address"
        }
      ],
      "name": "canRequest",
      "outputs": [
        {
          "name": "",
          "type": "bool"
        }
      ],
      "payable": false,
      "stateMutability": "view",
      "type": "function"
    },
    {
      "constant": true,
      "inputs": [
        {
          "name": "_patentName",
          "type": "string"
        },
        {
          "name": "_account",
          "type": "address"
        }
      ],
      "name": "getRequestStatus",
      "outputs": [
        {
          "name": "",
          "type": "uint8"
        }
      ],
      "payable": false,
      "stateMutability": "view",
      "type": "function"
    },
    {
      "constant": true,
      "inputs": [
        {
          "name": "_patentName",
          "type": "string"
        },
        {
          "name": "_account",
          "type": "address"
        }
      ],
      "name": "isNotRequested",
      "outputs": [
        {
          "name": "",
          "type": "bool"
        }
      ],
      "payable": false,
      "stateMutability": "view",
      "type": "function"
    },
    {
      "constant": true,
      "inputs": [
        {
          "name": "_patentName",
          "type": "string"
        },
        {
          "name": "_account",
          "type": "address"
        }
      ],
      "name": "isPending",
      "outputs": [
        {
          "name": "",
          "type": "bool"
        }
      ],
      "payable": false,
      "stateMutability": "view",
      "type": "function"
    },
    {
      "constant": true,
      "inputs": [
        {
          "name": "_patentName",
          "type": "string"
        },
        {
          "name": "_account",
          "type": "address"
        }
      ],
      "name": "isAccepted",
      "outputs": [
        {
          "name": "",
          "type": "bool"
        }
      ],
      "payable": false,
      "stateMutability": "view",
      "type": "function"
    },
    {
      "constant": true,
      "inputs": [
        {
          "name": "_patentName",
          "type": "string"
        },
        {
          "name": "_account",
          "type": "address"
        }
      ],
      "name": "isOwner",
      "outputs": [
        {
          "name": "",
          "type": "bool"
        }
      ],
      "payable": false,
      "stateMutability": "view",
      "type": "function"
    },
    {
      "constant": true,
      "inputs": [
        {
          "name": "_patentName",
          "type": "string"
        }
      ],
      "name": "getTimeStamp",
      "outputs": [
        {
          "name": "",
          "type": "uint256"
        }
      ],
      "payable": false,
      "stateMutability": "view",
      "type": "function"
    },
    {
      "constant": true,
      "inputs": [
        {
          "name": "_patentName",
          "type": "string"
        }
      ],
      "name": "getPatentHash",
      "outputs": [
        {
          "name": "",
          "type": "string"
        }
      ],
      "payable": false,
      "stateMutability": "view",
      "type": "function"
    },
    {
      "constant": true,
      "inputs": [
        {
          "name": "_patentName",
          "type": "string"
        }
      ],
      "name": "getPatentOwner",
      "outputs": [
        {
          "name": "",
          "type": "address"
        }
      ],
      "payable": false,
      "stateMutability": "view",
      "type": "function"
    },
    {
      "constant": true,
      "inputs": [
        {
          "name": "_patentName",
          "type": "string"
        }
      ],
      "name": "getPrice",
      "outputs": [
        {
          "name": "",
          "type": "uint256"
        }
      ],
      "payable": false,
      "stateMutability": "view",
      "type": "function"
    },
    {
      "constant": true,
      "inputs": [
        {
          "name": "_patentName",
          "type": "string"
        }
      ],
      "name": "getNumRequests",
      "outputs": [
        {
          "name": "",
          "type": "uint256"
        }
      ],
      "payable": false,
      "stateMutability": "view",
      "type": "function"
    },
    {
      "constant": true,
      "inputs": [
        {
          "name": "_patentName",
          "type": "string"
        },
        {
          "name": "_index",
          "type": "uint256"
        }
      ],
      "name": "getBuyers",
      "outputs": [
        {
          "name": "",
          "type": "address"
        }
      ],
      "payable": false,
      "stateMutability": "view",
      "type": "function"
    },
    {
      "constant": true,
      "inputs": [
        {
          "name": "_patentName",
          "type": "string"
        },
        {
          "name": "_user",
          "type": "address"
        }
      ],
      "name": "getEncryptionKey",
      "outputs": [
        {
          "name": "",
          "type": "string"
        }
      ],
      "payable": false,
      "stateMutability": "view",
      "type": "function"
    },
    {
      "constant": true,
      "inputs": [
        {
          "name": "_patentName",
          "type": "string"
        }
      ],
      "name": "getEncryptedIpfsKey",
      "outputs": [
        {
          "name": "",
          "type": "string"
        }
      ],
      "payable": false,
      "stateMutability": "view",
      "type": "function"
    },
    {
      "constant": true,
      "inputs": [
        {
          "name": "_patentName",
          "type": "string"
        }
      ],
      "name": "getOwnerEmail",
      "outputs": [
        {
          "name": "",
          "type": "string"
        }
      ],
      "payable": false,
      "stateMutability": "view",
      "type": "function"
    },
    {
      "constant": true,
      "inputs": [
        {
          "name": "_patentName",
          "type": "string"
        }
      ],
      "name": "getPatentLocation",
      "outputs": [
        {
          "name": "",
          "type": "string"
        }
      ],
      "payable": false,
      "stateMutability": "view",
      "type": "function"
    }
  ],
  "bytecode": "0x6060604052336000806101000a81548173ffffffffffffffffffffffffffffffffffffffff021916908373ffffffffffffffffffffffffffffffffffffffff160217905550341561004f57600080fd5b6040516040806136928339810160405280805190602001909190805190602001909190505080600560006101000a81548173ffffffffffffffffffffffffffffffffffffffff021916908373ffffffffffffffffffffffffffffffffffffffff1602179055508160018190555050506135c5806100cd6000396000f300606060405260043610610175576000357c0100000000000000000000000000000000000000000000000000000000900463ffffffff1680630638c22c1461017a57806316720cc2146101a35780632294de451461027957806324600fc31461030d57806341e144491461032257806347ce3d6f146103be578063524f3889146104525780635d98dde8146104c35780636038c63814610582578063607f9e871461062857806365f8695e146106fe57806368b2210d14610792578063870d365d146108685780638da5cb5b1461089f57806399d2618e146108f4578063a302e8cd14610991578063a6966e2514610a67578063a6f9dae114610ae3578063ad8c9dd614610b1c578063b084c84114610c11578063bde1eee714610c3a578063be3e072214610cce578063db6a88ec14610d62578063e0cf4cc914610e3a578063e2f99c7e14610eab578063e489445d14610f49578063eb3e8bf814610fa6578063fa52c7cc146110ca578063fd11ff491461113b575b600080fd5b341561018557600080fd5b61018d61118d565b6040518082815260200191505060405180910390f35b34156101ae57600080fd5b6101fe600480803590602001908201803590602001908080601f01602080910402602001604051908101604052809392919081815260200183838082843782019150505050505091905050611193565b6040518080602001828103825283818151815260200191508051906020019080838360005b8381101561023e578082015181840152602081019050610223565b50505050905090810190601f16801561026b5780820380516001836020036101000a031916815260200191505b509250505060405180910390f35b341561028457600080fd5b6102f3600480803590602001908201803590602001908080601f0160208091040260200160405190810160405280939291908181526020018383808284378201915050505050509190803573ffffffffffffffffffffffffffffffffffffffff169060200190919050506112a9565b604051808215151515815260200191505060405180910390f35b341561031857600080fd5b6103206112e0565b005b341561032d57600080fd5b61034360048080359060200190919050506113b5565b6040518080602001828103825283818151815260200191508051906020019080838360005b83811015610383578082015181840152602081019050610368565b50505050905090810190601f1680156103b05780820380516001836020036101000a031916815260200191505b509250505060405180910390f35b34156103c957600080fd5b610438600480803590602001908201803590602001908080601f0160208091040260200160405190810160405280939291908181526020018383808284378201915050505050509190803573ffffffffffffffffffffffffffffffffffffffff16906020019091905050611471565b604051808215151515815260200191505060405180910390f35b341561045d57600080fd5b6104ad600480803590602001908201803590602001908080601f0160208091040260200160405190810160405280939291908181526020018383808284378201915050505050509190505061154f565b6040518082815260200191505060405180910390f35b34156104ce57600080fd5b610580600480803590602001908201803590602001908080601f0160208091040260200160405190810160405280939291908181526020018383808284378201915050505050509190803573ffffffffffffffffffffffffffffffffffffffff1690602001909190803590602001908201803590602001908080601f016020809104026020016040519081016040528093929190818152602001838380828437820191505050505050919050506115c7565b005b341561058d57600080fd5b6105e6600480803590602001908201803590602001908080601f016020809104026020016040519081016040528093929190818152602001838380828437820191505050505050919080359060200190919050506118f4565b604051808273ffffffffffffffffffffffffffffffffffffffff1673ffffffffffffffffffffffffffffffffffffffff16815260200191505060405180910390f35b341561063357600080fd5b610683600480803590602001908201803590602001908080601f0160208091040260200160405190810160405280939291908181526020018383808284378201915050505050509190505061199e565b6040518080602001828103825283818151815260200191508051906020019080838360005b838110156106c35780820151818401526020810190506106a8565b50505050905090810190601f1680156106f05780820380516001836020036101000a031916815260200191505b509250505060405180910390f35b341561070957600080fd5b610778600480803590602001908201803590602001908080601f0160208091040260200160405190810160405280939291908181526020018383808284378201915050505050509190803573ffffffffffffffffffffffffffffffffffffffff16906020019091905050611ab4565b604051808215151515815260200191505060405180910390f35b341561079d57600080fd5b6107ed600480803590602001908201803590602001908080601f01602080910402602001604051908101604052809392919081815260200183838082843782019150505050505091905050611b92565b6040518080602001828103825283818151815260200191508051906020019080838360005b8381101561082d578082015181840152602081019050610812565b50505050905090810190601f16801561085a5780820380516001836020036101000a031916815260200191505b509250505060405180910390f35b341561087357600080fd5b6108896004808035906020019091905050611ca8565b6040518082815260200191505060405180910390f35b34156108aa57600080fd5b6108b2611d6a565b604051808273ffffffffffffffffffffffffffffffffffffffff1673ffffffffffffffffffffffffffffffffffffffff16815260200191505060405180910390f35b34156108ff57600080fd5b61094f600480803590602001908201803590602001908080601f01602080910402602001604051908101604052809392919081815260200183838082843782019150505050505091905050611d8f565b604051808273ffffffffffffffffffffffffffffffffffffffff1673ffffffffffffffffffffffffffffffffffffffff16815260200191505060405180910390f35b341561099c57600080fd5b6109ec600480803590602001908201803590602001908080601f01602080910402602001604051908101604052809392919081815260200183838082843782019150505050505091905050611e27565b6040518080602001828103825283818151815260200191508051906020019080838360005b83811015610a2c578082015181840152602081019050610a11565b50505050905090810190601f168015610a595780820380516001836020036101000a031916815260200191505b509250505060405180910390f35b3415610a7257600080fd5b610ae1600480803590602001908201803590602001908080601f0160208091040260200160405190810160405280939291908181526020018383808284378201915050505050509190803573ffffffffffffffffffffffffffffffffffffffff16906020019091905050611f92565b005b3415610aee57600080fd5b610b1a600480803573ffffffffffffffffffffffffffffffffffffffff169060200190919050506122a5565b005b3415610b2757600080fd5b610b96600480803590602001908201803590602001908080601f0160208091040260200160405190810160405280939291908181526020018383808284378201915050505050509190803573ffffffffffffffffffffffffffffffffffffffff16906020019091905050612343565b6040518080602001828103825283818151815260200191508051906020019080838360005b83811015610bd6578082015181840152602081019050610bbb565b50505050905090810190601f168015610c035780820380516001836020036101000a031916815260200191505b509250505060405180910390f35b3415610c1c57600080fd5b610c24612562565b6040518082815260200191505060405180910390f35b3415610c4557600080fd5b610cb4600480803590602001908201803590602001908080601f0160208091040260200160405190810160405280939291908181526020018383808284378201915050505050509190803573ffffffffffffffffffffffffffffffffffffffff16906020019091905050612568565b604051808215151515815260200191505060405180910390f35b3415610cd957600080fd5b610d48600480803590602001908201803590602001908080601f0160208091040260200160405190810160405280939291908181526020018383808284378201915050505050509190803573ffffffffffffffffffffffffffffffffffffffff169060200190919050506125a9565b604051808215151515815260200191505060405180910390f35b610e38600480803590602001908201803590602001908080601f0160208091040260200160405190810160405280939291908181526020018383808284378201915050505050509190803590602001908201803590602001908080601f0160208091040260200160405190810160405280939291908181526020018383808284378201915050505050509190803590602001908201803590602001908080601f01602080910402602001604051908101604052809392919081815260200183838082843782019150505050505091905050612688565b005b3415610e4557600080fd5b610e95600480803590602001908201803590602001908080601f01602080910402602001604051908101604052809392919081815260200183838082843782019150505050505091905050612bc4565b6040518082815260200191505060405180910390f35b3415610eb657600080fd5b610f25600480803590602001908201803590602001908080601f0160208091040260200160405190810160405280939291908181526020018383808284378201915050505050509190803573ffffffffffffffffffffffffffffffffffffffff16906020019091905050612c3c565b60405180826004811115610f3557fe5b60ff16815260200191505060405180910390f35b3415610f5457600080fd5b610fa4600480803590602001908201803590602001908080601f01602080910402602001604051908101604052809392919081815260200183838082843782019150505050505091905050612d02565b005b6110c8600480803590602001908201803590602001908080601f0160208091040260200160405190810160405280939291908181526020018383808284378201915050505050509190803590602001908201803590602001908080601f0160208091040260200160405190810160405280939291908181526020018383808284378201915050505050509190803590602001909190803590602001908201803590602001908080601f0160208091040260200160405190810160405280939291908181526020018383808284378201915050505050509190803590602001908201803590602001908080601f01602080910402602001604051908101604052809392919081815260200183838082843782019150505050505091905050612edf565b005b34156110d557600080fd5b611125600480803590602001908201803590602001908080601f0160208091040260200160405190810160405280939291908181526020018383808284378201915050505050509190505061313c565b6040518082815260200191505060405180910390f35b61118b600480803590602001908201803590602001908080601f016020809104026020016040519081016040528093929190818152602001838380828437820191505050505050919050506131b4565b005b60015481565b61119b6133c0565b6004826040518082805190602001908083835b6020831015156111d357805182526020820191506020810190506020830392506111ae565b6001836020036101000a03801982511681845116808217855250505050505090500191505090815260200160405180910390206002018054600181600116156101000203166002900480601f01602080910402602001604051908101604052809291908181526020018280546001816001161561010002031660029004801561129d5780601f106112725761010080835404028352916020019161129d565b820191906000526020600020905b81548152906001019060200180831161128057829003601f168201915b50505050509050919050565b60006112b583836125a9565b806112c657506112c58383611ab4565b5b806112d757506112d68383612568565b5b15905092915050565b6000809054906101000a900473ffffffffffffffffffffffffffffffffffffffff1673ffffffffffffffffffffffffffffffffffffffff163373ffffffffffffffffffffffffffffffffffffffff1614151561133b57600080fd5b6000809054906101000a900473ffffffffffffffffffffffffffffffffffffffff1673ffffffffffffffffffffffffffffffffffffffff166108fc3073ffffffffffffffffffffffffffffffffffffffff16319081150290604051600060405180830381858888f1935050505015156113b357600080fd5b565b6003818154811015156113c457fe5b90600052602060002090016000915090508054600181600116156101000203166002900480601f0160208091040260200160405190810160405280929190818152602001828054600181600116156101000203166002900480156114695780601f1061143e57610100808354040283529160200191611469565b820191906000526020600020905b81548152906001019060200180831161144c57829003601f168201915b505050505081565b600080600481111561147f57fe5b6004846040518082805190602001908083835b6020831015156114b75780518252602082019150602081019050602083039250611492565b6001836020036101000a038019825116818451168082178552505050505050905001915050908152602001604051809103902060080160008473ffffffffffffffffffffffffffffffffffffffff1673ffffffffffffffffffffffffffffffffffffffff16815260200190815260200160002060000160009054906101000a900460ff16600481111561154657fe5b14905092915050565b60006004826040518082805190602001908083835b6020831015156115895780518252602082019150602081019050602083039250611564565b6001836020036101000a0380198251168184511680821785525050505050509050019150509081526020016040518091039020600301549050919050565b6000806004856040518082805190602001908083835b60208310151561160257805182526020820191506020810190506020830392506115dd565b6001836020036101000a0380198251168184511680821785525050505050509050019150509081526020016040518091039020600101541415801561164d575061164c8433612568565b5b801561165f575061165e84846125a9565b5b151561166a57600080fd5b6004846040518082805190602001908083835b6020831015156116a2578051825260208201915060208101905060208303925061167d565b6001836020036101000a038019825116818451168082178552505050505050905001915050908152602001604051809103902060080160008473ffffffffffffffffffffffffffffffffffffffff1673ffffffffffffffffffffffffffffffffffffffff1681526020019081526020016000209050600081600101541015151561172b57600080fd5b3373ffffffffffffffffffffffffffffffffffffffff166108fc82600101549081150290604051600060405180830381858888f19350505050151561176f57600080fd5b6000816001018190555060048160000160006101000a81548160ff0219169083600481111561179a57fe5b0217905550818160040190805190602001906117b79291906133d4565b507f87deb0bf3260371a3845769d523869b17a51dab5e82dd1d7db896b489fe42f5781600201856001604051808060200180602001841515151581526020018381038352868181546001816001161561010002031660029004815260200191508054600181600116156101000203166002900480156118775780601f1061184c57610100808354040283529160200191611877565b820191906000526020600020905b81548152906001019060200180831161185a57829003601f168201915b5050838103825285818151815260200191508051906020019080838360005b838110156118b1578082015181840152602081019050611896565b50505050905090810190601f1680156118de5780820380516001836020036101000a031916815260200191505b509550505050505060405180910390a150505050565b60006004836040518082805190602001908083835b60208310151561192e5780518252602082019150602081019050602083039250611909565b6001836020036101000a0380198251168184511680821785525050505050509050019150509081526020016040518091039020600701600083815260200190815260200160002060009054906101000a900473ffffffffffffffffffffffffffffffffffffffff16905092915050565b6119a66133c0565b6004826040518082805190602001908083835b6020831015156119de57805182526020820191506020810190506020830392506119b9565b6001836020036101000a03801982511681845116808217855250505050505090500191505090815260200160405180910390206004018054600181600116156101000203166002900480601f016020809104026020016040519081016040528092919081815260200182805460018160011615610100020316600290048015611aa85780601f10611a7d57610100808354040283529160200191611aa8565b820191906000526020600020905b815481529060010190602001808311611a8b57829003601f168201915b50505050509050919050565b6000600480811115611ac257fe5b6004846040518082805190602001908083835b602083101515611afa5780518252602082019150602081019050602083039250611ad5565b6001836020036101000a038019825116818451168082178552505050505050905001915050908152602001604051809103902060080160008473ffffffffffffffffffffffffffffffffffffffff1673ffffffffffffffffffffffffffffffffffffffff16815260200190815260200160002060000160009054906101000a900460ff166004811115611b8957fe5b14905092915050565b611b9a6133c0565b6004826040518082805190602001908083835b602083101515611bd25780518252602082019150602081019050602083039250611bad565b6001836020036101000a03801982511681845116808217855250505050505090500191505090815260200160405180910390206005018054600181600116156101000203166002900480601f016020809104026020016040519081016040528092919081815260200182805460018160011615610100020316600290048015611c9c5780601f10611c7157610100808354040283529160200191611c9c565b820191906000526020600020905b815481529060010190602001808311611c7f57829003601f168201915b50505050509050919050565b6000816064600560009054906101000a900473ffffffffffffffffffffffffffffffffffffffff1673ffffffffffffffffffffffffffffffffffffffff16630c560c64600080604051602001526040518263ffffffff167c010000000000000000000000000000000000000000000000000000000002815260040180828152602001915050602060405180830381600087803b1515611d4657600080fd5b6102c65a03f11515611d5757600080fd5b5050506040518051905002029050919050565b6000809054906101000a900473ffffffffffffffffffffffffffffffffffffffff1681565b60006004826040518082805190602001908083835b602083101515611dc95780518252602082019150602081019050602083039250611da4565b6001836020036101000a038019825116818451168082178552505050505050905001915050908152602001604051809103902060000160009054906101000a900473ffffffffffffffffffffffffffffffffffffffff169050919050565b611e2f6133c0565b611e398233611ab4565b1515611e4457600080fd5b6004826040518082805190602001908083835b602083101515611e7c5780518252602082019150602081019050602083039250611e57565b6001836020036101000a038019825116818451168082178552505050505050905001915050908152602001604051809103902060080160003373ffffffffffffffffffffffffffffffffffffffff1673ffffffffffffffffffffffffffffffffffffffff1681526020019081526020016000206004018054600181600116156101000203166002900480601f016020809104026020016040519081016040528092919081815260200182805460018160011615610100020316600290048015611f865780601f10611f5b57610100808354040283529160200191611f86565b820191906000526020600020905b815481529060010190602001808311611f6957829003601f168201915b50505050509050919050565b6000806004846040518082805190602001908083835b602083101515611fcd5780518252602082019150602081019050602083039250611fa8565b6001836020036101000a0380198251168184511680821785525050505050509050019150509081526020016040518091039020600101541415801561201857506120178333612568565b5b801561202a575061202983836125a9565b5b151561203557600080fd5b6004836040518082805190602001908083835b60208310151561206d5780518252602082019150602081019050602083039250612048565b6001836020036101000a038019825116818451168082178552505050505050905001915050908152602001604051809103902060080160008373ffffffffffffffffffffffffffffffffffffffff1673ffffffffffffffffffffffffffffffffffffffff168152602001908152602001600020905060008160010154101515156120f657600080fd5b8173ffffffffffffffffffffffffffffffffffffffff166108fc82600101549081150290604051600060405180830381858888f19350505050151561213a57600080fd5b6000816001018190555060028160000160006101000a81548160ff0219169083600481111561216557fe5b02179055507f87deb0bf3260371a3845769d523869b17a51dab5e82dd1d7db896b489fe42f5781600201846000604051808060200180602001841515151581526020018381038352868181546001816001161561010002031660029004815260200191508054600181600116156101000203166002900480156122295780601f106121fe57610100808354040283529160200191612229565b820191906000526020600020905b81548152906001019060200180831161220c57829003601f168201915b5050838103825285818151815260200191508051906020019080838360005b83811015612263578082015181840152602081019050612248565b50505050905090810190601f1680156122905780820380516001836020036101000a031916815260200191505b509550505050505060405180910390a1505050565b6000809054906101000a900473ffffffffffffffffffffffffffffffffffffffff1673ffffffffffffffffffffffffffffffffffffffff163373ffffffffffffffffffffffffffffffffffffffff1614151561230057600080fd5b806000806101000a81548173ffffffffffffffffffffffffffffffffffffffff021916908373ffffffffffffffffffffffffffffffffffffffff16021790555050565b61234b6133c0565b6004836040518082805190602001908083835b602083101515612383578051825260208201915060208101905060208303925061235e565b6001836020036101000a038019825116818451168082178552505050505050905001915050908152602001604051809103902060000160009054906101000a900473ffffffffffffffffffffffffffffffffffffffff1673ffffffffffffffffffffffffffffffffffffffff163373ffffffffffffffffffffffffffffffffffffffff1614151561241357600080fd5b6004836040518082805190602001908083835b60208310151561244b5780518252602082019150602081019050602083039250612426565b6001836020036101000a038019825116818451168082178552505050505050905001915050908152602001604051809103902060080160008373ffffffffffffffffffffffffffffffffffffffff1673ffffffffffffffffffffffffffffffffffffffff1681526020019081526020016000206003018054600181600116156101000203166002900480601f0160208091040260200160405190810160405280929190818152602001828054600181600116156101000203166002900480156125555780601f1061252a57610100808354040283529160200191612555565b820191906000526020600020905b81548152906001019060200180831161253857829003601f168201915b5050505050905092915050565b60025481565b60008173ffffffffffffffffffffffffffffffffffffffff1661258a84611d8f565b73ffffffffffffffffffffffffffffffffffffffff1614905092915050565b6000600160048111156125b857fe5b6004846040518082805190602001908083835b6020831015156125f057805182526020820191506020810190506020830392506125cb565b6001836020036101000a038019825116818451168082178552505050505050905001915050908152602001604051809103902060080160008473ffffffffffffffffffffffffffffffffffffffff1673ffffffffffffffffffffffffffffffffffffffff16815260200190815260200160002060000160009054906101000a900460ff16600481111561267f57fe5b14905092915050565b6000806127026004866040518082805190602001908083835b6020831015156126c657805182526020820191506020810190506020830392506126a1565b6001836020036101000a038019825116818451168082178552505050505050905001915050908152602001604051809103902060030154611ca8565b915060006004866040518082805190602001908083835b60208310151561273e5780518252602082019150602081019050602083039250612719565b6001836020036101000a03801982511681845116808217855250505050505090500191505090815260200160405180910390206001015414158015612789575061278885336112a9565b5b80156127955750813410155b15156127a057600080fd5b6004856040518082805190602001908083835b6020831015156127d857805182526020820191506020810190506020830392506127b3565b6001836020036101000a038019825116818451168082178552505050505050905001915050908152602001604051809103902090506000600481111561281a57fe5b8160080160003373ffffffffffffffffffffffffffffffffffffffff1673ffffffffffffffffffffffffffffffffffffffff16815260200190815260200160002060000160009054906101000a900460ff16600481111561287757fe5b14156128e4573381600701600083600601600081548092919060010191905055815260200190815260200160002060006101000a81548173ffffffffffffffffffffffffffffffffffffffff021916908373ffffffffffffffffffffffffffffffffffffffff1602179055505b60a060405190810160405280600160048111156128fd57fe5b815260200183815260200184815260200185815260200160206040519081016040528060008152508152508160080160003373ffffffffffffffffffffffffffffffffffffffff1673ffffffffffffffffffffffffffffffffffffffff16815260200190815260200160002060008201518160000160006101000a81548160ff0219169083600481111561298d57fe5b02179055506020820151816001015560408201518160020190805190602001906129b8929190613454565b5060608201518160030190805190602001906129d5929190613454565b5060808201518160040190805190602001906129f2929190613454565b509050507f7e558bb9898d8d17809158db6c967a8ea47d93a15a5d359a1186352a086cfb7c6004866040518082805190602001908083835b602083101515612a4f5780518252602082019150602081019050602083039250612a2a565b6001836020036101000a038019825116818451168082178552505050505050905001915050908152602001604051809103902060050186336040518080602001806020018473ffffffffffffffffffffffffffffffffffffffff1673ffffffffffffffffffffffffffffffffffffffff168152602001838103835286818154600181600116156101000203166002900481526020019150805460018160011615610100020316600290048015612b465780601f10612b1b57610100808354040283529160200191612b46565b820191906000526020600020905b815481529060010190602001808311612b2957829003601f168201915b5050838103825285818151815260200191508051906020019080838360005b83811015612b80578082015181840152602081019050612b65565b50505050905090810190601f168015612bad5780820380516001836020036101000a031916815260200191505b509550505050505060405180910390a15050505050565b60006004826040518082805190602001908083835b602083101515612bfe5780518252602082019150602081019050602083039250612bd9565b6001836020036101000a0380198251168184511680821785525050505050509050019150509081526020016040518091039020600601549050919050565b60006004836040518082805190602001908083835b602083101515612c765780518252602082019150602081019050602083039250612c51565b6001836020036101000a038019825116818451168082178552505050505050905001915050908152602001604051809103902060080160008373ffffffffffffffffffffffffffffffffffffffff1673ffffffffffffffffffffffffffffffffffffffff16815260200190815260200160002060000160009054906101000a900460ff16905092915050565b6000806004836040518082805190602001908083835b602083101515612d3d5780518252602082019150602081019050602083039250612d18565b6001836020036101000a03801982511681845116808217855250505050505090500191505090815260200160405180910390206001015414158015612d895750612d878233612568565b155b8015612d9b5750612d9a82336125a9565b5b1515612da657600080fd5b6004826040518082805190602001908083835b602083101515612dde5780518252602082019150602081019050602083039250612db9565b6001836020036101000a038019825116818451168082178552505050505050905001915050908152602001604051809103902060080160003373ffffffffffffffffffffffffffffffffffffffff1673ffffffffffffffffffffffffffffffffffffffff16815260200190815260200160002090506000816001015410151515612e6757600080fd5b3373ffffffffffffffffffffffffffffffffffffffff166108fc82600101549081150290604051600060405180830381858888f193505050501515612eab57600080fd5b6000816001018190555060038160000160006101000a81548160ff02191690836004811115612ed657fe5b02179055505050565b60006004866040518082805190602001908083835b602083101515612f195780518252602082019150602081019050602083039250612ef4565b6001836020036101000a038019825116818451168082178552505050505050905001915050908152602001604051809103902060010154148015612f675750612f63600154611ca8565b3410155b1515612f7257600080fd5b60e0604051908101604052803373ffffffffffffffffffffffffffffffffffffffff16815260200142815260200185815260200184815260200183815260200182815260200160008152506004866040518082805190602001908083835b602083101515612ff55780518252602082019150602081019050602083039250612fd0565b6001836020036101000a038019825116818451168082178552505050505050905001915050908152602001604051809103902060008201518160000160006101000a81548173ffffffffffffffffffffffffffffffffffffffff021916908373ffffffffffffffffffffffffffffffffffffffff160217905550602082015181600101556040820151816002019080519060200190613095929190613454565b506060820151816003015560808201518160040190805190602001906130bc929190613454565b5060a08201518160050190805190602001906130d9929190613454565b5060c08201518160060155905050600380548060010182816130fb91906134d4565b9160005260206000209001600087909190915090805190602001906131219291906133d4565b50506002600081548092919060010191905055505050505050565b60006004826040518082805190602001908083835b6020831015156131765780518252602082019150602081019050602083039250613151565b6001836020036101000a0380198251168184511680821785525050505050509050019150509081526020016040518091039020600101549050919050565b60008061322e6004846040518082805190602001908083835b6020831015156131f257805182526020820191506020810190506020830392506131cd565b6001836020036101000a038019825116818451168082178552505050505050905001915050908152602001604051809103902060030154611ca8565b915060006004846040518082805190602001908083835b60208310151561326a5780518252602082019150602081019050602083039250613245565b6001836020036101000a038019825116818451168082178552505050505050905001915050908152602001604051809103902060010154141580156132b557506132b483336112a9565b5b80156132c15750813410155b80156132d457506132d28333611471565b155b15156132df57600080fd5b6004836040518082805190602001908083835b60208310151561331757805182526020820191506020810190506020830392506132f2565b6001836020036101000a038019825116818451168082178552505050505050905001915050908152602001604051809103902060080160003373ffffffffffffffffffffffffffffffffffffffff1673ffffffffffffffffffffffffffffffffffffffff168152602001908152602001600020905060018160000160006101000a81548160ff021916908360048111156133ad57fe5b0217905550818160010181905550505050565b602060405190810160405280600081525090565b828054600181600116156101000203166002900490600052602060002090601f016020900481019282601f1061341557805160ff1916838001178555613443565b82800160010185558215613443579182015b82811115613442578251825591602001919060010190613427565b5b5090506134509190613500565b5090565b828054600181600116156101000203166002900490600052602060002090601f016020900481019282601f1061349557805160ff19168380011785556134c3565b828001600101855582156134c3579182015b828111156134c25782518255916020019190600101906134a7565b5b5090506134d09190613500565b5090565b8154818355818115116134fb578183600052602060002091820191016134fa9190613525565b5b505050565b61352291905b8082111561351e576000816000905550600101613506565b5090565b90565b61354e91905b8082111561354a57600081816135419190613551565b5060010161352b565b5090565b90565b50805460018160011615610100020316600290046000825580601f106135775750613596565b601f0160209004906000526020600020908101906135959190613500565b5b505600a165627a7a723058204b29a23afcf981c23e5dfff88e9109c6bcaeff3c6618281fb70d90c6fe4207240029",
  "source": "pragma solidity ^0.4.2;\n\nimport './AccessRestricted.sol';\nimport './TimeStamping.sol';\nimport './FiatContract.sol';\n\ncontract Patenting is AccessRestricted {\n\n    uint public patentPrice;\n    uint public patentCount;\n\n    enum RequestStatus {Not_requested, Pending, Rejected, Cancelled, Accepted}\n\n    /*Struct for request */\n    struct Request {\n        RequestStatus status;\n        uint deposit;\n        string email;\n        string encryptionKey;\n        string encryptedIpfsKey;\n    }\n\n    /*Struct for patent*/\n    struct Patent {\n        address owner;\n        uint timestamp;\n        string patentHash;\n        uint price;\n        string ipfs;\n        string email;\n        uint numRequests;\n        mapping(uint => address) buyers;\n        mapping(address => Request) requests;\n    }\n\n    string[] public patentNames;\n    mapping(string => Patent) private patents; //PatentName to struct\n\n    event NewRequest(\n        string _ownerMail,\n        string _patentName,\n        address _rentee\n    );\n\n    event RequestResponse(\n        string _requesterEmail,\n        string _patentName,\n        bool _accepted\n    );\n\n    FiatContract fiat;\n\n    /* Constructor of the contract\n    * {param} uint : The price for depositing a pattern in Wei\n    */\n    function Patenting(uint _patentPrice, address _fiatContract) public {\n        fiat = FiatContract(_fiatContract);\n        patentPrice = _patentPrice;\n    }\n\n    function getEthPrice(uint _dollars) public view returns (uint) {\n        return fiat.USD(0) * 100 * _dollars;\n    }\n\n    /* Function to deposit a pattern\n    * {params} the patent parameters\n    * {costs} the price of a patent\n    */\n    function depositPatent(string _patentName, string _patentHash, uint _price, string _ipfs, string _email) public payable {\n        require(patents[_patentName].timestamp == 0 && msg.value >= getEthPrice(patentPrice));\n        patents[_patentName] = Patent(msg.sender, now, _patentHash, _price, _ipfs, _email, 0);\n        patentNames.push(_patentName);\n        patentCount++;\n    }\n\n    /* Function to request access to a patent\n    * {params} _patentName : name of patent\n    *          _encryptionKey : key to encrypt AES key with (key exchange protocol)\n    * {costs} price of the patent : will be frozen until request is accepted, rejected, or cancelled\n    */\n    function requestAccess(string _patentName, string _encryptionKey, string _email) public payable {\n        uint ethPrice = getEthPrice(patents[_patentName].price);\n        require(patents[_patentName].timestamp != 0 && canRequest(_patentName, msg.sender) && msg.value >= ethPrice);\n        Patent storage p = patents[_patentName];\n        if (p.requests[msg.sender].status == RequestStatus.Not_requested) {\n            p.buyers[p.numRequests++] = msg.sender;\n        }\n        p.requests[msg.sender] = Request(RequestStatus.Pending, ethPrice, _email, _encryptionKey, \"\");\n        NewRequest(patents[_patentName].email, _patentName, msg.sender);\n    }\n\n    function resendRequest(string _patentName) public payable {\n        uint ethPrice = getEthPrice(patents[_patentName].price);\n        require(patents[_patentName].timestamp != 0 && canRequest(_patentName, msg.sender) && msg.value >= ethPrice && !isNotRequested(_patentName, msg.sender));\n        Request storage r = patents[_patentName].requests[msg.sender];\n        r.status = RequestStatus.Pending;\n        r.deposit = ethPrice;\n    }\n\n    /* Function to grant access to a user\n    * {params} _patentName : name of patent\n    *          _user : user to give access to (must have requested)\n    *          _encryptedIpfsKey : encrypted AES key to decrypt file on ipfs\n    *   Transfers the amount to the patent owner\n    */\n    function grantAccess(string _patentName, address _user, string _encryptedIpfsKey) public {\n        require(patents[_patentName].timestamp != 0 && isOwner(_patentName, msg.sender) && isPending(_patentName, _user));\n        Request storage r = patents[_patentName].requests[_user];\n        require(r.deposit >= 0);\n        msg.sender.transfer(r.deposit);\n        r.deposit = 0;\n        r.status = RequestStatus.Accepted;\n        // Accept Request\n        r.encryptedIpfsKey = _encryptedIpfsKey;\n        RequestResponse(r.email, _patentName, true);\n    }\n\n    /* Function to reject access to a patent\n    * {params} : Same as above\n    * Refunds the amount to the user\n    */\n    function rejectAccess(string _patentName, address _user) public {\n        require(patents[_patentName].timestamp != 0 && isOwner(_patentName, msg.sender) && isPending(_patentName, _user));\n        Request storage r = patents[_patentName].requests[_user];\n        require(r.deposit >= 0);\n        _user.transfer(r.deposit);\n        // Refund back to user\n        r.deposit = 0;\n        r.status = RequestStatus.Rejected;\n        // Reject Request\n        RequestResponse(r.email, _patentName, false);\n    }\n\n    /* Function that cancels a request (can only be called by user)\n    * {params} : _patentName : name of patent\n    */\n    function cancelRequest(string _patentName) public {\n        require(patents[_patentName].timestamp != 0 && !isOwner(_patentName, msg.sender) && isPending(_patentName, msg.sender));\n        Request storage r = patents[_patentName].requests[msg.sender];\n        require(r.deposit >= 0);\n        msg.sender.transfer(r.deposit);\n        r.deposit = 0;\n        r.status = RequestStatus.Cancelled;\n        // Cancel request\n    }\n\n    /*Allows the owner to withdraw the remaining funds*/\n    function withdrawFunds() public onlyOwner {\n        owner.transfer(address(this).balance);\n    }\n\n    /*-----------------------------------View functions that do not require transactions-----------------------------------*/\n\n    /*Returns true if the given account can request the given patent : is either Not_requested, cancelled or rejected*/\n    function canRequest(string _patentName, address _account) public view returns (bool){\n        return !(isPending(_patentName, _account) || isAccepted(_patentName, _account) || isOwner(_patentName, _account));\n    }\n\n    /*Returns the RequestStatus of the given patent for the given account*/\n    function getRequestStatus(string _patentName, address _account) public view returns (RequestStatus){\n        return patents[_patentName].requests[_account].status;\n    }\n\n    /*Returns true of the given account hasn't requested the given patent*/\n    function isNotRequested(string _patentName, address _account) public view returns (bool){\n        return patents[_patentName].requests[_account].status == RequestStatus.Not_requested;\n    }\n\n    /*Returns true of the given account has a pending request on the given patent*/\n    function isPending(string _patentName, address _account) public view returns (bool){\n        return patents[_patentName].requests[_account].status == RequestStatus.Pending;\n    }\n\n    /*Verifies that the given address has been accepted for the given patent*/\n    function isAccepted(string _patentName, address _account) public view returns (bool){\n        return patents[_patentName].requests[_account].status == RequestStatus.Accepted;\n    }\n\n    /*Returns true if account is owner of given patent*/\n    function isOwner(string _patentName, address _account) public view returns (bool){\n        return getPatentOwner(_patentName) == _account;\n    }\n\n    /*Returns time-stamp of the Patent*/\n    function getTimeStamp(string _patentName) public view returns (uint){\n        return patents[_patentName].timestamp;\n    }\n\n    /*Returns the sha256 hash of the patent*/\n    function getPatentHash(string _patentName) public view returns (string){\n        return patents[_patentName].patentHash;\n    }\n\n    /*Returns patent's owner*/\n    function getPatentOwner(string _patentName) public view returns (address) {\n        return patents[_patentName].owner;\n    }\n\n    /*Returns the price of a patent*/\n    function getPrice(string _patentName) public view returns (uint){\n        return patents[_patentName].price;\n    }\n\n    /*Returns the number of requests for the given patent*/\n    function getNumRequests(string _patentName) public view returns (uint){\n        return patents[_patentName].numRequests;\n    }\n\n    /*Returns the address of the buyer at _index  (Used for iterating)*/\n    function getBuyers(string _patentName, uint _index) public view returns (address){\n        return patents[_patentName].buyers[_index];\n    }\n\n    /*Returns the requester's public key*/\n    function getEncryptionKey(string _patentName, address _user) public view returns (string){\n        require(msg.sender == patents[_patentName].owner);\n        return patents[_patentName].requests[_user].encryptionKey;\n    }\n\n    /*Returns the encrypted IPFS encryption key*/\n    function getEncryptedIpfsKey(string _patentName) public view returns (string){\n        require(isAccepted(_patentName, msg.sender));\n        return patents[_patentName].requests[msg.sender].encryptedIpfsKey;\n    }\n\n    function getOwnerEmail(string _patentName) public view returns (string) {\n        return patents[_patentName].email;\n    }\n\n    /*Returns the IPFS location of the patent*/\n    function getPatentLocation(string _patentName) public view returns (string) {\n        return patents[_patentName].ipfs;\n    }\n}\n",
  "sourcePath": "/home/tarek/Documents/Master-DS/Semester-Project/DNA/Web-Applications/react-app/contracts/Patenting.sol",
  "compiler": {
    "name": "solc",
    "version": "0.4.19+commit.c4cbbb05.Emscripten.clang"
  },
  "schemaVersion": "2.0.0",
  "updatedAt": "2018-06-08T14:46:51.202Z"
}