{
  "contractName": "Patenting",
  "abi": [
    {
      "constant": true,
      "inputs": [],
      "name": "patentPrice",
      "outputs": [
        {
          "name": "",
          "type": "uint256"
        }
      ],
      "payable": false,
      "stateMutability": "view",
      "type": "function"
    },
    {
      "constant": true,
      "inputs": [
        {
          "name": "",
          "type": "uint256"
        }
      ],
      "name": "patentNames",
      "outputs": [
        {
          "name": "",
          "type": "string"
        }
      ],
      "payable": false,
      "stateMutability": "view",
      "type": "function"
    },
    {
      "constant": true,
      "inputs": [],
      "name": "owner",
      "outputs": [
        {
          "name": "",
          "type": "address"
        }
      ],
      "payable": false,
      "stateMutability": "view",
      "type": "function"
    },
    {
      "constant": false,
      "inputs": [
        {
          "name": "_newOwner",
          "type": "address"
        }
      ],
      "name": "changeOwner",
      "outputs": [],
      "payable": false,
      "stateMutability": "nonpayable",
      "type": "function"
    },
    {
      "constant": true,
      "inputs": [],
      "name": "patentCount",
      "outputs": [
        {
          "name": "",
          "type": "uint256"
        }
      ],
      "payable": false,
      "stateMutability": "view",
      "type": "function"
    },
    {
      "inputs": [
        {
          "name": "_patentPrice",
          "type": "uint256"
        }
      ],
      "payable": false,
      "stateMutability": "nonpayable",
      "type": "constructor"
    },
    {
      "anonymous": false,
      "inputs": [
        {
          "indexed": false,
          "name": "_ownerMail",
          "type": "string"
        },
        {
          "indexed": false,
          "name": "_patentName",
          "type": "string"
        },
        {
          "indexed": false,
          "name": "_rentee",
          "type": "address"
        }
      ],
      "name": "NewRequest",
      "type": "event"
    },
    {
      "constant": false,
      "inputs": [
        {
          "name": "_patentName",
          "type": "string"
        },
        {
          "name": "_patentHash",
          "type": "string"
        },
        {
          "name": "_price",
          "type": "uint256"
        },
        {
          "name": "_ipfs",
          "type": "string"
        },
        {
          "name": "_email",
          "type": "string"
        }
      ],
      "name": "depositPatent",
      "outputs": [],
      "payable": true,
      "stateMutability": "payable",
      "type": "function"
    },
    {
      "constant": false,
      "inputs": [
        {
          "name": "_patentName",
          "type": "string"
        },
        {
          "name": "_encryptionKey",
          "type": "string"
        }
      ],
      "name": "requestAccess",
      "outputs": [],
      "payable": true,
      "stateMutability": "payable",
      "type": "function"
    },
    {
      "constant": false,
      "inputs": [
        {
          "name": "_patentName",
          "type": "string"
        },
        {
          "name": "_user",
          "type": "address"
        },
        {
          "name": "_encryptedIpfsKey",
          "type": "string"
        }
      ],
      "name": "grantAccess",
      "outputs": [],
      "payable": false,
      "stateMutability": "nonpayable",
      "type": "function"
    },
    {
      "constant": false,
      "inputs": [
        {
          "name": "_patentName",
          "type": "string"
        },
        {
          "name": "_user",
          "type": "address"
        }
      ],
      "name": "rejectAccess",
      "outputs": [],
      "payable": false,
      "stateMutability": "nonpayable",
      "type": "function"
    },
    {
      "constant": false,
      "inputs": [
        {
          "name": "_patentName",
          "type": "string"
        }
      ],
      "name": "cancelRequest",
      "outputs": [],
      "payable": false,
      "stateMutability": "nonpayable",
      "type": "function"
    },
    {
      "constant": false,
      "inputs": [],
      "name": "withdrawFunds",
      "outputs": [],
      "payable": false,
      "stateMutability": "nonpayable",
      "type": "function"
    },
    {
      "constant": true,
      "inputs": [
        {
          "name": "_patentName",
          "type": "string"
        },
        {
          "name": "_account",
          "type": "address"
        }
      ],
      "name": "canRequest",
      "outputs": [
        {
          "name": "",
          "type": "bool"
        }
      ],
      "payable": false,
      "stateMutability": "view",
      "type": "function"
    },
    {
      "constant": true,
      "inputs": [
        {
          "name": "_patentName",
          "type": "string"
        },
        {
          "name": "_account",
          "type": "address"
        }
      ],
      "name": "getRequestStatus",
      "outputs": [
        {
          "name": "",
          "type": "uint8"
        }
      ],
      "payable": false,
      "stateMutability": "view",
      "type": "function"
    },
    {
      "constant": true,
      "inputs": [
        {
          "name": "_patentName",
          "type": "string"
        },
        {
          "name": "_account",
          "type": "address"
        }
      ],
      "name": "isNotRequested",
      "outputs": [
        {
          "name": "",
          "type": "bool"
        }
      ],
      "payable": false,
      "stateMutability": "view",
      "type": "function"
    },
    {
      "constant": true,
      "inputs": [
        {
          "name": "_patentName",
          "type": "string"
        },
        {
          "name": "_account",
          "type": "address"
        }
      ],
      "name": "isPending",
      "outputs": [
        {
          "name": "",
          "type": "bool"
        }
      ],
      "payable": false,
      "stateMutability": "view",
      "type": "function"
    },
    {
      "constant": true,
      "inputs": [
        {
          "name": "_patentName",
          "type": "string"
        },
        {
          "name": "_account",
          "type": "address"
        }
      ],
      "name": "isAccepted",
      "outputs": [
        {
          "name": "",
          "type": "bool"
        }
      ],
      "payable": false,
      "stateMutability": "view",
      "type": "function"
    },
    {
      "constant": true,
      "inputs": [
        {
          "name": "_patentName",
          "type": "string"
        },
        {
          "name": "_account",
          "type": "address"
        }
      ],
      "name": "isOwner",
      "outputs": [
        {
          "name": "",
          "type": "bool"
        }
      ],
      "payable": false,
      "stateMutability": "view",
      "type": "function"
    },
    {
      "constant": true,
      "inputs": [
        {
          "name": "_patentName",
          "type": "string"
        }
      ],
      "name": "getTimeStamp",
      "outputs": [
        {
          "name": "",
          "type": "uint256"
        }
      ],
      "payable": false,
      "stateMutability": "view",
      "type": "function"
    },
    {
      "constant": true,
      "inputs": [
        {
          "name": "_patentName",
          "type": "string"
        }
      ],
      "name": "getPatentHash",
      "outputs": [
        {
          "name": "",
          "type": "string"
        }
      ],
      "payable": false,
      "stateMutability": "view",
      "type": "function"
    },
    {
      "constant": true,
      "inputs": [
        {
          "name": "_patentName",
          "type": "string"
        }
      ],
      "name": "getPatentOwner",
      "outputs": [
        {
          "name": "",
          "type": "address"
        }
      ],
      "payable": false,
      "stateMutability": "view",
      "type": "function"
    },
    {
      "constant": true,
      "inputs": [
        {
          "name": "_patentName",
          "type": "string"
        }
      ],
      "name": "getPrice",
      "outputs": [
        {
          "name": "",
          "type": "uint256"
        }
      ],
      "payable": false,
      "stateMutability": "view",
      "type": "function"
    },
    {
      "constant": true,
      "inputs": [
        {
          "name": "_patentName",
          "type": "string"
        }
      ],
      "name": "getNumRequests",
      "outputs": [
        {
          "name": "",
          "type": "uint256"
        }
      ],
      "payable": false,
      "stateMutability": "view",
      "type": "function"
    },
    {
      "constant": true,
      "inputs": [
        {
          "name": "_patentName",
          "type": "string"
        },
        {
          "name": "_index",
          "type": "uint256"
        }
      ],
      "name": "getBuyers",
      "outputs": [
        {
          "name": "",
          "type": "address"
        }
      ],
      "payable": false,
      "stateMutability": "view",
      "type": "function"
    },
    {
      "constant": true,
      "inputs": [
        {
          "name": "_patentName",
          "type": "string"
        },
        {
          "name": "_user",
          "type": "address"
        }
      ],
      "name": "getEncryptionKey",
      "outputs": [
        {
          "name": "",
          "type": "string"
        }
      ],
      "payable": false,
      "stateMutability": "view",
      "type": "function"
    },
    {
      "constant": true,
      "inputs": [
        {
          "name": "_patentName",
          "type": "string"
        }
      ],
      "name": "getEncryptedIpfsKey",
      "outputs": [
        {
          "name": "",
          "type": "string"
        }
      ],
      "payable": false,
      "stateMutability": "view",
      "type": "function"
    },
    {
      "constant": true,
      "inputs": [
        {
          "name": "_patentName",
          "type": "string"
        }
      ],
      "name": "getPatentLocation",
      "outputs": [
        {
          "name": "",
          "type": "string"
        }
      ],
      "payable": false,
      "stateMutability": "view",
      "type": "function"
    }
  ],
  "bytecode": "0x6060604052336000806101000a81548173ffffffffffffffffffffffffffffffffffffffff021916908373ffffffffffffffffffffffffffffffffffffffff160217905550341561004f57600080fd5b604051602080612e35833981016040528080519060200190919050508060018190555050612db3806100826000396000f300606060405260043610610154576000357c0100000000000000000000000000000000000000000000000000000000900463ffffffff1680630638c22c1461015957806316157f6c1461018257806316720cc2146102175780632294de45146102ed57806324600fc31461038157806341e144491461039657806347ce3d6f14610432578063524f3889146104c65780635d98dde8146105375780636038c638146105f6578063607f9e871461069c57806365f8695e146107725780638da5cb5b1461080657806399d2618e1461085b578063a302e8cd146108f8578063a6966e25146109ce578063a6f9dae114610a4a578063ad8c9dd614610a83578063b084c84114610b78578063bde1eee714610ba1578063be3e072214610c35578063e0cf4cc914610cc9578063e2f99c7e14610d3a578063e489445d14610dd8578063eb3e8bf814610e35578063fa52c7cc14610f59575b600080fd5b341561016457600080fd5b61016c610fca565b6040518082815260200191505060405180910390f35b610215600480803590602001908201803590602001908080601f0160208091040260200160405190810160405280939291908181526020018383808284378201915050505050509190803590602001908201803590602001908080601f01602080910402602001604051908101604052809392919081815260200183838082843782019150505050505091905050610fd0565b005b341561022257600080fd5b610272600480803590602001908201803590602001908080601f01602080910402602001604051908101604052809392919081815260200183838082843782019150505050505091905050611381565b6040518080602001828103825283818151815260200191508051906020019080838360005b838110156102b2578082015181840152602081019050610297565b50505050905090810190601f1680156102df5780820380516001836020036101000a031916815260200191505b509250505060405180910390f35b34156102f857600080fd5b610367600480803590602001908201803590602001908080601f0160208091040260200160405190810160405280939291908181526020018383808284378201915050505050509190803573ffffffffffffffffffffffffffffffffffffffff16906020019091905050611497565b604051808215151515815260200191505060405180910390f35b341561038c57600080fd5b6103946114ce565b005b34156103a157600080fd5b6103b760048080359060200190919050506115a3565b6040518080602001828103825283818151815260200191508051906020019080838360005b838110156103f75780820151818401526020810190506103dc565b50505050905090810190601f1680156104245780820380516001836020036101000a031916815260200191505b509250505060405180910390f35b341561043d57600080fd5b6104ac600480803590602001908201803590602001908080601f0160208091040260200160405190810160405280939291908181526020018383808284378201915050505050509190803573ffffffffffffffffffffffffffffffffffffffff1690602001909190505061165f565b604051808215151515815260200191505060405180910390f35b34156104d157600080fd5b610521600480803590602001908201803590602001908080601f0160208091040260200160405190810160405280939291908181526020018383808284378201915050505050509190505061173d565b6040518082815260200191505060405180910390f35b341561054257600080fd5b6105f4600480803590602001908201803590602001908080601f0160208091040260200160405190810160405280939291908181526020018383808284378201915050505050509190803573ffffffffffffffffffffffffffffffffffffffff1690602001909190803590602001908201803590602001908080601f016020809104026020016040519081016040528093929190818152602001838380828437820191505050505050919050506117b5565b005b341561060157600080fd5b61065a600480803590602001908201803590602001908080601f01602080910402602001604051908101604052809392919081815260200183838082843782019150505050505091908035906020019091905050611a18565b604051808273ffffffffffffffffffffffffffffffffffffffff1673ffffffffffffffffffffffffffffffffffffffff16815260200191505060405180910390f35b34156106a757600080fd5b6106f7600480803590602001908201803590602001908080601f01602080910402602001604051908101604052809392919081815260200183838082843782019150505050505091905050611ac2565b6040518080602001828103825283818151815260200191508051906020019080838360005b8381101561073757808201518184015260208101905061071c565b50505050905090810190601f1680156107645780820380516001836020036101000a031916815260200191505b509250505060405180910390f35b341561077d57600080fd5b6107ec600480803590602001908201803590602001908080601f0160208091040260200160405190810160405280939291908181526020018383808284378201915050505050509190803573ffffffffffffffffffffffffffffffffffffffff16906020019091905050611bd8565b604051808215151515815260200191505060405180910390f35b341561081157600080fd5b610819611cb6565b604051808273ffffffffffffffffffffffffffffffffffffffff1673ffffffffffffffffffffffffffffffffffffffff16815260200191505060405180910390f35b341561086657600080fd5b6108b6600480803590602001908201803590602001908080601f01602080910402602001604051908101604052809392919081815260200183838082843782019150505050505091905050611cdb565b604051808273ffffffffffffffffffffffffffffffffffffffff1673ffffffffffffffffffffffffffffffffffffffff16815260200191505060405180910390f35b341561090357600080fd5b610953600480803590602001908201803590602001908080601f01602080910402602001604051908101604052809392919081815260200183838082843782019150505050505091905050611d73565b6040518080602001828103825283818151815260200191508051906020019080838360005b83811015610993578082015181840152602081019050610978565b50505050905090810190601f1680156109c05780820380516001836020036101000a031916815260200191505b509250505060405180910390f35b34156109d957600080fd5b610a48600480803590602001908201803590602001908080601f0160208091040260200160405190810160405280939291908181526020018383808284378201915050505050509190803573ffffffffffffffffffffffffffffffffffffffff16906020019091905050611ede565b005b3415610a5557600080fd5b610a81600480803573ffffffffffffffffffffffffffffffffffffffff16906020019091905050612127565b005b3415610a8e57600080fd5b610afd600480803590602001908201803590602001908080601f0160208091040260200160405190810160405280939291908181526020018383808284378201915050505050509190803573ffffffffffffffffffffffffffffffffffffffff169060200190919050506121c5565b6040518080602001828103825283818151815260200191508051906020019080838360005b83811015610b3d578082015181840152602081019050610b22565b50505050905090810190601f168015610b6a5780820380516001836020036101000a031916815260200191505b509250505060405180910390f35b3415610b8357600080fd5b610b8b6123e4565b6040518082815260200191505060405180910390f35b3415610bac57600080fd5b610c1b600480803590602001908201803590602001908080601f0160208091040260200160405190810160405280939291908181526020018383808284378201915050505050509190803573ffffffffffffffffffffffffffffffffffffffff169060200190919050506123ea565b604051808215151515815260200191505060405180910390f35b3415610c4057600080fd5b610caf600480803590602001908201803590602001908080601f0160208091040260200160405190810160405280939291908181526020018383808284378201915050505050509190803573ffffffffffffffffffffffffffffffffffffffff1690602001909190505061242b565b604051808215151515815260200191505060405180910390f35b3415610cd457600080fd5b610d24600480803590602001908201803590602001908080601f0160208091040260200160405190810160405280939291908181526020018383808284378201915050505050509190505061250a565b6040518082815260200191505060405180910390f35b3415610d4557600080fd5b610db4600480803590602001908201803590602001908080601f0160208091040260200160405190810160405280939291908181526020018383808284378201915050505050509190803573ffffffffffffffffffffffffffffffffffffffff16906020019091905050612582565b60405180826004811115610dc457fe5b60ff16815260200191505060405180910390f35b3415610de357600080fd5b610e33600480803590602001908201803590602001908080601f01602080910402602001604051908101604052809392919081815260200183838082843782019150505050505091905050612648565b005b610f57600480803590602001908201803590602001908080601f0160208091040260200160405190810160405280939291908181526020018383808284378201915050505050509190803590602001908201803590602001908080601f0160208091040260200160405190810160405280939291908181526020018383808284378201915050505050509190803590602001909190803590602001908201803590602001908080601f0160208091040260200160405190810160405280939291908181526020018383808284378201915050505050509190803590602001908201803590602001908080601f01602080910402602001604051908101604052809392919081815260200183838082843782019150505050505091905050612891565b005b3415610f6457600080fd5b610fb4600480803590602001908201803590602001908080601f01602080910402602001604051908101604052809392919081815260200183838082843782019150505050505091905050612b36565b6040518082815260200191505060405180910390f35b60015481565b6000806004846040518082805190602001908083835b60208310151561100b5780518252602082019150602081019050602083039250610fe6565b6001836020036101000a0380198251168184511680821785525050505050509050019150509081526020016040518091039020600101541415801561105657506110558333611497565b5b80156110d057506004836040518082805190602001908083835b6020831015156110955780518252602082019150602081019050602083039250611070565b6001836020036101000a0380198251168184511680821785525050505050509050019150509081526020016040518091039020600301543410155b15156110db57600080fd5b6004836040518082805190602001908083835b60208310151561111357805182526020820191506020810190506020830392506110ee565b6001836020036101000a038019825116818451168082178552505050505050905001915050908152602001604051809103902090506000600481111561115557fe5b8160080160003373ffffffffffffffffffffffffffffffffffffffff1673ffffffffffffffffffffffffffffffffffffffff16815260200190815260200160002060000160009054906101000a900460ff1660048111156111b257fe5b141561121f573381600701600083600601600081548092919060010191905055815260200190815260200160002060006101000a81548173ffffffffffffffffffffffffffffffffffffffff021916908373ffffffffffffffffffffffffffffffffffffffff1602179055505b6080604051908101604052806001600481111561123857fe5b81526020016004856040518082805190602001908083835b6020831015156112755780518252602082019150602081019050602083039250611250565b6001836020036101000a038019825116818451168082178552505050505050905001915050908152602001604051809103902060030154815260200183815260200160206040519081016040528060008152508152508160080160003373ffffffffffffffffffffffffffffffffffffffff1673ffffffffffffffffffffffffffffffffffffffff16815260200190815260200160002060008201518160000160006101000a81548160ff0219169083600481111561133057fe5b021790555060208201518160010155604082015181600201908051906020019061135b929190612bae565b506060820151816003019080519060200190611378929190612bae565b50905050505050565b611389612c2e565b6004826040518082805190602001908083835b6020831015156113c1578051825260208201915060208101905060208303925061139c565b6001836020036101000a03801982511681845116808217855250505050505090500191505090815260200160405180910390206002018054600181600116156101000203166002900480601f01602080910402602001604051908101604052809291908181526020018280546001816001161561010002031660029004801561148b5780601f106114605761010080835404028352916020019161148b565b820191906000526020600020905b81548152906001019060200180831161146e57829003601f168201915b50505050509050919050565b60006114a3838361242b565b806114b457506114b38383611bd8565b5b806114c557506114c483836123ea565b5b15905092915050565b6000809054906101000a900473ffffffffffffffffffffffffffffffffffffffff1673ffffffffffffffffffffffffffffffffffffffff163373ffffffffffffffffffffffffffffffffffffffff1614151561152957600080fd5b6000809054906101000a900473ffffffffffffffffffffffffffffffffffffffff1673ffffffffffffffffffffffffffffffffffffffff166108fc3073ffffffffffffffffffffffffffffffffffffffff16319081150290604051600060405180830381858888f1935050505015156115a157600080fd5b565b6003818154811015156115b257fe5b90600052602060002090016000915090508054600181600116156101000203166002900480601f0160208091040260200160405190810160405280929190818152602001828054600181600116156101000203166002900480156116575780601f1061162c57610100808354040283529160200191611657565b820191906000526020600020905b81548152906001019060200180831161163a57829003601f168201915b505050505081565b600080600481111561166d57fe5b6004846040518082805190602001908083835b6020831015156116a55780518252602082019150602081019050602083039250611680565b6001836020036101000a038019825116818451168082178552505050505050905001915050908152602001604051809103902060080160008473ffffffffffffffffffffffffffffffffffffffff1673ffffffffffffffffffffffffffffffffffffffff16815260200190815260200160002060000160009054906101000a900460ff16600481111561173457fe5b14905092915050565b60006004826040518082805190602001908083835b6020831015156117775780518252602082019150602081019050602083039250611752565b6001836020036101000a0380198251168184511680821785525050505050509050019150509081526020016040518091039020600301549050919050565b6000806004856040518082805190602001908083835b6020831015156117f057805182526020820191506020810190506020830392506117cb565b6001836020036101000a0380198251168184511680821785525050505050509050019150509081526020016040518091039020600101541415801561183b575061183a84336123ea565b5b801561184d575061184c848461242b565b5b151561185857600080fd5b6004846040518082805190602001908083835b602083101515611890578051825260208201915060208101905060208303925061186b565b6001836020036101000a038019825116818451168082178552505050505050905001915050908152602001604051809103902060080160008473ffffffffffffffffffffffffffffffffffffffff1673ffffffffffffffffffffffffffffffffffffffff16815260200190815260200160002090506004846040518082805190602001908083835b60208310151561193d5780518252602082019150602081019050602083039250611918565b6001836020036101000a038019825116818451168082178552505050505050905001915050908152602001604051809103902060030154816001015414151561198557600080fd5b3373ffffffffffffffffffffffffffffffffffffffff166108fc82600101549081150290604051600060405180830381858888f1935050505015156119c957600080fd5b6000816001018190555060048160000160006101000a81548160ff021916908360048111156119f457fe5b021790555081816003019080519060200190611a11929190612c42565b5050505050565b60006004836040518082805190602001908083835b602083101515611a525780518252602082019150602081019050602083039250611a2d565b6001836020036101000a0380198251168184511680821785525050505050509050019150509081526020016040518091039020600701600083815260200190815260200160002060009054906101000a900473ffffffffffffffffffffffffffffffffffffffff16905092915050565b611aca612c2e565b6004826040518082805190602001908083835b602083101515611b025780518252602082019150602081019050602083039250611add565b6001836020036101000a03801982511681845116808217855250505050505090500191505090815260200160405180910390206004018054600181600116156101000203166002900480601f016020809104026020016040519081016040528092919081815260200182805460018160011615610100020316600290048015611bcc5780601f10611ba157610100808354040283529160200191611bcc565b820191906000526020600020905b815481529060010190602001808311611baf57829003601f168201915b50505050509050919050565b6000600480811115611be657fe5b6004846040518082805190602001908083835b602083101515611c1e5780518252602082019150602081019050602083039250611bf9565b6001836020036101000a038019825116818451168082178552505050505050905001915050908152602001604051809103902060080160008473ffffffffffffffffffffffffffffffffffffffff1673ffffffffffffffffffffffffffffffffffffffff16815260200190815260200160002060000160009054906101000a900460ff166004811115611cad57fe5b14905092915050565b6000809054906101000a900473ffffffffffffffffffffffffffffffffffffffff1681565b60006004826040518082805190602001908083835b602083101515611d155780518252602082019150602081019050602083039250611cf0565b6001836020036101000a038019825116818451168082178552505050505050905001915050908152602001604051809103902060000160009054906101000a900473ffffffffffffffffffffffffffffffffffffffff169050919050565b611d7b612c2e565b611d858233611bd8565b1515611d9057600080fd5b6004826040518082805190602001908083835b602083101515611dc85780518252602082019150602081019050602083039250611da3565b6001836020036101000a038019825116818451168082178552505050505050905001915050908152602001604051809103902060080160003373ffffffffffffffffffffffffffffffffffffffff1673ffffffffffffffffffffffffffffffffffffffff1681526020019081526020016000206003018054600181600116156101000203166002900480601f016020809104026020016040519081016040528092919081815260200182805460018160011615610100020316600290048015611ed25780601f10611ea757610100808354040283529160200191611ed2565b820191906000526020600020905b815481529060010190602001808311611eb557829003601f168201915b50505050509050919050565b6000806004846040518082805190602001908083835b602083101515611f195780518252602082019150602081019050602083039250611ef4565b6001836020036101000a03801982511681845116808217855250505050505090500191505090815260200160405180910390206001015414158015611f645750611f6383336123ea565b5b8015611f765750611f75838361242b565b5b1515611f8157600080fd5b6004836040518082805190602001908083835b602083101515611fb95780518252602082019150602081019050602083039250611f94565b6001836020036101000a038019825116818451168082178552505050505050905001915050908152602001604051809103902060080160008373ffffffffffffffffffffffffffffffffffffffff1673ffffffffffffffffffffffffffffffffffffffff16815260200190815260200160002090506004836040518082805190602001908083835b6020831015156120665780518252602082019150602081019050602083039250612041565b6001836020036101000a03801982511681845116808217855250505050505090500191505090815260200160405180910390206003015481600101541415156120ae57600080fd5b8173ffffffffffffffffffffffffffffffffffffffff166108fc82600101549081150290604051600060405180830381858888f1935050505015156120f257600080fd5b6000816001018190555060028160000160006101000a81548160ff0219169083600481111561211d57fe5b0217905550505050565b6000809054906101000a900473ffffffffffffffffffffffffffffffffffffffff1673ffffffffffffffffffffffffffffffffffffffff163373ffffffffffffffffffffffffffffffffffffffff1614151561218257600080fd5b806000806101000a81548173ffffffffffffffffffffffffffffffffffffffff021916908373ffffffffffffffffffffffffffffffffffffffff16021790555050565b6121cd612c2e565b6004836040518082805190602001908083835b60208310151561220557805182526020820191506020810190506020830392506121e0565b6001836020036101000a038019825116818451168082178552505050505050905001915050908152602001604051809103902060000160009054906101000a900473ffffffffffffffffffffffffffffffffffffffff1673ffffffffffffffffffffffffffffffffffffffff163373ffffffffffffffffffffffffffffffffffffffff1614151561229557600080fd5b6004836040518082805190602001908083835b6020831015156122cd57805182526020820191506020810190506020830392506122a8565b6001836020036101000a038019825116818451168082178552505050505050905001915050908152602001604051809103902060080160008373ffffffffffffffffffffffffffffffffffffffff1673ffffffffffffffffffffffffffffffffffffffff1681526020019081526020016000206002018054600181600116156101000203166002900480601f0160208091040260200160405190810160405280929190818152602001828054600181600116156101000203166002900480156123d75780601f106123ac576101008083540402835291602001916123d7565b820191906000526020600020905b8154815290600101906020018083116123ba57829003601f168201915b5050505050905092915050565b60025481565b60008173ffffffffffffffffffffffffffffffffffffffff1661240c84611cdb565b73ffffffffffffffffffffffffffffffffffffffff1614905092915050565b60006001600481111561243a57fe5b6004846040518082805190602001908083835b602083101515612472578051825260208201915060208101905060208303925061244d565b6001836020036101000a038019825116818451168082178552505050505050905001915050908152602001604051809103902060080160008473ffffffffffffffffffffffffffffffffffffffff1673ffffffffffffffffffffffffffffffffffffffff16815260200190815260200160002060000160009054906101000a900460ff16600481111561250157fe5b14905092915050565b60006004826040518082805190602001908083835b602083101515612544578051825260208201915060208101905060208303925061251f565b6001836020036101000a0380198251168184511680821785525050505050509050019150509081526020016040518091039020600601549050919050565b60006004836040518082805190602001908083835b6020831015156125bc5780518252602082019150602081019050602083039250612597565b6001836020036101000a038019825116818451168082178552505050505050905001915050908152602001604051809103902060080160008373ffffffffffffffffffffffffffffffffffffffff1673ffffffffffffffffffffffffffffffffffffffff16815260200190815260200160002060000160009054906101000a900460ff16905092915050565b6000806004836040518082805190602001908083835b602083101515612683578051825260208201915060208101905060208303925061265e565b6001836020036101000a038019825116818451168082178552505050505050905001915050908152602001604051809103902060010154141580156126cf57506126cd82336123ea565b155b80156126e157506126e0823361242b565b5b15156126ec57600080fd5b6004826040518082805190602001908083835b60208310151561272457805182526020820191506020810190506020830392506126ff565b6001836020036101000a038019825116818451168082178552505050505050905001915050908152602001604051809103902060080160003373ffffffffffffffffffffffffffffffffffffffff1673ffffffffffffffffffffffffffffffffffffffff16815260200190815260200160002090506004826040518082805190602001908083835b6020831015156127d157805182526020820191506020810190506020830392506127ac565b6001836020036101000a038019825116818451168082178552505050505050905001915050908152602001604051809103902060030154816001015414151561281957600080fd5b3373ffffffffffffffffffffffffffffffffffffffff166108fc82600101549081150290604051600060405180830381858888f19350505050151561285d57600080fd5b6000816001018190555060038160000160006101000a81548160ff0219169083600481111561288857fe5b02179055505050565b6001548034101515156128a357600080fd5b803411156128ee573373ffffffffffffffffffffffffffffffffffffffff166108fc8234039081150290604051600060405180830381858888f1935050505015156128ed57600080fd5b5b60006004876040518082805190602001908083835b6020831015156129285780518252602082019150602081019050602083039250612903565b6001836020036101000a03801982511681845116808217855250505050505090500191505090815260200160405180910390206001015414151561296b57600080fd5b60e0604051908101604052803373ffffffffffffffffffffffffffffffffffffffff16815260200142815260200186815260200185815260200184815260200183815260200160008152506004876040518082805190602001908083835b6020831015156129ee57805182526020820191506020810190506020830392506129c9565b6001836020036101000a038019825116818451168082178552505050505050905001915050908152602001604051809103902060008201518160000160006101000a81548173ffffffffffffffffffffffffffffffffffffffff021916908373ffffffffffffffffffffffffffffffffffffffff160217905550602082015181600101556040820151816002019080519060200190612a8e929190612bae565b50606082015181600301556080820151816004019080519060200190612ab5929190612bae565b5060a0820151816005019080519060200190612ad2929190612bae565b5060c0820151816006015590505060038054806001018281612af49190612cc2565b916000526020600020900160008890919091509080519060200190612b1a929190612c42565b5050600260008154809291906001019190505550505050505050565b60006004826040518082805190602001908083835b602083101515612b705780518252602082019150602081019050602083039250612b4b565b6001836020036101000a0380198251168184511680821785525050505050509050019150509081526020016040518091039020600101549050919050565b828054600181600116156101000203166002900490600052602060002090601f016020900481019282601f10612bef57805160ff1916838001178555612c1d565b82800160010185558215612c1d579182015b82811115612c1c578251825591602001919060010190612c01565b5b509050612c2a9190612cee565b5090565b602060405190810160405280600081525090565b828054600181600116156101000203166002900490600052602060002090601f016020900481019282601f10612c8357805160ff1916838001178555612cb1565b82800160010185558215612cb1579182015b82811115612cb0578251825591602001919060010190612c95565b5b509050612cbe9190612cee565b5090565b815481835581811511612ce957818360005260206000209182019101612ce89190612d13565b5b505050565b612d1091905b80821115612d0c576000816000905550600101612cf4565b5090565b90565b612d3c91905b80821115612d385760008181612d2f9190612d3f565b50600101612d19565b5090565b90565b50805460018160011615610100020316600290046000825580601f10612d655750612d84565b601f016020900490600052602060002090810190612d839190612cee565b5b505600a165627a7a7230582087ef8b3620551a0c12e23eef5491ccb9afdd9665d229717a33add54b724170f90029",
  "source": "pragma solidity ^0.4.2;\n\nimport './AccessRestricted.sol';\nimport './TimeStamping.sol';\n\ncontract Patenting is AccessRestricted {\n\n    uint public patentPrice;\n    uint public patentCount;\n\n    enum RequestStatus {Not_requested, Pending, Rejected, Cancelled, Accepted}\n\n    /*Struct for request */\n    struct Request {\n        RequestStatus status;\n        uint deposit;\n        string encryptionKey;\n        string encryptedIpfsKey;\n    }\n\n    /*Struct for patent*/\n    struct Patent {\n        address owner;\n        uint timestamp;\n        string patentHash;\n        uint price;\n        string ipfs;\n        string email;\n        uint numRequests;\n        mapping(uint => address) buyers;\n        mapping(address => Request) requests;\n    }\n\n    string[] public patentNames;\n    mapping(string => Patent) private patents; //PatentName to struct\n\n    event NewRequest(\n        string _ownerMail,\n        string _patentName,\n        address _rentee\n    );\n\n    /* Constructor of the contract\n    * {param} uint : The price for depositing a pattern in Wei\n    */\n    function Patenting(uint _patentPrice) public {\n        patentPrice = _patentPrice;\n    }\n\n    /* Function to deposit a pattern\n    * {params} the patent parameters\n    * {costs} the price of a patent\n    */\n    function depositPatent(string _patentName, string _patentHash, uint _price, string _ipfs, string _email) public payable costs(patentPrice) {\n        require(patents[_patentName].timestamp == 0);\n        patents[_patentName] = Patent(msg.sender, now, _patentHash, _price, _ipfs, _email, 0);\n        patentNames.push(_patentName);\n        patentCount++;\n    }\n\n    /* Function to request access to a patent\n    * {params} _patentName : name of patent\n    *          _encryptionKey : key to encrypt AES key with (key exchange protocol)\n    * {costs} price of the patent : will be frozen until request is accepted, rejected, or cancelled\n    */\n    function requestAccess(string _patentName, string _encryptionKey) public payable {\n        require(patents[_patentName].timestamp != 0 && canRequest(_patentName, msg.sender) && msg.value >= patents[_patentName].price);\n        Patent storage p = patents[_patentName];\n        if (p.requests[msg.sender].status == RequestStatus.Not_requested){\n            p.buyers[p.numRequests++] = msg.sender;\n        }\n        p.requests[msg.sender] = Request(RequestStatus.Pending, patents[_patentName].price, _encryptionKey, \"\");\n    }\n\n    /* Function to grant access to a user\n    * {params} _patentName : name of patent\n    *          _user : user to give access to (must have requested)\n    *          _encryptedIpfsKey : encrypted AES key to decrypt file on ipfs\n    *   Transfers the amount to the patent owner\n    */\n    function grantAccess(string _patentName, address _user, string _encryptedIpfsKey) public {\n        require(patents[_patentName].timestamp != 0 && isOwner(_patentName, msg.sender) && isPending(_patentName, _user));\n        Request storage r = patents[_patentName].requests[_user];\n        require(r.deposit == patents[_patentName].price);\n        msg.sender.transfer(r.deposit);\n        r.deposit = 0;\n        r.status = RequestStatus.Accepted; // Accept Request\n        r.encryptedIpfsKey = _encryptedIpfsKey;\n    }\n\n    /* Function to reject access to a patent\n    * {params} : Same as above\n    * Refunds the amount to the user\n    */\n    function rejectAccess(string _patentName, address _user) public {\n        require(patents[_patentName].timestamp != 0 && isOwner(_patentName, msg.sender) && isPending(_patentName, _user));\n        Request storage r = patents[_patentName].requests[_user];\n        require(r.deposit == patents[_patentName].price);\n        _user.transfer(r.deposit); // Refund back to user\n        r.deposit = 0;\n        r.status = RequestStatus.Rejected; // Reject Request\n    }\n\n    /* Function that cancels a request (can only be called by user)\n    * {params} : _patentName : name of patent\n    */\n    function cancelRequest(string _patentName) public {\n        require(patents[_patentName].timestamp != 0 && !isOwner(_patentName, msg.sender) && isPending(_patentName, msg.sender));\n        Request storage r = patents[_patentName].requests[msg.sender];\n        require(r.deposit == patents[_patentName].price);\n        msg.sender.transfer(r.deposit);\n        r.deposit = 0;\n        r.status = RequestStatus.Cancelled; // Cancel request\n    }\n\n    /*Allows the owner to withdraw the remaining funds*/\n    function withdrawFunds() public onlyOwner {\n        owner.transfer(address(this).balance);\n    }\n\n    /*-----------------------------------View functions that do not require transactions-----------------------------------*/\n\n    function canRequest(string _patentName, address _account) public view returns (bool){\n        return !(isPending(_patentName, _account) || isAccepted(_patentName, _account) || isOwner(_patentName, _account));\n    }\n\n    function getRequestStatus(string _patentName, address _account) public view returns (RequestStatus){\n        return patents[_patentName].requests[_account].status;\n    }\n\n    /*Returns true of the given account hasn't requested the given patent*/\n    function isNotRequested(string _patentName, address _account) public view returns (bool){\n        return patents[_patentName].requests[_account].status == RequestStatus.Not_requested;\n    }\n\n    /*Returns tru of the given account has a pending request on the given patent*/\n    function isPending(string _patentName, address _account) public view returns (bool){\n        return patents[_patentName].requests[_account].status == RequestStatus.Pending;\n    }\n\n    /*Verifies that the given address has been accepted for the given patent*/\n    function isAccepted(string _patentName, address _account) public view returns (bool){\n        return patents[_patentName].requests[_account].status == RequestStatus.Accepted;\n    }\n\n    /*Returns true if account is owner of given patent*/\n    function isOwner(string _patentName, address _account) public view returns (bool){\n        return getPatentOwner(_patentName) == _account;\n    }\n\n    /*Returns time-stamp of the Patent*/\n    function getTimeStamp(string _patentName) public view returns (uint){\n        return patents[_patentName].timestamp;\n    }\n\n    /*Returns the sha256 hash of the patent*/\n    function getPatentHash(string _patentName) public view returns (string){\n        return patents[_patentName].patentHash;\n    }\n\n    /*Returns patent's owner*/\n    function getPatentOwner(string _patentName) public view returns (address) {\n        return patents[_patentName].owner;\n    }\n\n    /*Returns the price of a patent*/\n    function getPrice(string _patentName) public view returns (uint){\n        return patents[_patentName].price;\n    }\n\n    function getNumRequests(string _patentName) public view returns (uint){\n        return patents[_patentName].numRequests;\n    }\n\n    /*Returns the address of the buyer at _index  (Used for iterating)*/\n    function getBuyers(string _patentName, uint _index) public view returns (address){\n        return patents[_patentName].buyers[_index];\n    }\n\n    function getEncryptionKey(string _patentName, address _user) public view returns (string){\n        require(msg.sender == patents[_patentName].owner);\n        return patents[_patentName].requests[_user].encryptionKey;\n    }\n    function getEncryptedIpfsKey(string _patentName) public view returns (string){\n        require(isAccepted(_patentName, msg.sender));\n        return patents[_patentName].requests[msg.sender].encryptedIpfsKey;\n    }\n\n    /*Returns the IPFS location of the patent*/\n    function getPatentLocation(string _patentName) public view returns (string) {\n        return patents[_patentName].ipfs;\n    }\n}\n",
  "sourcePath": "/home/tarek/Documents/Master-DS/Semester-Project/DNA/Web-Applications/react-app/contracts/Patenting.sol",
  "compiler": {
    "name": "solc",
    "version": "0.4.19+commit.c4cbbb05.Emscripten.clang"
  },
  "schemaVersion": "2.0.0",
  "updatedAt": "2018-05-20T18:12:58.111Z"
}