{
  "contractName": "Patenting",
  "abi": [
    {
      "constant": true,
      "inputs": [],
      "name": "patentPrice",
      "outputs": [
        {
          "name": "",
          "type": "uint256"
        }
      ],
      "payable": false,
      "stateMutability": "view",
      "type": "function"
    },
    {
      "constant": true,
      "inputs": [
        {
          "name": "",
          "type": "uint256"
        }
      ],
      "name": "patentNames",
      "outputs": [
        {
          "name": "",
          "type": "string"
        }
      ],
      "payable": false,
      "stateMutability": "view",
      "type": "function"
    },
    {
      "constant": true,
      "inputs": [],
      "name": "owner",
      "outputs": [
        {
          "name": "",
          "type": "address"
        }
      ],
      "payable": false,
      "stateMutability": "view",
      "type": "function"
    },
    {
      "constant": false,
      "inputs": [
        {
          "name": "_newOwner",
          "type": "address"
        }
      ],
      "name": "changeOwner",
      "outputs": [],
      "payable": false,
      "stateMutability": "nonpayable",
      "type": "function"
    },
    {
      "constant": true,
      "inputs": [],
      "name": "patentCount",
      "outputs": [
        {
          "name": "",
          "type": "uint256"
        }
      ],
      "payable": false,
      "stateMutability": "view",
      "type": "function"
    },
    {
      "inputs": [
        {
          "name": "_patentPrice",
          "type": "uint256"
        }
      ],
      "payable": false,
      "stateMutability": "nonpayable",
      "type": "constructor"
    },
    {
      "anonymous": false,
      "inputs": [
        {
          "indexed": false,
          "name": "_ownerMail",
          "type": "string"
        },
        {
          "indexed": false,
          "name": "_patentName",
          "type": "string"
        },
        {
          "indexed": false,
          "name": "_rentee",
          "type": "address"
        }
      ],
      "name": "NewRequest",
      "type": "event"
    },
    {
      "constant": false,
      "inputs": [
        {
          "name": "_patentName",
          "type": "string"
        },
        {
          "name": "_patentHash",
          "type": "string"
        },
        {
          "name": "_price",
          "type": "uint256"
        },
        {
          "name": "_ipfs",
          "type": "string"
        },
        {
          "name": "_email",
          "type": "string"
        }
      ],
      "name": "depositPatent",
      "outputs": [],
      "payable": true,
      "stateMutability": "payable",
      "type": "function"
    },
    {
      "constant": false,
      "inputs": [
        {
          "name": "_patentName",
          "type": "string"
        },
        {
          "name": "_encryptionKey",
          "type": "string"
        }
      ],
      "name": "requestAccess",
      "outputs": [],
      "payable": true,
      "stateMutability": "payable",
      "type": "function"
    },
    {
      "constant": false,
      "inputs": [
        {
          "name": "_patentName",
          "type": "string"
        }
      ],
      "name": "resendRequest",
      "outputs": [],
      "payable": true,
      "stateMutability": "payable",
      "type": "function"
    },
    {
      "constant": false,
      "inputs": [
        {
          "name": "_patentName",
          "type": "string"
        },
        {
          "name": "_user",
          "type": "address"
        },
        {
          "name": "_encryptedIpfsKey",
          "type": "string"
        }
      ],
      "name": "grantAccess",
      "outputs": [],
      "payable": false,
      "stateMutability": "nonpayable",
      "type": "function"
    },
    {
      "constant": false,
      "inputs": [
        {
          "name": "_patentName",
          "type": "string"
        },
        {
          "name": "_user",
          "type": "address"
        }
      ],
      "name": "rejectAccess",
      "outputs": [],
      "payable": false,
      "stateMutability": "nonpayable",
      "type": "function"
    },
    {
      "constant": false,
      "inputs": [
        {
          "name": "_patentName",
          "type": "string"
        }
      ],
      "name": "cancelRequest",
      "outputs": [],
      "payable": false,
      "stateMutability": "nonpayable",
      "type": "function"
    },
    {
      "constant": false,
      "inputs": [],
      "name": "withdrawFunds",
      "outputs": [],
      "payable": false,
      "stateMutability": "nonpayable",
      "type": "function"
    },
    {
      "constant": true,
      "inputs": [
        {
          "name": "_patentName",
          "type": "string"
        },
        {
          "name": "_account",
          "type": "address"
        }
      ],
      "name": "canRequest",
      "outputs": [
        {
          "name": "",
          "type": "bool"
        }
      ],
      "payable": false,
      "stateMutability": "view",
      "type": "function"
    },
    {
      "constant": true,
      "inputs": [
        {
          "name": "_patentName",
          "type": "string"
        },
        {
          "name": "_account",
          "type": "address"
        }
      ],
      "name": "getRequestStatus",
      "outputs": [
        {
          "name": "",
          "type": "uint8"
        }
      ],
      "payable": false,
      "stateMutability": "view",
      "type": "function"
    },
    {
      "constant": true,
      "inputs": [
        {
          "name": "_patentName",
          "type": "string"
        },
        {
          "name": "_account",
          "type": "address"
        }
      ],
      "name": "isNotRequested",
      "outputs": [
        {
          "name": "",
          "type": "bool"
        }
      ],
      "payable": false,
      "stateMutability": "view",
      "type": "function"
    },
    {
      "constant": true,
      "inputs": [
        {
          "name": "_patentName",
          "type": "string"
        },
        {
          "name": "_account",
          "type": "address"
        }
      ],
      "name": "isPending",
      "outputs": [
        {
          "name": "",
          "type": "bool"
        }
      ],
      "payable": false,
      "stateMutability": "view",
      "type": "function"
    },
    {
      "constant": true,
      "inputs": [
        {
          "name": "_patentName",
          "type": "string"
        },
        {
          "name": "_account",
          "type": "address"
        }
      ],
      "name": "isAccepted",
      "outputs": [
        {
          "name": "",
          "type": "bool"
        }
      ],
      "payable": false,
      "stateMutability": "view",
      "type": "function"
    },
    {
      "constant": true,
      "inputs": [
        {
          "name": "_patentName",
          "type": "string"
        },
        {
          "name": "_account",
          "type": "address"
        }
      ],
      "name": "isOwner",
      "outputs": [
        {
          "name": "",
          "type": "bool"
        }
      ],
      "payable": false,
      "stateMutability": "view",
      "type": "function"
    },
    {
      "constant": true,
      "inputs": [
        {
          "name": "_patentName",
          "type": "string"
        }
      ],
      "name": "getTimeStamp",
      "outputs": [
        {
          "name": "",
          "type": "uint256"
        }
      ],
      "payable": false,
      "stateMutability": "view",
      "type": "function"
    },
    {
      "constant": true,
      "inputs": [
        {
          "name": "_patentName",
          "type": "string"
        }
      ],
      "name": "getPatentHash",
      "outputs": [
        {
          "name": "",
          "type": "string"
        }
      ],
      "payable": false,
      "stateMutability": "view",
      "type": "function"
    },
    {
      "constant": true,
      "inputs": [
        {
          "name": "_patentName",
          "type": "string"
        }
      ],
      "name": "getPatentOwner",
      "outputs": [
        {
          "name": "",
          "type": "address"
        }
      ],
      "payable": false,
      "stateMutability": "view",
      "type": "function"
    },
    {
      "constant": true,
      "inputs": [
        {
          "name": "_patentName",
          "type": "string"
        }
      ],
      "name": "getPrice",
      "outputs": [
        {
          "name": "",
          "type": "uint256"
        }
      ],
      "payable": false,
      "stateMutability": "view",
      "type": "function"
    },
    {
      "constant": true,
      "inputs": [
        {
          "name": "_patentName",
          "type": "string"
        }
      ],
      "name": "getNumRequests",
      "outputs": [
        {
          "name": "",
          "type": "uint256"
        }
      ],
      "payable": false,
      "stateMutability": "view",
      "type": "function"
    },
    {
      "constant": true,
      "inputs": [
        {
          "name": "_patentName",
          "type": "string"
        },
        {
          "name": "_index",
          "type": "uint256"
        }
      ],
      "name": "getBuyers",
      "outputs": [
        {
          "name": "",
          "type": "address"
        }
      ],
      "payable": false,
      "stateMutability": "view",
      "type": "function"
    },
    {
      "constant": true,
      "inputs": [
        {
          "name": "_patentName",
          "type": "string"
        },
        {
          "name": "_user",
          "type": "address"
        }
      ],
      "name": "getEncryptionKey",
      "outputs": [
        {
          "name": "",
          "type": "string"
        }
      ],
      "payable": false,
      "stateMutability": "view",
      "type": "function"
    },
    {
      "constant": true,
      "inputs": [
        {
          "name": "_patentName",
          "type": "string"
        }
      ],
      "name": "getEncryptedIpfsKey",
      "outputs": [
        {
          "name": "",
          "type": "string"
        }
      ],
      "payable": false,
      "stateMutability": "view",
      "type": "function"
    },
    {
      "constant": true,
      "inputs": [
        {
          "name": "_patentName",
          "type": "string"
        }
      ],
      "name": "getPatentLocation",
      "outputs": [
        {
          "name": "",
          "type": "string"
        }
      ],
      "payable": false,
      "stateMutability": "view",
      "type": "function"
    }
  ],
  "bytecode": "0x6060604052336000806101000a81548173ffffffffffffffffffffffffffffffffffffffff021916908373ffffffffffffffffffffffffffffffffffffffff160217905550341561004f57600080fd5b6040516020806132c5833981016040528080519060200190919050508060018190555050613243806100826000396000f30060606040526004361061015f576000357c0100000000000000000000000000000000000000000000000000000000900463ffffffff1680630638c22c1461016457806316157f6c1461018d57806316720cc2146102225780632294de45146102f857806324600fc31461038c57806341e14449146103a157806347ce3d6f1461043d578063524f3889146104d15780635d98dde8146105425780636038c63814610601578063607f9e87146106a757806365f8695e1461077d5780638da5cb5b1461081157806399d2618e14610866578063a302e8cd14610903578063a6966e25146109d9578063a6f9dae114610a55578063ad8c9dd614610a8e578063b084c84114610b83578063bde1eee714610bac578063be3e072214610c40578063e0cf4cc914610cd4578063e2f99c7e14610d45578063e489445d14610de3578063eb3e8bf814610e40578063fa52c7cc14610f64578063fd11ff4914610fd5575b600080fd5b341561016f57600080fd5b610177611027565b6040518082815260200191505060405180910390f35b610220600480803590602001908201803590602001908080601f0160208091040260200160405190810160405280939291908181526020018383808284378201915050505050509190803590602001908201803590602001908080601f0160208091040260200160405190810160405280939291908181526020018383808284378201915050505050509190505061102d565b005b341561022d57600080fd5b61027d600480803590602001908201803590602001908080601f016020809104026020016040519081016040528093929190818152602001838380828437820191505050505050919050506115a5565b6040518080602001828103825283818151815260200191508051906020019080838360005b838110156102bd5780820151818401526020810190506102a2565b50505050905090810190601f1680156102ea5780820380516001836020036101000a031916815260200191505b509250505060405180910390f35b341561030357600080fd5b610372600480803590602001908201803590602001908080601f0160208091040260200160405190810160405280939291908181526020018383808284378201915050505050509190803573ffffffffffffffffffffffffffffffffffffffff169060200190919050506116bb565b604051808215151515815260200191505060405180910390f35b341561039757600080fd5b61039f6116f2565b005b34156103ac57600080fd5b6103c260048080359060200190919050506117c7565b6040518080602001828103825283818151815260200191508051906020019080838360005b838110156104025780820151818401526020810190506103e7565b50505050905090810190601f16801561042f5780820380516001836020036101000a031916815260200191505b509250505060405180910390f35b341561044857600080fd5b6104b7600480803590602001908201803590602001908080601f0160208091040260200160405190810160405280939291908181526020018383808284378201915050505050509190803573ffffffffffffffffffffffffffffffffffffffff16906020019091905050611883565b604051808215151515815260200191505060405180910390f35b34156104dc57600080fd5b61052c600480803590602001908201803590602001908080601f01602080910402602001604051908101604052809392919081815260200183838082843782019150505050505091905050611961565b6040518082815260200191505060405180910390f35b341561054d57600080fd5b6105ff600480803590602001908201803590602001908080601f0160208091040260200160405190810160405280939291908181526020018383808284378201915050505050509190803573ffffffffffffffffffffffffffffffffffffffff1690602001909190803590602001908201803590602001908080601f016020809104026020016040519081016040528093929190818152602001838380828437820191505050505050919050506119d9565b005b341561060c57600080fd5b610665600480803590602001908201803590602001908080601f01602080910402602001604051908101604052809392919081815260200183838082843782019150505050505091908035906020019091905050611c3c565b604051808273ffffffffffffffffffffffffffffffffffffffff1673ffffffffffffffffffffffffffffffffffffffff16815260200191505060405180910390f35b34156106b257600080fd5b610702600480803590602001908201803590602001908080601f01602080910402602001604051908101604052809392919081815260200183838082843782019150505050505091905050611ce6565b6040518080602001828103825283818151815260200191508051906020019080838360005b83811015610742578082015181840152602081019050610727565b50505050905090810190601f16801561076f5780820380516001836020036101000a031916815260200191505b509250505060405180910390f35b341561078857600080fd5b6107f7600480803590602001908201803590602001908080601f0160208091040260200160405190810160405280939291908181526020018383808284378201915050505050509190803573ffffffffffffffffffffffffffffffffffffffff16906020019091905050611dfc565b604051808215151515815260200191505060405180910390f35b341561081c57600080fd5b610824611eda565b604051808273ffffffffffffffffffffffffffffffffffffffff1673ffffffffffffffffffffffffffffffffffffffff16815260200191505060405180910390f35b341561087157600080fd5b6108c1600480803590602001908201803590602001908080601f01602080910402602001604051908101604052809392919081815260200183838082843782019150505050505091905050611eff565b604051808273ffffffffffffffffffffffffffffffffffffffff1673ffffffffffffffffffffffffffffffffffffffff16815260200191505060405180910390f35b341561090e57600080fd5b61095e600480803590602001908201803590602001908080601f01602080910402602001604051908101604052809392919081815260200183838082843782019150505050505091905050611f97565b6040518080602001828103825283818151815260200191508051906020019080838360005b8381101561099e578082015181840152602081019050610983565b50505050905090810190601f1680156109cb5780820380516001836020036101000a031916815260200191505b509250505060405180910390f35b34156109e457600080fd5b610a53600480803590602001908201803590602001908080601f0160208091040260200160405190810160405280939291908181526020018383808284378201915050505050509190803573ffffffffffffffffffffffffffffffffffffffff16906020019091905050612102565b005b3415610a6057600080fd5b610a8c600480803573ffffffffffffffffffffffffffffffffffffffff1690602001909190505061234b565b005b3415610a9957600080fd5b610b08600480803590602001908201803590602001908080601f0160208091040260200160405190810160405280939291908181526020018383808284378201915050505050509190803573ffffffffffffffffffffffffffffffffffffffff169060200190919050506123e9565b6040518080602001828103825283818151815260200191508051906020019080838360005b83811015610b48578082015181840152602081019050610b2d565b50505050905090810190601f168015610b755780820380516001836020036101000a031916815260200191505b509250505060405180910390f35b3415610b8e57600080fd5b610b96612608565b6040518082815260200191505060405180910390f35b3415610bb757600080fd5b610c26600480803590602001908201803590602001908080601f0160208091040260200160405190810160405280939291908181526020018383808284378201915050505050509190803573ffffffffffffffffffffffffffffffffffffffff1690602001909190505061260e565b604051808215151515815260200191505060405180910390f35b3415610c4b57600080fd5b610cba600480803590602001908201803590602001908080601f0160208091040260200160405190810160405280939291908181526020018383808284378201915050505050509190803573ffffffffffffffffffffffffffffffffffffffff1690602001909190505061264f565b604051808215151515815260200191505060405180910390f35b3415610cdf57600080fd5b610d2f600480803590602001908201803590602001908080601f0160208091040260200160405190810160405280939291908181526020018383808284378201915050505050509190505061272e565b6040518082815260200191505060405180910390f35b3415610d5057600080fd5b610dbf600480803590602001908201803590602001908080601f0160208091040260200160405190810160405280939291908181526020018383808284378201915050505050509190803573ffffffffffffffffffffffffffffffffffffffff169060200190919050506127a6565b60405180826004811115610dcf57fe5b60ff16815260200191505060405180910390f35b3415610dee57600080fd5b610e3e600480803590602001908201803590602001908080601f0160208091040260200160405190810160405280939291908181526020018383808284378201915050505050509190505061286c565b005b610f62600480803590602001908201803590602001908080601f0160208091040260200160405190810160405280939291908181526020018383808284378201915050505050509190803590602001908201803590602001908080601f0160208091040260200160405190810160405280939291908181526020018383808284378201915050505050509190803590602001909190803590602001908201803590602001908080601f0160208091040260200160405190810160405280939291908181526020018383808284378201915050505050509190803590602001908201803590602001908080601f01602080910402602001604051908101604052809392919081815260200183838082843782019150505050505091905050612ab5565b005b3415610f6f57600080fd5b610fbf600480803590602001908201803590602001908080601f01602080910402602001604051908101604052809392919081815260200183838082843782019150505050505091905050612d5a565b6040518082815260200191505060405180910390f35b611025600480803590602001908201803590602001908080601f01602080910402602001604051908101604052809392919081815260200183838082843782019150505050505091905050612dd2565b005b60015481565b6000806004846040518082805190602001908083835b6020831015156110685780518252602082019150602081019050602083039250611043565b6001836020036101000a038019825116818451168082178552505050505050905001915050908152602001604051809103902060010154141580156110b357506110b283336116bb565b5b801561112d57506004836040518082805190602001908083835b6020831015156110f257805182526020820191506020810190506020830392506110cd565b6001836020036101000a0380198251168184511680821785525050505050509050019150509081526020016040518091039020600301543410155b151561113857600080fd5b6004836040518082805190602001908083835b602083101515611170578051825260208201915060208101905060208303925061114b565b6001836020036101000a03801982511681845116808217855250505050505090500191505090815260200160405180910390209050600060048111156111b257fe5b8160080160003373ffffffffffffffffffffffffffffffffffffffff1673ffffffffffffffffffffffffffffffffffffffff16815260200190815260200160002060000160009054906101000a900460ff16600481111561120f57fe5b141561127c573381600701600083600601600081548092919060010191905055815260200190815260200160002060006101000a81548173ffffffffffffffffffffffffffffffffffffffff021916908373ffffffffffffffffffffffffffffffffffffffff1602179055505b6080604051908101604052806001600481111561129557fe5b81526020016004856040518082805190602001908083835b6020831015156112d257805182526020820191506020810190506020830392506112ad565b6001836020036101000a038019825116818451168082178552505050505050905001915050908152602001604051809103902060030154815260200183815260200160206040519081016040528060008152508152508160080160003373ffffffffffffffffffffffffffffffffffffffff1673ffffffffffffffffffffffffffffffffffffffff16815260200190815260200160002060008201518160000160006101000a81548160ff0219169083600481111561138d57fe5b02179055506020820151816001015560408201518160020190805190602001906113b892919061303e565b5060608201518160030190805190602001906113d592919061303e565b509050507f7e558bb9898d8d17809158db6c967a8ea47d93a15a5d359a1186352a086cfb7c6004846040518082805190602001908083835b602083101515611432578051825260208201915060208101905060208303925061140d565b6001836020036101000a038019825116818451168082178552505050505050905001915050908152602001604051809103902060050184336040518080602001806020018473ffffffffffffffffffffffffffffffffffffffff1673ffffffffffffffffffffffffffffffffffffffff1681526020018381038352868181546001816001161561010002031660029004815260200191508054600181600116156101000203166002900480156115295780601f106114fe57610100808354040283529160200191611529565b820191906000526020600020905b81548152906001019060200180831161150c57829003601f168201915b5050838103825285818151815260200191508051906020019080838360005b83811015611563578082015181840152602081019050611548565b50505050905090810190601f1680156115905780820380516001836020036101000a031916815260200191505b509550505050505060405180910390a1505050565b6115ad6130be565b6004826040518082805190602001908083835b6020831015156115e557805182526020820191506020810190506020830392506115c0565b6001836020036101000a03801982511681845116808217855250505050505090500191505090815260200160405180910390206002018054600181600116156101000203166002900480601f0160208091040260200160405190810160405280929190818152602001828054600181600116156101000203166002900480156116af5780601f10611684576101008083540402835291602001916116af565b820191906000526020600020905b81548152906001019060200180831161169257829003601f168201915b50505050509050919050565b60006116c7838361264f565b806116d857506116d78383611dfc565b5b806116e957506116e8838361260e565b5b15905092915050565b6000809054906101000a900473ffffffffffffffffffffffffffffffffffffffff1673ffffffffffffffffffffffffffffffffffffffff163373ffffffffffffffffffffffffffffffffffffffff1614151561174d57600080fd5b6000809054906101000a900473ffffffffffffffffffffffffffffffffffffffff1673ffffffffffffffffffffffffffffffffffffffff166108fc3073ffffffffffffffffffffffffffffffffffffffff16319081150290604051600060405180830381858888f1935050505015156117c557600080fd5b565b6003818154811015156117d657fe5b90600052602060002090016000915090508054600181600116156101000203166002900480601f01602080910402602001604051908101604052809291908181526020018280546001816001161561010002031660029004801561187b5780601f106118505761010080835404028352916020019161187b565b820191906000526020600020905b81548152906001019060200180831161185e57829003601f168201915b505050505081565b600080600481111561189157fe5b6004846040518082805190602001908083835b6020831015156118c957805182526020820191506020810190506020830392506118a4565b6001836020036101000a038019825116818451168082178552505050505050905001915050908152602001604051809103902060080160008473ffffffffffffffffffffffffffffffffffffffff1673ffffffffffffffffffffffffffffffffffffffff16815260200190815260200160002060000160009054906101000a900460ff16600481111561195857fe5b14905092915050565b60006004826040518082805190602001908083835b60208310151561199b5780518252602082019150602081019050602083039250611976565b6001836020036101000a0380198251168184511680821785525050505050509050019150509081526020016040518091039020600301549050919050565b6000806004856040518082805190602001908083835b602083101515611a1457805182526020820191506020810190506020830392506119ef565b6001836020036101000a03801982511681845116808217855250505050505090500191505090815260200160405180910390206001015414158015611a5f5750611a5e843361260e565b5b8015611a715750611a70848461264f565b5b1515611a7c57600080fd5b6004846040518082805190602001908083835b602083101515611ab45780518252602082019150602081019050602083039250611a8f565b6001836020036101000a038019825116818451168082178552505050505050905001915050908152602001604051809103902060080160008473ffffffffffffffffffffffffffffffffffffffff1673ffffffffffffffffffffffffffffffffffffffff16815260200190815260200160002090506004846040518082805190602001908083835b602083101515611b615780518252602082019150602081019050602083039250611b3c565b6001836020036101000a0380198251168184511680821785525050505050509050019150509081526020016040518091039020600301548160010154141515611ba957600080fd5b3373ffffffffffffffffffffffffffffffffffffffff166108fc82600101549081150290604051600060405180830381858888f193505050501515611bed57600080fd5b6000816001018190555060048160000160006101000a81548160ff02191690836004811115611c1857fe5b021790555081816003019080519060200190611c359291906130d2565b5050505050565b60006004836040518082805190602001908083835b602083101515611c765780518252602082019150602081019050602083039250611c51565b6001836020036101000a0380198251168184511680821785525050505050509050019150509081526020016040518091039020600701600083815260200190815260200160002060009054906101000a900473ffffffffffffffffffffffffffffffffffffffff16905092915050565b611cee6130be565b6004826040518082805190602001908083835b602083101515611d265780518252602082019150602081019050602083039250611d01565b6001836020036101000a03801982511681845116808217855250505050505090500191505090815260200160405180910390206004018054600181600116156101000203166002900480601f016020809104026020016040519081016040528092919081815260200182805460018160011615610100020316600290048015611df05780601f10611dc557610100808354040283529160200191611df0565b820191906000526020600020905b815481529060010190602001808311611dd357829003601f168201915b50505050509050919050565b6000600480811115611e0a57fe5b6004846040518082805190602001908083835b602083101515611e425780518252602082019150602081019050602083039250611e1d565b6001836020036101000a038019825116818451168082178552505050505050905001915050908152602001604051809103902060080160008473ffffffffffffffffffffffffffffffffffffffff1673ffffffffffffffffffffffffffffffffffffffff16815260200190815260200160002060000160009054906101000a900460ff166004811115611ed157fe5b14905092915050565b6000809054906101000a900473ffffffffffffffffffffffffffffffffffffffff1681565b60006004826040518082805190602001908083835b602083101515611f395780518252602082019150602081019050602083039250611f14565b6001836020036101000a038019825116818451168082178552505050505050905001915050908152602001604051809103902060000160009054906101000a900473ffffffffffffffffffffffffffffffffffffffff169050919050565b611f9f6130be565b611fa98233611dfc565b1515611fb457600080fd5b6004826040518082805190602001908083835b602083101515611fec5780518252602082019150602081019050602083039250611fc7565b6001836020036101000a038019825116818451168082178552505050505050905001915050908152602001604051809103902060080160003373ffffffffffffffffffffffffffffffffffffffff1673ffffffffffffffffffffffffffffffffffffffff1681526020019081526020016000206003018054600181600116156101000203166002900480601f0160208091040260200160405190810160405280929190818152602001828054600181600116156101000203166002900480156120f65780601f106120cb576101008083540402835291602001916120f6565b820191906000526020600020905b8154815290600101906020018083116120d957829003601f168201915b50505050509050919050565b6000806004846040518082805190602001908083835b60208310151561213d5780518252602082019150602081019050602083039250612118565b6001836020036101000a038019825116818451168082178552505050505050905001915050908152602001604051809103902060010154141580156121885750612187833361260e565b5b801561219a5750612199838361264f565b5b15156121a557600080fd5b6004836040518082805190602001908083835b6020831015156121dd57805182526020820191506020810190506020830392506121b8565b6001836020036101000a038019825116818451168082178552505050505050905001915050908152602001604051809103902060080160008373ffffffffffffffffffffffffffffffffffffffff1673ffffffffffffffffffffffffffffffffffffffff16815260200190815260200160002090506004836040518082805190602001908083835b60208310151561228a5780518252602082019150602081019050602083039250612265565b6001836020036101000a03801982511681845116808217855250505050505090500191505090815260200160405180910390206003015481600101541415156122d257600080fd5b8173ffffffffffffffffffffffffffffffffffffffff166108fc82600101549081150290604051600060405180830381858888f19350505050151561231657600080fd5b6000816001018190555060028160000160006101000a81548160ff0219169083600481111561234157fe5b0217905550505050565b6000809054906101000a900473ffffffffffffffffffffffffffffffffffffffff1673ffffffffffffffffffffffffffffffffffffffff163373ffffffffffffffffffffffffffffffffffffffff161415156123a657600080fd5b806000806101000a81548173ffffffffffffffffffffffffffffffffffffffff021916908373ffffffffffffffffffffffffffffffffffffffff16021790555050565b6123f16130be565b6004836040518082805190602001908083835b6020831015156124295780518252602082019150602081019050602083039250612404565b6001836020036101000a038019825116818451168082178552505050505050905001915050908152602001604051809103902060000160009054906101000a900473ffffffffffffffffffffffffffffffffffffffff1673ffffffffffffffffffffffffffffffffffffffff163373ffffffffffffffffffffffffffffffffffffffff161415156124b957600080fd5b6004836040518082805190602001908083835b6020831015156124f157805182526020820191506020810190506020830392506124cc565b6001836020036101000a038019825116818451168082178552505050505050905001915050908152602001604051809103902060080160008373ffffffffffffffffffffffffffffffffffffffff1673ffffffffffffffffffffffffffffffffffffffff1681526020019081526020016000206002018054600181600116156101000203166002900480601f0160208091040260200160405190810160405280929190818152602001828054600181600116156101000203166002900480156125fb5780601f106125d0576101008083540402835291602001916125fb565b820191906000526020600020905b8154815290600101906020018083116125de57829003601f168201915b5050505050905092915050565b60025481565b60008173ffffffffffffffffffffffffffffffffffffffff1661263084611eff565b73ffffffffffffffffffffffffffffffffffffffff1614905092915050565b60006001600481111561265e57fe5b6004846040518082805190602001908083835b6020831015156126965780518252602082019150602081019050602083039250612671565b6001836020036101000a038019825116818451168082178552505050505050905001915050908152602001604051809103902060080160008473ffffffffffffffffffffffffffffffffffffffff1673ffffffffffffffffffffffffffffffffffffffff16815260200190815260200160002060000160009054906101000a900460ff16600481111561272557fe5b14905092915050565b60006004826040518082805190602001908083835b6020831015156127685780518252602082019150602081019050602083039250612743565b6001836020036101000a0380198251168184511680821785525050505050509050019150509081526020016040518091039020600601549050919050565b60006004836040518082805190602001908083835b6020831015156127e057805182526020820191506020810190506020830392506127bb565b6001836020036101000a038019825116818451168082178552505050505050905001915050908152602001604051809103902060080160008373ffffffffffffffffffffffffffffffffffffffff1673ffffffffffffffffffffffffffffffffffffffff16815260200190815260200160002060000160009054906101000a900460ff16905092915050565b6000806004836040518082805190602001908083835b6020831015156128a75780518252602082019150602081019050602083039250612882565b6001836020036101000a038019825116818451168082178552505050505050905001915050908152602001604051809103902060010154141580156128f357506128f1823361260e565b155b80156129055750612904823361264f565b5b151561291057600080fd5b6004826040518082805190602001908083835b6020831015156129485780518252602082019150602081019050602083039250612923565b6001836020036101000a038019825116818451168082178552505050505050905001915050908152602001604051809103902060080160003373ffffffffffffffffffffffffffffffffffffffff1673ffffffffffffffffffffffffffffffffffffffff16815260200190815260200160002090506004826040518082805190602001908083835b6020831015156129f557805182526020820191506020810190506020830392506129d0565b6001836020036101000a0380198251168184511680821785525050505050509050019150509081526020016040518091039020600301548160010154141515612a3d57600080fd5b3373ffffffffffffffffffffffffffffffffffffffff166108fc82600101549081150290604051600060405180830381858888f193505050501515612a8157600080fd5b6000816001018190555060038160000160006101000a81548160ff02191690836004811115612aac57fe5b02179055505050565b600154803410151515612ac757600080fd5b80341115612b12573373ffffffffffffffffffffffffffffffffffffffff166108fc8234039081150290604051600060405180830381858888f193505050501515612b1157600080fd5b5b60006004876040518082805190602001908083835b602083101515612b4c5780518252602082019150602081019050602083039250612b27565b6001836020036101000a038019825116818451168082178552505050505050905001915050908152602001604051809103902060010154141515612b8f57600080fd5b60e0604051908101604052803373ffffffffffffffffffffffffffffffffffffffff16815260200142815260200186815260200185815260200184815260200183815260200160008152506004876040518082805190602001908083835b602083101515612c125780518252602082019150602081019050602083039250612bed565b6001836020036101000a038019825116818451168082178552505050505050905001915050908152602001604051809103902060008201518160000160006101000a81548173ffffffffffffffffffffffffffffffffffffffff021916908373ffffffffffffffffffffffffffffffffffffffff160217905550602082015181600101556040820151816002019080519060200190612cb292919061303e565b50606082015181600301556080820151816004019080519060200190612cd992919061303e565b5060a0820151816005019080519060200190612cf692919061303e565b5060c0820151816006015590505060038054806001018281612d189190613152565b916000526020600020900160008890919091509080519060200190612d3e9291906130d2565b5050600260008154809291906001019190505550505050505050565b60006004826040518082805190602001908083835b602083101515612d945780518252602082019150602081019050602083039250612d6f565b6001836020036101000a0380198251168184511680821785525050505050509050019150509081526020016040518091039020600101549050919050565b6000806004836040518082805190602001908083835b602083101515612e0d5780518252602082019150602081019050602083039250612de8565b6001836020036101000a03801982511681845116808217855250505050505090500191505090815260200160405180910390206001015414158015612e585750612e5782336116bb565b5b8015612ed257506004826040518082805190602001908083835b602083101515612e975780518252602082019150602081019050602083039250612e72565b6001836020036101000a0380198251168184511680821785525050505050509050019150509081526020016040518091039020600301543410155b8015612ee55750612ee38233611883565b155b1515612ef057600080fd5b6004826040518082805190602001908083835b602083101515612f285780518252602082019150602081019050602083039250612f03565b6001836020036101000a038019825116818451168082178552505050505050905001915050908152602001604051809103902060080160003373ffffffffffffffffffffffffffffffffffffffff1673ffffffffffffffffffffffffffffffffffffffff168152602001908152602001600020905060018160000160006101000a81548160ff02191690836004811115612fbe57fe5b02179055506004826040518082805190602001908083835b602083101515612ffb5780518252602082019150602081019050602083039250612fd6565b6001836020036101000a03801982511681845116808217855250505050505090500191505090815260200160405180910390206003015481600101819055505050565b828054600181600116156101000203166002900490600052602060002090601f016020900481019282601f1061307f57805160ff19168380011785556130ad565b828001600101855582156130ad579182015b828111156130ac578251825591602001919060010190613091565b5b5090506130ba919061317e565b5090565b602060405190810160405280600081525090565b828054600181600116156101000203166002900490600052602060002090601f016020900481019282601f1061311357805160ff1916838001178555613141565b82800160010185558215613141579182015b82811115613140578251825591602001919060010190613125565b5b50905061314e919061317e565b5090565b8154818355818115116131795781836000526020600020918201910161317891906131a3565b5b505050565b6131a091905b8082111561319c576000816000905550600101613184565b5090565b90565b6131cc91905b808211156131c857600081816131bf91906131cf565b506001016131a9565b5090565b90565b50805460018160011615610100020316600290046000825580601f106131f55750613214565b601f016020900490600052602060002090810190613213919061317e565b5b505600a165627a7a7230582085eb2706dc9d857b26e8523cad8302b0e64c06c67a55a3b8fa5f57f18b1ae9330029",
  "source": "pragma solidity ^0.4.2;\n\nimport './AccessRestricted.sol';\nimport './TimeStamping.sol';\n\ncontract Patenting is AccessRestricted {\n\n    uint public patentPrice;\n    uint public patentCount;\n\n    enum RequestStatus {Not_requested, Pending, Rejected, Cancelled, Accepted}\n\n    /*Struct for request */\n    struct Request {\n        RequestStatus status;\n        uint deposit;\n        string encryptionKey;\n        string encryptedIpfsKey;\n    }\n\n    /*Struct for patent*/\n    struct Patent {\n        address owner;\n        uint timestamp;\n        string patentHash;\n        uint price;\n        string ipfs;\n        string email;\n        uint numRequests;\n        mapping(uint => address) buyers;\n        mapping(address => Request) requests;\n    }\n\n    string[] public patentNames;\n    mapping(string => Patent) private patents; //PatentName to struct\n\n    event NewRequest(\n        string _ownerMail,\n        string _patentName,\n        address _rentee\n    );\n\n    /* Constructor of the contract\n    * {param} uint : The price for depositing a pattern in Wei\n    */\n    function Patenting(uint _patentPrice) public {\n        patentPrice = _patentPrice;\n    }\n\n    /* Function to deposit a pattern\n    * {params} the patent parameters\n    * {costs} the price of a patent\n    */\n    function depositPatent(string _patentName, string _patentHash, uint _price, string _ipfs, string _email) public payable costs(patentPrice) {\n        require(patents[_patentName].timestamp == 0);\n        patents[_patentName] = Patent(msg.sender, now, _patentHash, _price, _ipfs, _email, 0);\n        patentNames.push(_patentName);\n        patentCount++;\n    }\n\n    /* Function to request access to a patent\n    * {params} _patentName : name of patent\n    *          _encryptionKey : key to encrypt AES key with (key exchange protocol)\n    * {costs} price of the patent : will be frozen until request is accepted, rejected, or cancelled\n    */\n    function requestAccess(string _patentName, string _encryptionKey) public payable {\n        require(patents[_patentName].timestamp != 0 && canRequest(_patentName, msg.sender) && msg.value >= patents[_patentName].price);\n        Patent storage p = patents[_patentName];\n        if (p.requests[msg.sender].status == RequestStatus.Not_requested) {\n            p.buyers[p.numRequests++] = msg.sender;\n        }\n        p.requests[msg.sender] = Request(RequestStatus.Pending, patents[_patentName].price, _encryptionKey, \"\");\n        NewRequest(patents[_patentName].email, _patentName, msg.sender);\n    }\n\n    function resendRequest(string _patentName) public payable {\n        require(patents[_patentName].timestamp != 0 && canRequest(_patentName, msg.sender) && msg.value >= patents[_patentName].price && !isNotRequested(_patentName, msg.sender));\n        Request storage r = patents[_patentName].requests[msg.sender];\n        r.status = RequestStatus.Pending;\n        r.deposit = patents[_patentName].price;\n    }\n\n    /* Function to grant access to a user\n    * {params} _patentName : name of patent\n    *          _user : user to give access to (must have requested)\n    *          _encryptedIpfsKey : encrypted AES key to decrypt file on ipfs\n    *   Transfers the amount to the patent owner\n    */\n    function grantAccess(string _patentName, address _user, string _encryptedIpfsKey) public {\n        require(patents[_patentName].timestamp != 0 && isOwner(_patentName, msg.sender) && isPending(_patentName, _user));\n        Request storage r = patents[_patentName].requests[_user];\n        require(r.deposit == patents[_patentName].price);\n        msg.sender.transfer(r.deposit);\n        r.deposit = 0;\n        r.status = RequestStatus.Accepted;\n        // Accept Request\n        r.encryptedIpfsKey = _encryptedIpfsKey;\n    }\n\n    /* Function to reject access to a patent\n    * {params} : Same as above\n    * Refunds the amount to the user\n    */\n    function rejectAccess(string _patentName, address _user) public {\n        require(patents[_patentName].timestamp != 0 && isOwner(_patentName, msg.sender) && isPending(_patentName, _user));\n        Request storage r = patents[_patentName].requests[_user];\n        require(r.deposit == patents[_patentName].price);\n        _user.transfer(r.deposit);\n        // Refund back to user\n        r.deposit = 0;\n        r.status = RequestStatus.Rejected;\n        // Reject Request\n    }\n\n    /* Function that cancels a request (can only be called by user)\n    * {params} : _patentName : name of patent\n    */\n    function cancelRequest(string _patentName) public {\n        require(patents[_patentName].timestamp != 0 && !isOwner(_patentName, msg.sender) && isPending(_patentName, msg.sender));\n        Request storage r = patents[_patentName].requests[msg.sender];\n        require(r.deposit == patents[_patentName].price);\n        msg.sender.transfer(r.deposit);\n        r.deposit = 0;\n        r.status = RequestStatus.Cancelled;\n        // Cancel request\n    }\n\n    /*Allows the owner to withdraw the remaining funds*/\n    function withdrawFunds() public onlyOwner {\n        owner.transfer(address(this).balance);\n    }\n\n    /*-----------------------------------View functions that do not require transactions-----------------------------------*/\n\n    /*Returns true if the given account can request the given patent : is either Not_requested, cancelled or rejected*/\n    function canRequest(string _patentName, address _account) public view returns (bool){\n        return !(isPending(_patentName, _account) || isAccepted(_patentName, _account) || isOwner(_patentName, _account));\n    }\n\n    /*Returns the RequestStatus of the given patent for the given account*/\n    function getRequestStatus(string _patentName, address _account) public view returns (RequestStatus){\n        return patents[_patentName].requests[_account].status;\n    }\n\n    /*Returns true of the given account hasn't requested the given patent*/\n    function isNotRequested(string _patentName, address _account) public view returns (bool){\n        return patents[_patentName].requests[_account].status == RequestStatus.Not_requested;\n    }\n\n    /*Returns true of the given account has a pending request on the given patent*/\n    function isPending(string _patentName, address _account) public view returns (bool){\n        return patents[_patentName].requests[_account].status == RequestStatus.Pending;\n    }\n\n    /*Verifies that the given address has been accepted for the given patent*/\n    function isAccepted(string _patentName, address _account) public view returns (bool){\n        return patents[_patentName].requests[_account].status == RequestStatus.Accepted;\n    }\n\n    /*Returns true if account is owner of given patent*/\n    function isOwner(string _patentName, address _account) public view returns (bool){\n        return getPatentOwner(_patentName) == _account;\n    }\n\n    /*Returns time-stamp of the Patent*/\n    function getTimeStamp(string _patentName) public view returns (uint){\n        return patents[_patentName].timestamp;\n    }\n\n    /*Returns the sha256 hash of the patent*/\n    function getPatentHash(string _patentName) public view returns (string){\n        return patents[_patentName].patentHash;\n    }\n\n    /*Returns patent's owner*/\n    function getPatentOwner(string _patentName) public view returns (address) {\n        return patents[_patentName].owner;\n    }\n\n    /*Returns the price of a patent*/\n    function getPrice(string _patentName) public view returns (uint){\n        return patents[_patentName].price;\n    }\n\n    /*Returns the number of requests for the given patent*/\n    function getNumRequests(string _patentName) public view returns (uint){\n        return patents[_patentName].numRequests;\n    }\n\n    /*Returns the address of the buyer at _index  (Used for iterating)*/\n    function getBuyers(string _patentName, uint _index) public view returns (address){\n        return patents[_patentName].buyers[_index];\n    }\n\n    /*Returns the requester's public key*/\n    function getEncryptionKey(string _patentName, address _user) public view returns (string){\n        require(msg.sender == patents[_patentName].owner);\n        return patents[_patentName].requests[_user].encryptionKey;\n    }\n\n    /*Returns the encrypted IPFS encryption key*/\n    function getEncryptedIpfsKey(string _patentName) public view returns (string){\n        require(isAccepted(_patentName, msg.sender));\n        return patents[_patentName].requests[msg.sender].encryptedIpfsKey;\n    }\n\n    /*Returns the IPFS location of the patent*/\n    function getPatentLocation(string _patentName) public view returns (string) {\n        return patents[_patentName].ipfs;\n    }\n}\n",
  "sourcePath": "/home/tarek/Documents/Master-DS/Semester-Project/DNA/Web-Applications/react-app/contracts/Patenting.sol",
  "compiler": {
    "name": "solc",
    "version": "0.4.19+commit.c4cbbb05.Emscripten.clang"
  },
  "schemaVersion": "2.0.0",
  "updatedAt": "2018-05-31T14:24:21.346Z"
}