{
  "contractName": "Patenting",
  "abi": [
    {
      "constant": true,
      "inputs": [],
      "name": "patentPrice",
      "outputs": [
        {
          "name": "",
          "type": "uint256"
        }
      ],
      "payable": false,
      "stateMutability": "view",
      "type": "function"
    },
    {
      "constant": true,
      "inputs": [
        {
          "name": "",
          "type": "uint256"
        }
      ],
      "name": "patentNames",
      "outputs": [
        {
          "name": "",
          "type": "string"
        }
      ],
      "payable": false,
      "stateMutability": "view",
      "type": "function"
    },
    {
      "constant": true,
      "inputs": [],
      "name": "owner",
      "outputs": [
        {
          "name": "",
          "type": "address"
        }
      ],
      "payable": false,
      "stateMutability": "view",
      "type": "function"
    },
    {
      "constant": false,
      "inputs": [
        {
          "name": "_newOwner",
          "type": "address"
        }
      ],
      "name": "changeOwner",
      "outputs": [],
      "payable": false,
      "stateMutability": "nonpayable",
      "type": "function"
    },
    {
      "constant": true,
      "inputs": [],
      "name": "patentCount",
      "outputs": [
        {
          "name": "",
          "type": "uint256"
        }
      ],
      "payable": false,
      "stateMutability": "view",
      "type": "function"
    },
    {
      "inputs": [
        {
          "name": "_patentPrice",
          "type": "uint256"
        }
      ],
      "payable": false,
      "stateMutability": "nonpayable",
      "type": "constructor"
    },
    {
      "anonymous": false,
      "inputs": [
        {
          "indexed": false,
          "name": "_ownerMail",
          "type": "string"
        },
        {
          "indexed": false,
          "name": "_patentName",
          "type": "string"
        },
        {
          "indexed": false,
          "name": "_rentee",
          "type": "address"
        },
        {
          "indexed": false,
          "name": "_numDays",
          "type": "uint256"
        }
      ],
      "name": "NewRental",
      "type": "event"
    },
    {
      "constant": false,
      "inputs": [
        {
          "name": "_patentName",
          "type": "string"
        },
        {
          "name": "_patentHash",
          "type": "string"
        },
        {
          "name": "_price",
          "type": "uint256"
        },
        {
          "name": "_ipfs",
          "type": "string"
        },
        {
          "name": "_email",
          "type": "string"
        }
      ],
      "name": "depositPatent",
      "outputs": [],
      "payable": true,
      "stateMutability": "payable",
      "type": "function"
    },
    {
      "constant": false,
      "inputs": [
        {
          "name": "_patentName",
          "type": "string"
        },
        {
          "name": "_daysAfter",
          "type": "uint256"
        }
      ],
      "name": "rentPatent",
      "outputs": [
        {
          "name": "",
          "type": "bool"
        }
      ],
      "payable": true,
      "stateMutability": "payable",
      "type": "function"
    },
    {
      "constant": false,
      "inputs": [],
      "name": "withdrawFunds",
      "outputs": [],
      "payable": false,
      "stateMutability": "nonpayable",
      "type": "function"
    },
    {
      "constant": true,
      "inputs": [
        {
          "name": "_patentName",
          "type": "string"
        }
      ],
      "name": "getTimeStamp",
      "outputs": [
        {
          "name": "",
          "type": "uint256"
        }
      ],
      "payable": false,
      "stateMutability": "view",
      "type": "function"
    },
    {
      "constant": true,
      "inputs": [
        {
          "name": "_patentName",
          "type": "string"
        },
        {
          "name": "_user",
          "type": "address"
        }
      ],
      "name": "getRemainingTime",
      "outputs": [
        {
          "name": "",
          "type": "uint256"
        }
      ],
      "payable": false,
      "stateMutability": "view",
      "type": "function"
    },
    {
      "constant": true,
      "inputs": [
        {
          "name": "_patentName",
          "type": "string"
        }
      ],
      "name": "getPatentHash",
      "outputs": [
        {
          "name": "",
          "type": "string"
        }
      ],
      "payable": false,
      "stateMutability": "view",
      "type": "function"
    },
    {
      "constant": true,
      "inputs": [
        {
          "name": "_patentName",
          "type": "string"
        }
      ],
      "name": "getPatentOwner",
      "outputs": [
        {
          "name": "",
          "type": "address"
        }
      ],
      "payable": false,
      "stateMutability": "view",
      "type": "function"
    },
    {
      "constant": true,
      "inputs": [
        {
          "name": "_patentName",
          "type": "string"
        }
      ],
      "name": "getRentalPrice",
      "outputs": [
        {
          "name": "",
          "type": "uint256"
        }
      ],
      "payable": false,
      "stateMutability": "view",
      "type": "function"
    },
    {
      "constant": true,
      "inputs": [
        {
          "name": "_patentName",
          "type": "string"
        }
      ],
      "name": "getPatentLocation",
      "outputs": [
        {
          "name": "",
          "type": "string"
        }
      ],
      "payable": false,
      "stateMutability": "view",
      "type": "function"
    }
  ],
  "bytecode": "0x6060604052336000806101000a81548173ffffffffffffffffffffffffffffffffffffffff021916908373ffffffffffffffffffffffffffffffffffffffff160217905550341561004f57600080fd5b604051602080611a1d83398101604052808051906020019091905050806001819055505061199b806100826000396000f3006060604052600436106100d0576000357c0100000000000000000000000000000000000000000000000000000000900463ffffffff1680630638c22c146100d557806316720cc2146100fe57806324600fc3146101d457806341e14449146101e9578063607f9e871461028557806387d5f4001461035b5780638da5cb5b146103ce57806399d2618e14610423578063a6f9dae1146104c0578063b084c841146104f9578063ba8d083614610522578063eb3e8bf814610593578063f8361dc4146106b7578063fa52c7cc14610747575b600080fd5b34156100e057600080fd5b6100e86107b8565b6040518082815260200191505060405180910390f35b341561010957600080fd5b610159600480803590602001908201803590602001908080601f016020809104026020016040519081016040528093929190818152602001838380828437820191505050505050919050506107be565b6040518080602001828103825283818151815260200191508051906020019080838360005b8381101561019957808201518184015260208101905061017e565b50505050905090810190601f1680156101c65780820380516001836020036101000a031916815260200191505b509250505060405180910390f35b34156101df57600080fd5b6101e76108d4565b005b34156101f457600080fd5b61020a60048080359060200190919050506109a9565b6040518080602001828103825283818151815260200191508051906020019080838360005b8381101561024a57808201518184015260208101905061022f565b50505050905090810190601f1680156102775780820380516001836020036101000a031916815260200191505b509250505060405180910390f35b341561029057600080fd5b6102e0600480803590602001908201803590602001908080601f01602080910402602001604051908101604052809392919081815260200183838082843782019150505050505091905050610a65565b6040518080602001828103825283818151815260200191508051906020019080838360005b83811015610320578082015181840152602081019050610305565b50505050905090810190601f16801561034d5780820380516001836020036101000a031916815260200191505b509250505060405180910390f35b6103b4600480803590602001908201803590602001908080601f01602080910402602001604051908101604052809392919081815260200183838082843782019150505050505091908035906020019091905050610cf8565b604051808215151515815260200191505060405180910390f35b34156103d957600080fd5b6103e16111f9565b604051808273ffffffffffffffffffffffffffffffffffffffff1673ffffffffffffffffffffffffffffffffffffffff16815260200191505060405180910390f35b341561042e57600080fd5b61047e600480803590602001908201803590602001908080601f0160208091040260200160405190810160405280939291908181526020018383808284378201915050505050509190505061121e565b604051808273ffffffffffffffffffffffffffffffffffffffff1673ffffffffffffffffffffffffffffffffffffffff16815260200191505060405180910390f35b34156104cb57600080fd5b6104f7600480803573ffffffffffffffffffffffffffffffffffffffff169060200190919050506112b6565b005b341561050457600080fd5b61050c611354565b6040518082815260200191505060405180910390f35b341561052d57600080fd5b61057d600480803590602001908201803590602001908080601f0160208091040260200160405190810160405280939291908181526020018383808284378201915050505050509190505061135a565b6040518082815260200191505060405180910390f35b6106b5600480803590602001908201803590602001908080601f0160208091040260200160405190810160405280939291908181526020018383808284378201915050505050509190803590602001908201803590602001908080601f0160208091040260200160405190810160405280939291908181526020018383808284378201915050505050509190803590602001909190803590602001908201803590602001908080601f0160208091040260200160405190810160405280939291908181526020018383808284378201915050505050509190803590602001908201803590602001908080601f016020809104026020016040519081016040528093929190818152602001838380828437820191505050505050919050506113d2565b005b34156106c257600080fd5b610731600480803590602001908201803590602001908080601f0160208091040260200160405190810160405280939291908181526020018383808284378201915050505050509190803573ffffffffffffffffffffffffffffffffffffffff16906020019091905050611666565b6040518082815260200191505060405180910390f35b341561075257600080fd5b6107a2600480803590602001908201803590602001908080601f0160208091040260200160405190810160405280939291908181526020018383808284378201915050505050509190505061171e565b6040518082815260200191505060405180910390f35b60015481565b6107c6611796565b6004826040518082805190602001908083835b6020831015156107fe57805182526020820191506020810190506020830392506107d9565b6001836020036101000a03801982511681845116808217855250505050505090500191505090815260200160405180910390206002018054600181600116156101000203166002900480601f0160208091040260200160405190810160405280929190818152602001828054600181600116156101000203166002900480156108c85780601f1061089d576101008083540402835291602001916108c8565b820191906000526020600020905b8154815290600101906020018083116108ab57829003601f168201915b50505050509050919050565b6000809054906101000a900473ffffffffffffffffffffffffffffffffffffffff1673ffffffffffffffffffffffffffffffffffffffff163373ffffffffffffffffffffffffffffffffffffffff1614151561092f57600080fd5b6000809054906101000a900473ffffffffffffffffffffffffffffffffffffffff1673ffffffffffffffffffffffffffffffffffffffff166108fc3073ffffffffffffffffffffffffffffffffffffffff16319081150290604051600060405180830381858888f1935050505015156109a757600080fd5b565b6003818154811015156109b857fe5b90600052602060002090016000915090508054600181600116156101000203166002900480601f016020809104026020016040519081016040528092919081815260200182805460018160011615610100020316600290048015610a5d5780601f10610a3257610100808354040283529160200191610a5d565b820191906000526020600020905b815481529060010190602001808311610a4057829003601f168201915b505050505081565b610a6d611796565b426004836040518082805190602001908083835b602083101515610aa65780518252602082019150602081019050602083039250610a81565b6001836020036101000a038019825116818451168082178552505050505050905001915050908152602001604051809103902060060160003373ffffffffffffffffffffffffffffffffffffffff1673ffffffffffffffffffffffffffffffffffffffff168152602001908152602001600020541180610bdf57506004826040518082805190602001908083835b602083101515610b595780518252602082019150602081019050602083039250610b34565b6001836020036101000a038019825116818451168082178552505050505050905001915050908152602001604051809103902060000160009054906101000a900473ffffffffffffffffffffffffffffffffffffffff1673ffffffffffffffffffffffffffffffffffffffff163373ffffffffffffffffffffffffffffffffffffffff16145b1515610bea57600080fd5b6004826040518082805190602001908083835b602083101515610c225780518252602082019150602081019050602083039250610bfd565b6001836020036101000a03801982511681845116808217855250505050505090500191505090815260200160405180910390206004018054600181600116156101000203166002900480601f016020809104026020016040519081016040528092919081815260200182805460018160011615610100020316600290048015610cec5780601f10610cc157610100808354040283529160200191610cec565b820191906000526020600020905b815481529060010190602001808311610ccf57829003601f168201915b50505050509050919050565b6000806004846040518082805190602001908083835b602083101515610d335780518252602082019150602081019050602083039250610d0e565b6001836020036101000a038019825116818451168082178552505050505050905001915050908152602001604051809103902060060160003373ffffffffffffffffffffffffffffffffffffffff1673ffffffffffffffffffffffffffffffffffffffff16815260200190815260200160002054148015610e2257506004836040518082805190602001908083835b602083101515610de75780518252602082019150602081019050602083039250610dc2565b6001836020036101000a0380198251168184511680821785525050505050509050019150509081526020016040518091039020600301543410155b1515610e2d57600080fd5b62015180820242016004846040518082805190602001908083835b602083101515610e6d5780518252602082019150602081019050602083039250610e48565b6001836020036101000a038019825116818451168082178552505050505050905001915050908152602001604051809103902060060160003373ffffffffffffffffffffffffffffffffffffffff1673ffffffffffffffffffffffffffffffffffffffff168152602001908152602001600020819055506004836040518082805190602001908083835b602083101515610f1c5780518252602082019150602081019050602083039250610ef7565b6001836020036101000a038019825116818451168082178552505050505050905001915050908152602001604051809103902060000160009054906101000a900473ffffffffffffffffffffffffffffffffffffffff1673ffffffffffffffffffffffffffffffffffffffff166108fc6004856040518082805190602001908083835b602083101515610fc45780518252602082019150602081019050602083039250610f9f565b6001836020036101000a0380198251168184511680821785525050505050509050019150509081526020016040518091039020600301549081150290604051600060405180830381858888f19350505050151561102057600080fd5b7fa16546435e4725cf3f5501daa1ab4c2c03b40b2947899b8c7aaaaab29c9057d36004846040518082805190602001908083835b6020831015156110795780518252602082019150602081019050602083039250611054565b6001836020036101000a03801982511681845116808217855250505050505090500191505090815260200160405180910390206005018433856040518080602001806020018573ffffffffffffffffffffffffffffffffffffffff1673ffffffffffffffffffffffffffffffffffffffff1681526020018481526020018381038352878181546001816001161561010002031660029004815260200191508054600181600116156101000203166002900480156111775780601f1061114c57610100808354040283529160200191611177565b820191906000526020600020905b81548152906001019060200180831161115a57829003601f168201915b5050838103825286818151815260200191508051906020019080838360005b838110156111b1578082015181840152602081019050611196565b50505050905090810190601f1680156111de5780820380516001836020036101000a031916815260200191505b50965050505050505060405180910390a16001905092915050565b6000809054906101000a900473ffffffffffffffffffffffffffffffffffffffff1681565b60006004826040518082805190602001908083835b6020831015156112585780518252602082019150602081019050602083039250611233565b6001836020036101000a038019825116818451168082178552505050505050905001915050908152602001604051809103902060000160009054906101000a900473ffffffffffffffffffffffffffffffffffffffff169050919050565b6000809054906101000a900473ffffffffffffffffffffffffffffffffffffffff1673ffffffffffffffffffffffffffffffffffffffff163373ffffffffffffffffffffffffffffffffffffffff1614151561131157600080fd5b806000806101000a81548173ffffffffffffffffffffffffffffffffffffffff021916908373ffffffffffffffffffffffffffffffffffffffff16021790555050565b60025481565b60006004826040518082805190602001908083835b602083101515611394578051825260208201915060208101905060208303925061136f565b6001836020036101000a0380198251168184511680821785525050505050509050019150509081526020016040518091039020600301549050919050565b6001548034101515156113e457600080fd5b8034111561142f573373ffffffffffffffffffffffffffffffffffffffff166108fc8234039081150290604051600060405180830381858888f19350505050151561142e57600080fd5b5b60006004876040518082805190602001908083835b6020831015156114695780518252602082019150602081019050602083039250611444565b6001836020036101000a0380198251168184511680821785525050505050509050019150509081526020016040518091039020600101541415156114ac57600080fd5b60c0604051908101604052803373ffffffffffffffffffffffffffffffffffffffff168152602001428152602001868152602001858152602001848152602001838152506004876040518082805190602001908083835b6020831015156115285780518252602082019150602081019050602083039250611503565b6001836020036101000a038019825116818451168082178552505050505050905001915050908152602001604051809103902060008201518160000160006101000a81548173ffffffffffffffffffffffffffffffffffffffff021916908373ffffffffffffffffffffffffffffffffffffffff1602179055506020820151816001015560408201518160020190805190602001906115c89291906117aa565b506060820151816003015560808201518160040190805190602001906115ef9291906117aa565b5060a082015181600501908051906020019061160c9291906117aa565b5090505060038054806001018281611624919061182a565b91600052602060002090016000889091909150908051906020019061164a929190611856565b5050600260008154809291906001019190505550505050505050565b6000426004846040518082805190602001908083835b6020831015156116a1578051825260208201915060208101905060208303925061167c565b6001836020036101000a038019825116818451168082178552505050505050905001915050908152602001604051809103902060060160008473ffffffffffffffffffffffffffffffffffffffff1673ffffffffffffffffffffffffffffffffffffffff1681526020019081526020016000205403905092915050565b60006004826040518082805190602001908083835b6020831015156117585780518252602082019150602081019050602083039250611733565b6001836020036101000a0380198251168184511680821785525050505050509050019150509081526020016040518091039020600101549050919050565b602060405190810160405280600081525090565b828054600181600116156101000203166002900490600052602060002090601f016020900481019282601f106117eb57805160ff1916838001178555611819565b82800160010185558215611819579182015b828111156118185782518255916020019190600101906117fd565b5b50905061182691906118d6565b5090565b8154818355818115116118515781836000526020600020918201910161185091906118fb565b5b505050565b828054600181600116156101000203166002900490600052602060002090601f016020900481019282601f1061189757805160ff19168380011785556118c5565b828001600101855582156118c5579182015b828111156118c45782518255916020019190600101906118a9565b5b5090506118d291906118d6565b5090565b6118f891905b808211156118f45760008160009055506001016118dc565b5090565b90565b61192491905b8082111561192057600081816119179190611927565b50600101611901565b5090565b90565b50805460018160011615610100020316600290046000825580601f1061194d575061196c565b601f01602090049060005260206000209081019061196b91906118d6565b5b505600a165627a7a723058207abeea17ac7cc83ba01b2736636895a283a534be86bd42b0477a7205ba8b7f9a0029",
  "source": "pragma solidity ^0.4.2;\n\nimport './AccessRestricted.sol';\nimport './TimeStamping.sol';\n\ncontract Patenting is AccessRestricted {\n\n    uint public patentPrice;\n    uint public patentCount;\n\n    struct Patent {\n        address owner;\n        uint timestamp;\n        string patentHash;\n        uint price;\n        string ipfs;\n        string email;\n        mapping(address => uint) authorized;\n\n    }\n\n\n    string[] public patentNames;\n    mapping(string => Patent) private patents; //PatentName to struct\n\n    event NewRental(\n        string _ownerMail,\n        string _patentName,\n        address _rentee,\n        uint _numDays\n    );\n\n    /* Constructor of the contract\n    * {param} uint : The price for depositing a pattern in Wei\n    */\n    function Patenting(uint _patentPrice) public {\n        patentPrice = _patentPrice;\n    }\n\n    /* Function to deposit a pattern\n    * {params} the patent parameters\n    * {costs} the price of a patent\n    */\n    function depositPatent(string _patentName, string _patentHash, uint _price, string _ipfs, string _email) public payable costs(patentPrice) {\n        require(patents[_patentName].timestamp == 0);\n        patents[_patentName] = Patent(msg.sender, now, _patentHash, _price, _ipfs, _email);\n        patentNames.push(_patentName);\n        patentCount++;\n    }\n\n    function rentPatent(string _patentName, uint _daysAfter) public payable returns (bool){\n        require(patents[_patentName].authorized[msg.sender] == 0 && msg.value >= patents[_patentName].price); //TODO : change this verification\n        patents[_patentName].authorized[msg.sender] = now + _daysAfter * 1 days;\n        patents[_patentName].owner.transfer(patents[_patentName].price);\n        NewRental(patents[_patentName].email, _patentName, msg.sender, _daysAfter);\n        return true;\n    }\n\n    /*Allows the owner to withdraw the remaining funds*/\n    function withdrawFunds() public onlyOwner {\n        owner.transfer(address(this).balance);\n    }\n\n    /*-----------------------------------View functions that do not require transactions-----------------------------------*/\n\n\n    function getTimeStamp(string _patentName) public view returns (uint){\n        return patents[_patentName].timestamp;\n    }\n\n    function getRemainingTime(string _patentName, address _user) public view returns (uint){\n        return patents[_patentName].authorized[_user] - now ;\n    }\n    function getPatentHash(string _patentName) public view returns (string){\n        return patents[_patentName].patentHash;\n    }\n\n    function getPatentOwner(string _patentName) public view returns (address) {\n        return patents[_patentName].owner;\n    }\n\n    function getRentalPrice(string _patentName) public view returns (uint){\n        return patents[_patentName].price;\n    }\n    function getPatentLocation(string _patentName) public view returns (string) {\n        require(patents[_patentName].authorized[msg.sender] > now || msg.sender == patents[_patentName].owner);\n        return patents[_patentName].ipfs;\n    }\n\n\n\n}\n",
  "sourcePath": "/home/tarek/Documents/Master-DS/Semester-Project/DNA/Web-Applications/react-app/contracts/Patenting.sol",
  "compiler": {
    "name": "solc",
    "version": "0.4.19+commit.c4cbbb05.Emscripten.clang"
  },
  "schemaVersion": "2.0.0",
  "updatedAt": "2018-05-10T10:01:06.144Z"
}