{
  "contractName": "Patenting",
  "abi": [
    {
      "constant": true,
      "inputs": [],
      "name": "patentPrice",
      "outputs": [
        {
          "name": "",
          "type": "uint256"
        }
      ],
      "payable": false,
      "stateMutability": "view",
      "type": "function"
    },
    {
      "constant": true,
      "inputs": [],
      "name": "owner",
      "outputs": [
        {
          "name": "",
          "type": "address"
        }
      ],
      "payable": false,
      "stateMutability": "view",
      "type": "function"
    },
    {
      "constant": false,
      "inputs": [
        {
          "name": "_newOwner",
          "type": "address"
        }
      ],
      "name": "changeOwner",
      "outputs": [],
      "payable": false,
      "stateMutability": "nonpayable",
      "type": "function"
    },
    {
      "constant": true,
      "inputs": [],
      "name": "patentCount",
      "outputs": [
        {
          "name": "",
          "type": "uint256"
        }
      ],
      "payable": false,
      "stateMutability": "view",
      "type": "function"
    },
    {
      "inputs": [
        {
          "name": "_patentPrice",
          "type": "uint256"
        }
      ],
      "payable": false,
      "stateMutability": "nonpayable",
      "type": "constructor"
    },
    {
      "anonymous": false,
      "inputs": [
        {
          "indexed": false,
          "name": "_user",
          "type": "address"
        },
        {
          "indexed": false,
          "name": "_patentHash",
          "type": "string"
        },
        {
          "indexed": false,
          "name": "duration",
          "type": "uint256"
        }
      ],
      "name": "UnlockPatent",
      "type": "event"
    },
    {
      "anonymous": false,
      "inputs": [
        {
          "indexed": false,
          "name": "_user",
          "type": "address"
        },
        {
          "indexed": false,
          "name": "_patentHash",
          "type": "string"
        }
      ],
      "name": "LockPatent",
      "type": "event"
    },
    {
      "constant": false,
      "inputs": [
        {
          "name": "_patentName",
          "type": "string"
        },
        {
          "name": "_patentHash",
          "type": "string"
        },
        {
          "name": "_price",
          "type": "uint256"
        },
        {
          "name": "_ipfs",
          "type": "string"
        }
      ],
      "name": "depositPatent",
      "outputs": [],
      "payable": true,
      "stateMutability": "payable",
      "type": "function"
    },
    {
      "constant": false,
      "inputs": [
        {
          "name": "_patentHash",
          "type": "string"
        },
        {
          "name": "_daysAfter",
          "type": "uint256"
        }
      ],
      "name": "rentPatent",
      "outputs": [
        {
          "name": "",
          "type": "bool"
        }
      ],
      "payable": true,
      "stateMutability": "payable",
      "type": "function"
    },
    {
      "constant": true,
      "inputs": [
        {
          "name": "_patentHash",
          "type": "string"
        }
      ],
      "name": "getTimeStamp",
      "outputs": [
        {
          "name": "",
          "type": "uint256"
        }
      ],
      "payable": false,
      "stateMutability": "view",
      "type": "function"
    },
    {
      "constant": true,
      "inputs": [
        {
          "name": "_patentHash",
          "type": "string"
        },
        {
          "name": "_user",
          "type": "address"
        }
      ],
      "name": "getRemainingTime",
      "outputs": [
        {
          "name": "",
          "type": "uint256"
        }
      ],
      "payable": false,
      "stateMutability": "view",
      "type": "function"
    },
    {
      "constant": true,
      "inputs": [
        {
          "name": "_patentHash",
          "type": "string"
        }
      ],
      "name": "getPatentName",
      "outputs": [
        {
          "name": "",
          "type": "string"
        }
      ],
      "payable": false,
      "stateMutability": "view",
      "type": "function"
    },
    {
      "constant": true,
      "inputs": [
        {
          "name": "_patentHash",
          "type": "string"
        }
      ],
      "name": "getPatentOwner",
      "outputs": [
        {
          "name": "",
          "type": "address"
        }
      ],
      "payable": false,
      "stateMutability": "view",
      "type": "function"
    },
    {
      "constant": true,
      "inputs": [
        {
          "name": "_patentHash",
          "type": "string"
        }
      ],
      "name": "getRentalPrice",
      "outputs": [
        {
          "name": "",
          "type": "uint256"
        }
      ],
      "payable": false,
      "stateMutability": "view",
      "type": "function"
    },
    {
      "constant": true,
      "inputs": [
        {
          "name": "_patentHash",
          "type": "string"
        }
      ],
      "name": "getPatentLocation",
      "outputs": [
        {
          "name": "",
          "type": "string"
        }
      ],
      "payable": false,
      "stateMutability": "view",
      "type": "function"
    }
  ],
  "bytecode": "0x6060604052336000806101000a81548173ffffffffffffffffffffffffffffffffffffffff021916908373ffffffffffffffffffffffffffffffffffffffff160217905550341561004f57600080fd5b60405160208061130b833981016040528080519060200190919050508060018190555050611289806100826000396000f3006060604052600436106100ba576000357c0100000000000000000000000000000000000000000000000000000000900463ffffffff1680630638c22c146100bf578063607f9e87146100e857806387d5f400146101be5780638da5cb5b1461023157806399d2618e14610286578063a6f9dae114610323578063b084c8411461035c578063ba8d083614610385578063e8ebbc86146103f6578063e966b895146104d7578063f8361dc4146105ad578063fa52c7cc1461063d575b600080fd5b34156100ca57600080fd5b6100d26106ae565b6040518082815260200191505060405180910390f35b34156100f357600080fd5b610143600480803590602001908201803590602001908080601f016020809104026020016040519081016040528093929190818152602001838380828437820191505050505050919050506106b4565b6040518080602001828103825283818151815260200191508051906020019080838360005b83811015610183578082015181840152602081019050610168565b50505050905090810190601f1680156101b05780820380516001836020036101000a031916815260200191505b509250505060405180910390f35b610217600480803590602001908201803590602001908080601f01602080910402602001604051908101604052809392919081815260200183838082843782019150505050505091908035906020019091905050610883565b604051808215151515815260200191505060405180910390f35b341561023c57600080fd5b610244610b47565b604051808273ffffffffffffffffffffffffffffffffffffffff1673ffffffffffffffffffffffffffffffffffffffff16815260200191505060405180910390f35b341561029157600080fd5b6102e1600480803590602001908201803590602001908080601f01602080910402602001604051908101604052809392919081815260200183838082843782019150505050505091905050610b6c565b604051808273ffffffffffffffffffffffffffffffffffffffff1673ffffffffffffffffffffffffffffffffffffffff16815260200191505060405180910390f35b341561032e57600080fd5b61035a600480803573ffffffffffffffffffffffffffffffffffffffff16906020019091905050610c04565b005b341561036757600080fd5b61036f610ca2565b6040518082815260200191505060405180910390f35b341561039057600080fd5b6103e0600480803590602001908201803590602001908080601f01602080910402602001604051908101604052809392919081815260200183838082843782019150505050505091905050610ca8565b6040518082815260200191505060405180910390f35b6104d5600480803590602001908201803590602001908080601f0160208091040260200160405190810160405280939291908181526020018383808284378201915050505050509190803590602001908201803590602001908080601f0160208091040260200160405190810160405280939291908181526020018383808284378201915050505050509190803590602001909190803590602001908201803590602001908080601f01602080910402602001604051908101604052809392919081815260200183838082843782019150505050505091905050610d20565b005b34156104e257600080fd5b610532600480803590602001908201803590602001908080601f01602080910402602001604051908101604052809392919081815260200183838082843782019150505050505091905050610f5e565b6040518080602001828103825283818151815260200191508051906020019080838360005b83811015610572578082015181840152602081019050610557565b50505050905090810190601f16801561059f5780820380516001836020036101000a031916815260200191505b509250505060405180910390f35b34156105b857600080fd5b610627600480803590602001908201803590602001908080601f0160208091040260200160405190810160405280939291908181526020018383808284378201915050505050509190803573ffffffffffffffffffffffffffffffffffffffff16906020019091905050611074565b6040518082815260200191505060405180910390f35b341561064857600080fd5b610698600480803590602001908201803590602001908080601f0160208091040260200160405190810160405280939291908181526020018383808284378201915050505050509190505061112c565b6040518082815260200191505060405180910390f35b60015481565b6106bc6111a4565b426003836040518082805190602001908083835b6020831015156106f557805182526020820191506020810190506020830392506106d0565b6001836020036101000a038019825116818451168082178552505050505050905001915050908152602001604051809103902060050160003373ffffffffffffffffffffffffffffffffffffffff1673ffffffffffffffffffffffffffffffffffffffff1681526020019081526020016000205411151561077557600080fd5b6003826040518082805190602001908083835b6020831015156107ad5780518252602082019150602081019050602083039250610788565b6001836020036101000a03801982511681845116808217855250505050505090500191505090815260200160405180910390206004018054600181600116156101000203166002900480601f0160208091040260200160405190810160405280929190818152602001828054600181600116156101000203166002900480156108775780601f1061084c57610100808354040283529160200191610877565b820191906000526020600020905b81548152906001019060200180831161085a57829003601f168201915b50505050509050919050565b6000806003846040518082805190602001908083835b6020831015156108be5780518252602082019150602081019050602083039250610899565b6001836020036101000a038019825116818451168082178552505050505050905001915050908152602001604051809103902060050160003373ffffffffffffffffffffffffffffffffffffffff1673ffffffffffffffffffffffffffffffffffffffff168152602001908152602001600020541480156109ad57506003836040518082805190602001908083835b602083101515610972578051825260208201915060208101905060208303925061094d565b6001836020036101000a0380198251168184511680821785525050505050509050019150509081526020016040518091039020600301543410155b15156109b857600080fd5b62015180820242016003846040518082805190602001908083835b6020831015156109f857805182526020820191506020810190506020830392506109d3565b6001836020036101000a038019825116818451168082178552505050505050905001915050908152602001604051809103902060050160003373ffffffffffffffffffffffffffffffffffffffff1673ffffffffffffffffffffffffffffffffffffffff168152602001908152602001600020819055506003836040518082805190602001908083835b602083101515610aa75780518252602082019150602081019050602083039250610a82565b6001836020036101000a038019825116818451168082178552505050505050905001915050908152602001604051809103902060000160009054906101000a900473ffffffffffffffffffffffffffffffffffffffff1673ffffffffffffffffffffffffffffffffffffffff166108fc349081150290604051600060405180830381858888f193505050501515610b3d57600080fd5b6001905092915050565b6000809054906101000a900473ffffffffffffffffffffffffffffffffffffffff1681565b60006003826040518082805190602001908083835b602083101515610ba65780518252602082019150602081019050602083039250610b81565b6001836020036101000a038019825116818451168082178552505050505050905001915050908152602001604051809103902060000160009054906101000a900473ffffffffffffffffffffffffffffffffffffffff169050919050565b6000809054906101000a900473ffffffffffffffffffffffffffffffffffffffff1673ffffffffffffffffffffffffffffffffffffffff163373ffffffffffffffffffffffffffffffffffffffff16141515610c5f57600080fd5b806000806101000a81548173ffffffffffffffffffffffffffffffffffffffff021916908373ffffffffffffffffffffffffffffffffffffffff16021790555050565b60025481565b60006003826040518082805190602001908083835b602083101515610ce25780518252602082019150602081019050602083039250610cbd565b6001836020036101000a0380198251168184511680821785525050505050509050019150509081526020016040518091039020600301549050919050565b600154803410151515610d3257600080fd5b80341115610d7d573373ffffffffffffffffffffffffffffffffffffffff166108fc8234039081150290604051600060405180830381858888f193505050501515610d7c57600080fd5b5b60006003856040518082805190602001908083835b602083101515610db75780518252602082019150602081019050602083039250610d92565b6001836020036101000a038019825116818451168082178552505050505050905001915050908152602001604051809103902060010154141515610dfa57600080fd5b60a0604051908101604052803373ffffffffffffffffffffffffffffffffffffffff168152602001428152602001868152602001670de0b6b3a764000085028152602001838152506003856040518082805190602001908083835b602083101515610e7a5780518252602082019150602081019050602083039250610e55565b6001836020036101000a038019825116818451168082178552505050505050905001915050908152602001604051809103902060008201518160000160006101000a81548173ffffffffffffffffffffffffffffffffffffffff021916908373ffffffffffffffffffffffffffffffffffffffff160217905550602082015181600101556040820151816002019080519060200190610f1a9291906111b8565b50606082015181600301556080820151816004019080519060200190610f419291906111b8565b509050506002600081548092919060010191905055505050505050565b610f666111a4565b6003826040518082805190602001908083835b602083101515610f9e5780518252602082019150602081019050602083039250610f79565b6001836020036101000a03801982511681845116808217855250505050505090500191505090815260200160405180910390206002018054600181600116156101000203166002900480601f0160208091040260200160405190810160405280929190818152602001828054600181600116156101000203166002900480156110685780601f1061103d57610100808354040283529160200191611068565b820191906000526020600020905b81548152906001019060200180831161104b57829003601f168201915b50505050509050919050565b6000426003846040518082805190602001908083835b6020831015156110af578051825260208201915060208101905060208303925061108a565b6001836020036101000a038019825116818451168082178552505050505050905001915050908152602001604051809103902060050160008473ffffffffffffffffffffffffffffffffffffffff1673ffffffffffffffffffffffffffffffffffffffff1681526020019081526020016000205403905092915050565b60006003826040518082805190602001908083835b6020831015156111665780518252602082019150602081019050602083039250611141565b6001836020036101000a0380198251168184511680821785525050505050509050019150509081526020016040518091039020600101549050919050565b602060405190810160405280600081525090565b828054600181600116156101000203166002900490600052602060002090601f016020900481019282601f106111f957805160ff1916838001178555611227565b82800160010185558215611227579182015b8281111561122657825182559160200191906001019061120b565b5b5090506112349190611238565b5090565b61125a91905b8082111561125657600081600090555060010161123e565b5090565b905600a165627a7a72305820760048b5533790b06ed540be1e9b98163ae937fc0d7e857e7b4170bf0327ac720029",
  "source": "pragma solidity ^0.4.2;\n\nimport './AccessRestricted.sol';\nimport './TimeStamping.sol';\n\ncontract Patenting is AccessRestricted {\n\n    uint public patentPrice;\n    uint public patentCount;\n\n    struct Patent {\n        address owner;\n        uint timestamp;\n        string patentName;\n        uint price;\n        string ipfs;\n        mapping(address => uint) authorized;\n\n    }\n\n    event UnlockPatent(address _user, string _patentHash, uint duration);\n    event LockPatent(address _user, string _patentHash);\n\n    mapping(string => Patent) private patents;\n\n    /* Constructor of the contract\n    * {param} uint : The price for depositing a pattern in Wei\n    */\n    function Patenting(uint _patentPrice) public {\n        patentPrice = _patentPrice;\n    }\n\n    /* Function to deposit a pattern\n    * {params} the patent parameters\n    * {costs} the price of a patent\n    */\n    function depositPatent(string _patentName, string _patentHash, uint _price, string _ipfs) public payable costs(patentPrice) {\n        require(patents[_patentHash].timestamp == 0);\n        patents[_patentHash] = Patent(msg.sender, now, _patentName,_price *1 ether, _ipfs);\n        patentCount++;\n    }\n\n    function rentPatent(string _patentHash, uint _daysAfter) public payable returns (bool){\n        require(patents[_patentHash].authorized[msg.sender] == 0 && msg.value >= patents[_patentHash].price);\n        patents[_patentHash].authorized[msg.sender] = now + _daysAfter * 1 days;\n        patents[_patentHash].owner.transfer(msg.value);\n        return true;\n    }\n\n    /*-----------------------------------View functions that do not require transactions-----------------------------------*/\n\n\n    function getTimeStamp(string _patentHash) public view returns (uint){\n        return patents[_patentHash].timestamp;\n    }\n\n    function getRemainingTime(string _patentHash, address _user) public view returns (uint){\n        return patents[_patentHash].authorized[_user] - now ;\n    }\n    function getPatentName(string _patentHash) public view returns (string){\n        return patents[_patentHash].patentName;\n    }\n\n    function getPatentOwner(string _patentHash) public view returns (address) {\n        return patents[_patentHash].owner;\n    }\n\n    function getRentalPrice(string _patentHash) public view returns (uint){\n        return patents[_patentHash].price;\n    }\n    function getPatentLocation(string _patentHash) public view returns (string) {\n        require(patents[_patentHash].authorized[msg.sender] > now);\n        return patents[_patentHash].ipfs;\n    }\n\n\n\n}\n",
  "sourcePath": "/home/tarek/Documents/Master-DS/Semester-Project/DNA/Web-Applications/react-app/contracts/Patenting.sol",
  "compiler": {
    "name": "solc",
    "version": "0.4.19+commit.c4cbbb05.Emscripten.clang"
  },
  "schemaVersion": "2.0.0",
  "updatedAt": "2018-04-30T13:46:59.476Z"
}