{
  "contractName": "TimeStamping",
  "abi": [
    {
      "constant": true,
      "inputs": [],
      "name": "stampCount",
      "outputs": [
        {
          "name": "",
          "type": "uint256"
        }
      ],
      "payable": false,
      "stateMutability": "view",
      "type": "function"
    },
    {
      "constant": true,
      "inputs": [],
      "name": "owner",
      "outputs": [
        {
          "name": "",
          "type": "address"
        }
      ],
      "payable": false,
      "stateMutability": "view",
      "type": "function"
    },
    {
      "constant": true,
      "inputs": [],
      "name": "price",
      "outputs": [
        {
          "name": "",
          "type": "uint256"
        }
      ],
      "payable": false,
      "stateMutability": "view",
      "type": "function"
    },
    {
      "constant": true,
      "inputs": [],
      "name": "fiat",
      "outputs": [
        {
          "name": "",
          "type": "address"
        }
      ],
      "payable": false,
      "stateMutability": "view",
      "type": "function"
    },
    {
      "constant": false,
      "inputs": [
        {
          "name": "_newOwner",
          "type": "address"
        }
      ],
      "name": "changeOwner",
      "outputs": [],
      "payable": false,
      "stateMutability": "nonpayable",
      "type": "function"
    },
    {
      "inputs": [
        {
          "name": "_price",
          "type": "uint256"
        },
        {
          "name": "_fiatContract",
          "type": "address"
        }
      ],
      "payable": false,
      "stateMutability": "nonpayable",
      "type": "constructor"
    },
    {
      "payable": true,
      "stateMutability": "payable",
      "type": "fallback"
    },
    {
      "constant": false,
      "inputs": [],
      "name": "withdrawFunds",
      "outputs": [],
      "payable": false,
      "stateMutability": "nonpayable",
      "type": "function"
    },
    {
      "constant": true,
      "inputs": [],
      "name": "getEthPrice",
      "outputs": [
        {
          "name": "",
          "type": "uint256"
        }
      ],
      "payable": false,
      "stateMutability": "view",
      "type": "function"
    },
    {
      "constant": false,
      "inputs": [
        {
          "name": "_hash",
          "type": "string"
        }
      ],
      "name": "stamp",
      "outputs": [],
      "payable": true,
      "stateMutability": "payable",
      "type": "function"
    },
    {
      "constant": false,
      "inputs": [
        {
          "name": "_hash",
          "type": "string"
        }
      ],
      "name": "ownerStamp",
      "outputs": [],
      "payable": true,
      "stateMutability": "payable",
      "type": "function"
    },
    {
      "constant": true,
      "inputs": [
        {
          "name": "_hash",
          "type": "string"
        }
      ],
      "name": "getTimestamp",
      "outputs": [
        {
          "name": "",
          "type": "uint256"
        }
      ],
      "payable": false,
      "stateMutability": "view",
      "type": "function"
    },
    {
      "constant": true,
      "inputs": [
        {
          "name": "_hash",
          "type": "string"
        }
      ],
      "name": "getUser",
      "outputs": [
        {
          "name": "",
          "type": "address"
        }
      ],
      "payable": false,
      "stateMutability": "view",
      "type": "function"
    }
  ],
  "bytecode": "0x6060604052336000806101000a81548173ffffffffffffffffffffffffffffffffffffffff021916908373ffffffffffffffffffffffffffffffffffffffff160217905550341561004f57600080fd5b604051604080610ad4833981016040528080519060200190919080519060200190919050508160028190555080600460006101000a81548173ffffffffffffffffffffffffffffffffffffffff021916908373ffffffffffffffffffffffffffffffffffffffff160217905550600060038190555050506109ff806100d56000396000f3006060604052600436106100af576000357c0100000000000000000000000000000000000000000000000000000000900463ffffffff16806324600fc3146100b157806331feb671146100c657806332e5e595146101635780633974428f146101d457806367c9b017146101fd5780638da5cb5b14610226578063a035b1fe1461027b578063a50edca0146102a4578063a6f9dae1146102f9578063caa2d01a14610332578063f63c82fb14610384575b005b34156100bc57600080fd5b6100c46103d6565b005b34156100d157600080fd5b610121600480803590602001908201803590602001908080601f016020809104026020016040519081016040528093929190818152602001838380828437820191505050505050919050506104ab565b604051808273ffffffffffffffffffffffffffffffffffffffff1673ffffffffffffffffffffffffffffffffffffffff16815260200191505060405180910390f35b341561016e57600080fd5b6101be600480803590602001908201803590602001908080601f01602080910402602001604051908101604052809392919081815260200183838082843782019150505050505091905050610543565b6040518082815260200191505060405180910390f35b34156101df57600080fd5b6101e76105bb565b6040518082815260200191505060405180910390f35b341561020857600080fd5b6102106105c1565b6040518082815260200191505060405180910390f35b341561023157600080fd5b610239610683565b604051808273ffffffffffffffffffffffffffffffffffffffff1673ffffffffffffffffffffffffffffffffffffffff16815260200191505060405180910390f35b341561028657600080fd5b61028e6106a8565b6040518082815260200191505060405180910390f35b34156102af57600080fd5b6102b76106ae565b604051808273ffffffffffffffffffffffffffffffffffffffff1673ffffffffffffffffffffffffffffffffffffffff16815260200191505060405180910390f35b341561030457600080fd5b610330600480803573ffffffffffffffffffffffffffffffffffffffff169060200190919050506106d4565b005b610382600480803590602001908201803590602001908080601f01602080910402602001604051908101604052809392919081815260200183838082843782019150505050505091905050610772565b005b6103d4600480803590602001908201803590602001908080601f016020809104026020016040519081016040528093929190818152602001838380828437820191505050505050919050506107da565b005b6000809054906101000a900473ffffffffffffffffffffffffffffffffffffffff1673ffffffffffffffffffffffffffffffffffffffff163373ffffffffffffffffffffffffffffffffffffffff1614151561043157600080fd5b6000809054906101000a900473ffffffffffffffffffffffffffffffffffffffff1673ffffffffffffffffffffffffffffffffffffffff166108fc3073ffffffffffffffffffffffffffffffffffffffff16319081150290604051600060405180830381858888f1935050505015156104a957600080fd5b565b60006001826040518082805190602001908083835b6020831015156104e557805182526020820191506020810190506020830392506104c0565b6001836020036101000a038019825116818451168082178552505050505050905001915050908152602001604051809103902060000160009054906101000a900473ffffffffffffffffffffffffffffffffffffffff169050919050565b60006001826040518082805190602001908083835b60208310151561057d5780518252602082019150602081019050602083039250610558565b6001836020036101000a0380198251168184511680821785525050505050509050019150509081526020016040518091039020600101549050919050565b60035481565b60006002546064600460009054906101000a900473ffffffffffffffffffffffffffffffffffffffff1673ffffffffffffffffffffffffffffffffffffffff16630c560c64600080604051602001526040518263ffffffff167c010000000000000000000000000000000000000000000000000000000002815260040180828152602001915050602060405180830381600087803b151561066157600080fd5b6102c65a03f1151561067257600080fd5b505050604051805190500202905090565b6000809054906101000a900473ffffffffffffffffffffffffffffffffffffffff1681565b60025481565b600460009054906101000a900473ffffffffffffffffffffffffffffffffffffffff1681565b6000809054906101000a900473ffffffffffffffffffffffffffffffffffffffff1673ffffffffffffffffffffffffffffffffffffffff163373ffffffffffffffffffffffffffffffffffffffff1614151561072f57600080fd5b806000806101000a81548173ffffffffffffffffffffffffffffffffffffffff021916908373ffffffffffffffffffffffffffffffffffffffff16021790555050565b6000809054906101000a900473ffffffffffffffffffffffffffffffffffffffff1673ffffffffffffffffffffffffffffffffffffffff163373ffffffffffffffffffffffffffffffffffffffff161415156107cd57600080fd5b6107d78133610856565b50565b6000809054906101000a900473ffffffffffffffffffffffffffffffffffffffff1673ffffffffffffffffffffffffffffffffffffffff163373ffffffffffffffffffffffffffffffffffffffff161415801561083e575061083a6105c1565b3410155b151561084957600080fd5b6108538133610856565b50565b60006001836040518082805190602001908083835b602083101515610890578051825260208201915060208101905060208303925061086b565b6001836020036101000a0380198251168184511680821785525050505050509050019150509081526020016040518091039020600101541415156108d357600080fd5b60408051908101604052808273ffffffffffffffffffffffffffffffffffffffff168152602001428152506001836040518082805190602001908083835b6020831015156109365780518252602082019150602081019050602083039250610911565b6001836020036101000a038019825116818451168082178552505050505050905001915050908152602001604051809103902060008201518160000160006101000a81548173ffffffffffffffffffffffffffffffffffffffff021916908373ffffffffffffffffffffffffffffffffffffffff1602179055506020820151816001015590505060036000815480929190600101919050555050505600a165627a7a72305820c43db364c9372a7d18aa15584f6d0664e3ccb2176e9fdaa99b4551036d9022cd0029",
  "source": "pragma solidity ^0.4.0;\n\nimport './AccessRestricted.sol';\nimport './FiatContract.sol';\n\ncontract TimeStamping is AccessRestricted {\n\n    struct Stamp {\n        address user;\n        uint timestamp;\n    }\n\n    mapping(string => Stamp) timestamps;\n    uint public price;\n\n    uint public stampCount;\n\n    FiatContract public fiat;\n    function TimeStamping(uint _price, address _fiatContract) public {\n        price = _price;\n        fiat = FiatContract(_fiatContract);\n        stampCount = 0;\n    }\n\n    //Withdraw funds only by owner\n    function withdrawFunds() public onlyOwner {\n        owner.transfer(address(this).balance);\n    }\n\n    //For simple donations\n    function () public payable{\n\n    }\n\n    /*Returns price */\n    function getEthPrice() public view returns (uint){\n        return fiat.USD(0) * 100 * price;\n    }\n\n    //Stamp a hash, costs a certain amount (for precise time stamping)\n    function stamp(string _hash) public payable{\n        require(msg.sender != owner && msg.value >= getEthPrice());\n        stampHash(_hash, msg.sender);\n    }\n\n    //Owner stamp, usually used to timestamp the root of a merkle tree\n    function ownerStamp(string _hash) public payable onlyOwner {\n        stampHash(_hash, msg.sender);\n    }\n\n    //Helper function to stamp hash for a certain user\n    function stampHash(string _hash, address user) private {\n        require(timestamps[_hash].timestamp == 0);\n        timestamps[_hash] = Stamp(user, now);\n        stampCount++;\n    }\n\n    //Return the timestamp of a given hash or 0 if non existent\n    function getTimestamp(string _hash) public view returns (uint){\n        return timestamps[_hash].timestamp;\n    }\n\n    //Get the user linked to a hash or 0 if non existent\n    function getUser(string _hash) public view returns (address){\n        return timestamps[_hash].user;\n    }\n}\n",
  "sourcePath": "/home/tarek/Documents/Master-DS/Semester-Project/DNA/Web-Applications/react-app/contracts/TimeStamping.sol",
  "compiler": {
    "name": "solc",
    "version": "0.4.19+commit.c4cbbb05.Emscripten.clang"
  },
  "schemaVersion": "2.0.0",
  "updatedAt": "2018-06-08T14:46:51.178Z"
}